:020000040800F2
:10200000C837002001220008092200080B2200081E
:102010000D2200080F220008112200080000000015
:102020000000000000000000000000001322000873
:102030001522000800000000F3220008E94A000809
:102040001B2200081B2200081B2200081B2200087C
:102050001B2200081B2200081B2200081B2200086C
:102060001B2200081B2200081B220008C9290008A7
:102070001B2200081B2200081B2200081B2200084C
:102080001B2200081B2200081B2200081B2200083C
:102090001B2200081B2200081B2200081B2200082C
:1020A0001B2200081B2200081B2200081B2200081C
:1020B0001B2200081B2200081B2200081B2200080C
:1020C0001B2200081B2200081B2200081B220008FC
:1020D0001B220008416700081B2200081B22000881
:1020E0001B2200081B2200081B2200081B220008DC
:1020F0001B2200081B2200081B2200081B220008CC
:102100001B2200081B2200081B2200081B220008BB
:102110001B220008896600081B2200081B220008F9
:102120001B2200081B2200081B2200081B2200089B
:1021300000F002F800F03AF80AA090E8000C82449F
:102140008344AAF10107DA4501D100F02FF8AFF27C
:10215000090EBAE80F0013F0010F18BFFB1A43F085
:1021600001031847F458000014590000103A24BF26
:1021700078C878C1FAD8520724BF30C830C144BFEC
:1021800004680C607047000000230024002500262E
:10219000103A28BF78C1FBD8520728BF30C148BFCA
:1021A0000B6070471FB51FBD10B510BD00F04BF898
:1021B0001146FFF7F7FF04F081FC00F069F803B463
:1021C000FFF7F2FF03BC00F071F8000072B6704731
:1021D00062B67047EFF3108072B6704780F31088D4
:1021E000704730BF704720BF7047B0FA80F070472B
:1021F00090FAA0F0B0FA80F0704790FAA0F0704723
:102200000948804709480047FEE7FEE7FEE7FEE78A
:10221000FEE7FEE7FEE7FEE7FEE7FEE704480549C6
:10222000054A064B70470000B963000831210008D9
:10223000C8310020C8370020C8330020C833002030
:10224000704770477047754600F02CF8AE460500A1
:102250006946534620F00700854618B020B5FFF7C1
:10226000DDFFBDE820404FF000064FF000074FF0C3
:1022700000084FF0000B21F00701AC46ACE8C009A4
:10228000ACE8C009ACE8C009ACE8C0098D467047AD
:1022900010B50446AFF300802046BDE81040FFF7BC
:1022A0008EBF0000004870476431002001491820AB
:1022B000ABBEFEE726000200704700001D484FF04D
:1022C000FF010170002080F309881B48016881F339
:1022D00008881A484FF08051016062B6FEE717483F
:1022E0004FF080510160704714484FF080510160F9
:1022F000704772B6EFF3098028B1203880E8F00FFC
:102300000F490968086000B50E4880475DF804EB86
:102310000D480E490A78027009480D490A680260A2
:10232000106890E8F00F203080F309884EF0F40E2A
:1023300062B6704722ED00E06400002004ED00E08A
:102340005C000020694900083000002031000020B6
:102350006000002021B1826842F48072826003E054
:10236000826822F480728260704721B1826842F4F0
:10237000A002826003E0826822F4A00282607047BB
:102380003C483D4908603D4848603D4888603D48BC
:10239000C8603D4808613D4848613D488861C86162
:1023A000086248628862C862086348638863C865D7
:1023B000086648668866C8660867C1F88400C1F880
:1023C0008800C1F898003348C1F89C003248C1F831
:1023D000A0002F48C1F8AC00C1F8B000C1F8B400AB
:1023E000C1F8B800C1F8BC00C1F8C000C1F8C40011
:1023F000C1F8C800C1F8CC00C1F8D0002748C1F826
:10240000DC002748C1F8E0002648C1F8E40026486F
:10241000C1F8E8002548C1F8EC002548C1F844019E
:102420001B48C1F84801C1F85001C1F85401C1F876
:102430006401C1F86801C1F86C01C1F87001C1F80C
:102440007401C1F87801C1F88C01C1F89001C1F89C
:102450009401C1F89801C1F89C01C1F8A001C1F82C
:10246000A401C1F8A801C1F8BC01C1F8C001C1F8BC
:10247000C4017047E16000081C2A0020A96100081F
:10248000C56100085962000869620008F16000082F
:102490009D61000851610008016100082961000880
:1024A000255F0008D55E00083D5F0008A55E0008B6
:1024B0006561000810B50421014800F037FD10BD2A
:1024C0000018014010B50421014800F02DFD10BD99
:1024D0000018014070B5044600250C49204605F05F
:1024E000F3F806460A4905F0F7F905464FF07E5124
:1024F000284605F0B5F901D84FF07E550549284624
:1025000005F0AEF800D8034D284670BDF7E4213E33
:10251000666666400AD7233C70B50024002500F0AB
:1025200097F901F075F81848184908610015888274
:102530000820C86014484860C0140881082008605A
:10254000084601F0DAF800F02DF800F09DFF05468E
:102550004DB90F480F4908600F4848600F48886020
:102560000F48C86009E00A480A4908600A484860FC
:102570000A4888600A48C86000BF00BF00F0A0F9A0
:102580000446204670BD0000000C0140F42B0020E2
:1025900033335340E42B0020333383406666263FB9
:1025A000D524000808B50121202003F0FBFCC02041
:1025B000ADF8000004208DF8030002208DF8020021
:1025C0006946024800F01CFC08BD000000140140F0
:1025D00001460846044A1268904203D9024A12682A
:1025E000801A00E0002070477800002070B50025B8
:1025F00000BFFFF7EFFD054600BF0648046800BFB7
:102600002846FFF7EBFD00BF2046FFF7E1FF064637
:10261000304670BD7C00002070B50025FFF7E6FF56
:10262000044600BFFFF7D6FD054600BF0020044961
:10263000086000BF2846FFF7D1FD00BF204670BDEF
:102640007C00002000B509480088401C074908802C
:102650000748008818B900F039F8064908600448AE
:102660000088401C0249088000BD00006C0000206A
:102670006E0000207000002000B50F480088401E4A
:102680000D4A108010460088A0B900F01FF80B4AD0
:102690001060104600680A4A1268811A09480068EA
:1026A000884201D20748016007480068884201D289
:1026B0000548016000BD00006E000020740000208D
:1026C000700000207C00002080000020014840684D
:1026D00070470000001000E030B502460B460021B4
:1026E00000244FF6FF7000BF12E0555C68400024E4
:1026F0000AE000F0010525B140104AF201056840EA
:1027000000E04010651CECB2082CF2DB4D1CA9B2B5
:102710009942EADB30BD000010B50446012C0DD013
:102720004448007800F0010008B900F031F90020B9
:1027300000F05EFF00204049087010BD3F4800785F
:1027400030B101281ED0022844D003286BD159E0B3
:102750003B49D1F898013B4904F082FF0ED8384933
:10276000D1F88401384905F07BF803D801203349BA
:10277000087006E003203149087002E002202F496A
:10278000087054E02B48007800F0010008B900F010
:10279000FFF82B49D1F898014FF0824105F060F81D
:1027A00006D92749D1F88401284904F059FF08D8EF
:1027B000002000F01DFF00201F4908701F4908700D
:1027C00007E0012000F014FF01201B4908701B499D
:1027D00008702CE0002000F00BFF00201649087064
:1027E0001448007800F0010008B100F05FF81148CB
:1027F0000078C0F3001008B100F0B6F800200F49CF
:10280000087014E0002000F0F3FE00200A49087070
:102810000848007800F0010008B900F0B9F800207D
:102820000649087003E000200449087000BF00BF9B
:1028300000BF82E79400002095000020A000002047
:10284000400900200000A0400000F0410000E041ED
:1028500008B50121402003F0A5FB0520ADF80000DC
:1028600010208DF8030003208DF802006946064809
:1028700000F0C6FA0121044800F058FB0421024888
:1028800000F054FB08BD00000018014010B5012104
:10289000014800F04BFB10BD0018014010B50121AC
:1028A000014800F041FB10BD0018014010B5102395
:1028B0001422D021014801F039F810BDF42B00207A
:1028C0002DE9F04100242448C06810B9601EBDE81D
:1028D000F0814FF488731422D021204801F026F8AB
:1028E000044600232922D0211C4801F01FF804448B
:1028F0000A231522D021194801F018F804440323B3
:102900001A22D021154801F011F8044412494868F0
:10291000134904F0E1FF0746124904F0D5FE0646CC
:1029200004F052FE85B22B461B22D0210B4800F04A
:10293000FDFF04444FF461631D22D021074800F0DD
:10294000F5FF044445F260431E22D021034800F005
:10295000EDFF04442046BAE7E42B0020F42B0020CE
:10296000000074400000A04210B54FF48873142298
:10297000D021064800F0DAFF142000F016F91023E9
:102980001422D021014800F0D1FF10BDF42B00200B
:1029900010B54FF488731422D021024800F0C6FF0E
:1029A00010BD0000F42B002010B54FF480710248D8
:1029B00000F0BCFA10BD00000008014001200149F0
:1029C000088070474009002010B5022000F0B0F8E0
:1029D000002864D03248006820F0020030490860C6
:1029E00000212F480838FFF7C0FC00212C48083888
:1029F000FFF7B0FC022000F081F8002029490870A0
:102A000031E000212848274A127840F8221000209F
:102A1000264908701EE02549097801EB8101214A09
:102A200012781144224A32F8110004F005FE0446DF
:102A30001D481C4A127850F82210204604F078FCF9
:102A40001949184A127841F8220018480078401CA9
:102A500016490870154800780A28DCDB1148007810
:102A6000401C104908700F4800780528C9DB0E4843
:102A70000068104908600C4840680F4908600A481F
:102A800080680E4908600848C0680D49086006481B
:102A900000690C49086000210B4800F03DF810BDAA
:102AA00008240140B400002038310020B500002087
:102AB000D4300020B8000020BC000020C00000205E
:102AC000C8000020C40000200800024010B50446E1
:102AD0004FF40061074800F029FA0021064800F091
:102AE0001BF80548443884640121034800F014F8B9
:102AF00010BD0000000801404400024000F0805179
:102B000011B10349086001E00249486070470000C4
:102B1000040402400000024021B1026842F00102B8
:102B2000026004E002684FF6FE731A4002607047CC
:102B300001460020002201F0805313B1054B1A68B2
:102B400001E0054B1A6802EA01030BB1012000E025
:102B50000020704700040240000002401AB10368E0
:102B60000B43036002E003688B430360704710B5BA
:102B70000022026847F6F0739A430C6A8B6823437D
:102B80000C6923434C6923438C692343CC69234359
:102B90004C6A23438C6A23431A430260CB68436028
:102BA0000B6883604B68C36010BD06E0482100BF1E
:102BB0000A1EA1F1010359B2FADA021EA0F10103C3
:102BC00058B2F3DA7047000010B500F0E1F8352094
:102BD00000F01EF800240AE00B4901EBC42000F0CD
:102BE0001DF800BF00F05AF80128FBD0641C502CDF
:102BF000F2D3064800F012F800BF00F04FF80128A9
:102C0000FBD000F065F810BD00A0020800F0070836
:102C10000149C860704700000020024030B50446FA
:102C200004254FF4302000F0BFF80546042D17D1DD
:102C30000C48006940F002000A49086108464461F6
:102C4000006940F0400008614FF4302000F0ACF81B
:102C500005460448006941F6FD71084001490861D4
:102C6000284630BD0020024004200B49C96801F00D
:102C7000010109B101200EE00749C96801F0040112
:102C800009B1022007E00449C96801F0100109B147
:102C9000032000E0042070470020024004200B497C
:102CA000C96801F0010109B101200EE00749C968B6
:102CB00001F0040109B1022007E00449C96801F0EC
:102CC000100109B1032000E00420704700200240F9
:102CD0000348006940F08000014908617047000026
:102CE0000020024070B504460D460426F00200F0B4
:102CF0005BF80646042E11D10948006940F0010036
:102D0000074908612580F00200F04EF806460448A5
:102D1000006941F6FE71084001490861304670BD06
:102D20000020024078B506460C460425002000909D
:102D3000E80200F039F80546042D24D11348006953
:102D400040F00100114908613480E80200F02CF8DD
:102D50000546042D10D1B01C0090200C009908806D
:102D6000E80200F021F805460848006941F6FE71C6
:102D700008400649086106E00448006941F6FE7112
:102D8000084002490861284678BD00000020024042
:102D9000024803494860034848607047230167457B
:102DA00000200240AB89EFCD00B502460423FFF7B7
:102DB0005BFF034603E0FFF757FF0346521E012B5C
:102DC00001D1002AF7D102B90523184600BD000041
:102DD00010B500F0F7FB4FF400700849A1F8680146
:102DE00000F0ACFB0549B1F8681108430349A1F8AC
:102DF000680180210148A0F86A1110BD4009002037
:102E00002DE9F04102460025002600200023002481
:102E1000002791F803C00CF00F0591F803C00CF0E7
:102E2000100CBCF1000F03D091F802C04CEA05056C
:102E300091F800C0BCF1000F31D0146800202BE0E5
:102E40004FF0010C0CFA00F3B1F800C00CEA0306D5
:102E50009E4220D183004FF00F0C0CFA03F7BC43C5
:102E600005FA03FC4CEA040491F803C0BCF1280FF6
:102E700006D14FF0010C0CFA00FCC2F814C00AE0B5
:102E800091F803C0BCF1480F05D14FF0010C0CFACA
:102E900000FCC2F810C0401C0828D1D31460B1F85F
:102EA00000C0BCF1FF0F34DD546800202EE000F1BB
:102EB000080C4FF0010808FA0CF3B1F800C00CEA56
:102EC00003069E4221D183004FF00F0C0CFA03F74A
:102ED000BC4305FA03FC4CEA040491F803C0BCF1BE
:102EE000280F05D100F1080C08FA0CF8C2F814807C
:102EF00091F803C0BCF1480F07D100F1080C4FF066
:102F0000010808FA0CF8C2F81080401C0828CED33B
:102F10005460BDE8F0810246002093680B400BB17D
:102F2000012000E000207047416170470161704757
:102F3000004870471C2A002038B5044600256B461F
:102F40003422D0213F4800F0FFFB054615B14FF079
:102F5000FF3038BDBDF8000000F4807088B12078E3
:102F600020F00100401C2070207820F0020020702A
:102F7000207820F004002070207820F008002070D5
:102F800030E0207820F001002070BDF8000000F053
:102F9000800028B1207820F00200801C207003E01F
:102FA000207820F002002070BDF8000000F0400002
:102FB00028B1207820F00400001D207003E0207864
:102FC00020F004002070BDF8000000F0180028B1C7
:102FD000207820F008000830207003E0207820F0EE
:102FE00008002070BDF8000000F0040028B120782F
:102FF00020F010001030207003E0207820F0100046
:103000002070BDF8000000F0020028B1207820F008
:1030100020002030207003E0207820F02000207075
:10302000BDF8000000F0010028B1207820F0400039
:103030004030207003E0207820F040002070002015
:1030400087E70000F42B00202DE9F8430446002513
:103050006B463D22D0210C4800F076FB054685B931
:10306000BDF9000004F0D0FA8046084904F02CFBBA
:103070000746074904F0CAF90646064904F0C6F9AE
:1030800020602846BDE8F883F42B0020DC80BB3F9D
:103090000000404000007A442DE9F8430446002532
:1030A0006B463E22D0210C4800F04EFB054685B908
:1030B000BDF9000004F0A8FA8046084904F004FBBA
:1030C0000746074904F0A2F90646064904F09EF9AE
:1030D00020602846BDE8F883F42B0020DC80BBBFCD
:1030E0000000404000007A4410B50024734800F00E
:1030F000FDF904447148083000F004F904446F48B5
:103100000C3800F0D3F904446C480C30FFF7C4FFCE
:1031100004446A48001FFFF797FF04446848FFF71C
:103120000BFF04445CB90020664908706648D0F87B
:10313000B80120F000406449C1F8B8011AE06148C4
:1031400001780078401C5F4A1070052912DD0520C7
:10315000114608705C48D0F8B80120F0004000F13A
:1031600000405949C1F8B80100215748C0F89011F2
:10317000C0F88C1152480078C0F3401058B950483C
:103180000078C0F3801030B94F49D1F890014F4911
:1031900004F066FA18D800204D4908804D48008890
:1031A000401C4C49088008460088142829DB002070
:1031B00008804548D0F8B80120F0005000F10050D8
:1031C0004149C1F8B8011CE03F49D1F8900142499A
:1031D00004F046FB15D800203E4908803C48008892
:1031E000401C3B49088008460088642809DB002011
:1031F00008803548D0F8B80120F000503249C1F8B5
:10320000B8013149D1F89C01344904F029FA4BD274
:103210002D49D1F88C01314904F022FA44D22A49CF
:10322000D1F890012E4904F01BFA19D800202D493D
:1032300008802D480088401C2B49088008460088DB
:10324000B0F5167F30DB002008801F48D0F8B801A9
:1032500020F0805000F180501B49C1F8B80123E0F4
:103260001949D1F89001214904F0FAFA17D8002041
:103270001D4908801B480088401C1A4908800846E0
:103280000088B0F5967F0FDB002008800E48D0F84C
:10329000B80120F080500C49C1F8B80104E00020CA
:1032A00010490880104908800749D1F8900100F0C2
:1032B0001FF80549C1F8940110BD0000D00A002094
:1032C0009400002096000020400900200000B0413A
:1032D0009C0000209E0000200000BC41CDCC4C3E54
:1032E0000000C4419A000020980000200000D44152
:1032F00010B504460248C1682046884710BD00004A
:10330000E42B00202DE9FE4F04464FF0000A02ABEB
:103310004022D021484800F017FA8246BAF1000F47
:1033200023D1BDF9080004F06FF90746434904F0C2
:10333000C8FA0546BDF9080004F066F90746404999
:1033400004F0C2F90646294604F060F881463D497A
:10335000484604F085F909D849463B4804F0B4F9D9
:1033600005463A4903F0E4FF206062E035494846EB
:1033700004F076FA0ED23249484604F071F909D8C1
:103380004946334804F0A0F90546324903F0D0FF1E
:1033900020604EE02A49484604F062FA18D22E49CD
:1033A000484604F05DF913D8484603F095FF0746F8
:1033B0002A4A2B4B03F072FD05464FF00042294B81
:1033C00003F07CFCCDE9000103F046FC206030E016
:1033D0002149484604F044FA0ED22349484604F0F5
:1033E0003FF909D84946214804F06EF905462049BD
:1033F00003F09EFF20601CE01B49484604F030FAB1
:103400000ED21C49484604F02BF909D849461A48FF
:1034100004F05AF90546194903F08AFF206008E0D4
:103420004946174804F050F90546164903F080FF55
:1034300020605046BDE8FE8FF42B002000AAAA466B
:10344000000020419A999940B0031CC19358B4429E
:1034500013F271C0E9A67642CDCC644164CC5D4BD9
:10346000C88700C0E9A646403333B3418885A2BF70
:10347000DB7906420000E441D34D62BF1D5AC941C9
:103480004F1EB6BEDD24EC4010B500244021064896
:10349000FFF741FD04436006040E80210248FFF758
:1034A0003AFD0443204610BD00140140F8B504461F
:1034B00000256B463B22D021094800F045F905461E
:1034C00065B9BDF9000004F09FF80746054904F00E
:1034D000FBF80646044903F099FF20602846F8BD32
:1034E000F42B0020AAF1D23F00007A442DE9F843E2
:1034F000044600256B463A22D0210C4800F024F9FE
:10350000054685B9BDF9000004F07EF880460849FB
:1035100004F0DAF80746074904F0D6F806460649EB
:1035200003F074FF20602846BDE8F883F42B0020E8
:103530000000E040DBE0443E00007A4410B5002487
:103540004FF400710A48FFF7E6FC04436006040EDE
:103550004FF480710648FFF7DEFC04436006040E5A
:1035600080210348FFF7D7FC0443204610BD00002C
:1035700000180140F8B5044600266B46002292214F
:103580000F4800F0E1F80646BEB99DF80150BDF8BD
:103590000000000200B20090BDF8000000F47F407F
:1035A00000B20090BDF9000028430090BDF9000072
:1035B000C11700EB1161091221803046F8BD0000EF
:1035C0004C31002008B50121402002F0EBFC4FF403
:1035D0006070ADF8000004208DF8030002208DF823
:1035E000020069460148FFF70BFC08BD00180140C6
:1035F00010B50446012C04D120210448FFF796FCA5
:1036000003E020210148FFF78FFC10BD00140140AA
:1036100008B50121202002F0C5FC2020ADF80000F3
:1036200010208DF8030002208DF80200694604483E
:10363000FFF7E6FB20210248FFF776FC08BD0000FB
:103640000014014070B504460025A18A2069FFF7E7
:103650006BFC21896068FFF769FC0120FFF7A5FA80
:10366000A18A2069FFF762FC0320FFF79EFA2189F7
:103670006068FFF750FC012800D10125A18A20696C
:10368000FFF752FC0120FFF790FA284670BD70B595
:1036900004460D46A18A2069FFF746FC0120FFF78A
:1036A00084FA21896068FFF741FC00202870072612
:1036B00020E0A18A2069FFF737FC0120FFF775FAA7
:1036C000A18A2069FFF732FC0320FFF76EFA2189F7
:1036D0006068FFF720FC012803D12978B04001433E
:1036E0002970A18A2069FFF71FFC0220FFF75DFA0D
:1036F000701E46B2002EDCDA70BD38B504460121DA
:10370000206802F04FFC0121E06802F04BFC2089A8
:10371000ADF8000014208DF8030003208DF802009E
:1037200069466068FFF76CFB21896068FFF7FEFB64
:10373000A08AADF8000069462069FFF761FBA18A05
:103740002069FFF7F3FB38BD2DE9F84380460E46AC
:1037500017461C4600250020208006F0FE06404645
:1037600000F0ADF83146404600F03EF84046FFF725
:1037700069FF00B16D1E3946404600F035F84046FD
:10378000FFF760FF00B16D1E46F00106404600F0F5
:1037900096F83146404600F027F84046FFF752FFC2
:1037A00000B16D1E69464046FFF771FF20889DF805
:1037B000001008432080404600F049F86946404622
:1037C000FFF765FF20889DF800104FF47F4202EA62
:1037D000012108432080404600F055F8404600F0A3
:1037E00086F82846BDE8F8832DE9F04104460E46E8
:1037F0000127072527E0A18A2069FFF795FB012013
:10380000FFF7D3F946FA05F000F0010020B1218955
:103810006068FFF78BFB03E021896068FFF784FB9A
:103820000120FFF7C2F9A18A2069FFF77FFB05207D
:10383000FFF7BBF9A18A2069FFF776FB0120FFF7AC
:10384000B4F9681E45B2002DD5DABDE8F08110B597
:103850000446A18A2069FFF767FB21896068FFF7AA
:1038600063FB0120FFF7A1F9A18A2069FFF75EFB46
:103870000520FFF79AF9A18A2069FFF755FB01207F
:10388000FFF793F910BD10B50446A18A2069FFF730
:103890004BFB21896068FFF749FB0120FFF785F9A1
:1038A000A18A2069FFF742FB0520FFF77EF9A18A74
:1038B0002069FFF739FB0120FFF777F910BD10B53C
:1038C000044621896068FFF731FB0220FFF76DF99C
:1038D000A18A2069FFF72AFB0220FFF766F92189F8
:1038E0006068FFF721FB0220FFF75FF910BD10B5FC
:1038F0000446A18A2069FFF717FB0120FFF755F95D
:1039000021896068FFF710FB0120FFF74EF9A18ABB
:103910002069FFF70BFB0220FFF747F92189606858
:10392000FFF704FB0120FFF740F910BD2DE9F0413E
:1039300080460E4617461D46002406F0FE06404609
:10394000FFF7BDFF31464046FFF74EFF4046FFF709
:1039500079FE00B1641E39464046FFF745FF4046F8
:10396000FFF770FE00B1641EE9B24046FFF73CFF6E
:103970004046FFF767FE00B1641E290A4046FFF784
:1039800033FF4046FFF75EFE00B1641E4046FFF77E
:10399000AEFF2046BDE8F0812DE9F04180460D469E
:1039A00016461F46002405F0FE054046FFF787FF38
:1039B00029464046FFF718FF4046FFF743FE00B197
:1039C000641E31464046FFF70FFF4046FFF73AFEC0
:1039D00000B1641E39464046FFF706FF4046FFF738
:1039E00031FE00B1641E4046FFF781FF2046BDE86E
:1039F000F08110B5012002F06DFB00BF612002F0E4
:103A00004BFB0028FAD045F2555000F029F804206D
:103A100000F01AF84FF47A6000F01CF800F00CF88F
:103A200000F002F810BD00004CF6CC4001490860DF
:103A300070470000003000404AF6AA2001490860A3
:103A400070470000003000400149486070470000A6
:103A5000003000400149886070470000003000409D
:103A600001490860704700000030004010B5094867
:103A7000007838B901200749087002210648FFF78D
:103A800053FA06E000200349087002210248FFF7BC
:103A90004DFA10BDA80000200018014008B5012112
:103AA000402002F07FFA0F20ADF8000010208DF8C2
:103AB000030002208DF8020069460A48FFF7A0F9CA
:103AC00001210848FFF732FA02210648FFF72EFAD3
:103AD00004210448FFF72AFA08210248FFF726FAD2
:103AE00008BD00000018014010B502210148FFF791
:103AF0001DFA10BD0018014010B502210148FFF762
:103B000013FA10BD0018014008B5002400BFFFF7EC
:103B1000C5FF24E0601CC4B21148C06828B9062C57
:103B200016DD0024FFF7A2FF12E00D48C06801284F
:103B300002D1FFF7E1FF0BE00948C068022805D178
:103B4000022C05DB0024FFF791FF01E0FFF7CCFF1B
:103B5000FFF772FF6A4600210A2000F04DFFD9E707
:103B60004009002010B54FF480410248FFF7DEF90C
:103B700010BD00000018014010B54FF4804102480C
:103B8000FFF7D2F910BD00000018014008B5002071
:103B900000F0A0F8012000F09DF802F079F983E030
:103BA000424A4349002000F0B7F800283AD13F4884
:103BB000007840490988884202D03C480078D0B952
:103BC00000203D4908803D490880394802883C4929
:103BD000364802F001F83949088008460088002874
:103BE00036DD3248007898B3354A0846018800200F
:103BF00000F0EAF82CE0304801880088401C2E4A8A
:103C0000108047F23050814222DBFFF7ABFF6A465B
:103C10000021642000F0F0FEFFF7AEFF00202649EF
:103C2000088015E0244801880088401C224A108042
:103C300047F2305081420BDBFFF794FF6A460021C8
:103C4000642000F0D9FEFFF797FF00201A49088092
:103C50001C4A1D49012000F05FF800BB194800789C
:103C600014490988884202D016480078B8B9002063
:103C700016490880144802881549124801F0ACFF23
:103C80001249088008460088002808DD0D480078A1
:103C900028B10F4A08460188012000F095F86A46CD
:103CA0000021012000F0A8FE7AE70000C4270020D0
:103CB00088000020400900208C00002084000020A3
:103CC0006C250020F02800208A00002086000020BB
:103CD0009826002010B5044614B1012C10D109E03B
:103CE00002F0BCFB08480949086009480968C1F8A6
:103CF000600206E002F06AFC06480449486000E001
:103D000000BF00BF10BD00000C2C0020AC00002044
:103D1000CD2A0008702E00202DE9F04104460E4601
:103D20009046284850F824000079AB2842D1254815
:103D300050F824004179234850F824004079401C71
:103D4000204A52F824205071062938DB56201D499C
:103D500051F82410087100201A4951F824104871B4
:103D6000184850F82400008830800020154951F888
:103D7000241008803188134A52F82420901DFEF741
:103D8000ABFC0746DFB900250EE00E4850F82400D2
:103D9000801D405D08F80500FF210A4850F8240006
:103DA000801D4155681C85B23088A842EDDC00209A
:103DB000BDE8F0810020034951F8241048714FF00C
:103DC000FF30F5E7AC0000202DE9F04705460E4630
:103DD000904615B1012D7CD14CE04FF4006158485C
:103DE000FFF7A4F8002406E000BF00BF00BF00BF3B
:103DF00000BF601C84B24CF250308442F4DB0024DB
:103E000006E000BF00BF00BF00BF00BF601C84B25F
:103E10004CF250308442F4DB002409E018F804101E
:103E2000484850F8250000F599700155601C84B28F
:103E3000B442F3DB434951F8251001F5997031463E
:103E4000FEF74AFC07463F4850F8250000F59970F8
:103E500087553A0A3B4850F8250000F59970711CC7
:103E60004254B21C90B2374A52F82520D2F8601260
:103E7000884762E0002406E000BF00BF00BF00BF2B
:103E800000BF601C84B24CF250308442F4DB00244A
:103E900006E000BF00BF00BF00BF00BF601C84B2CF
:103EA0004CF250308442F4DB002409E018F804108E
:103EB000244850F8250000F599700155601C84B223
:103EC000B442F3DB1F4951F8251001F599703146D2
:103ED00000E031E0FEF700FC07461A4850F82500E4
:103EE00000F5997087553A0A164850F8250000F5F4
:103EF0009970711C425400241AE0124850F82500B1
:103F000000F59970015D104802F064FD4FF0000962
:103F100008E000BF00BF00BF00BF00BF09F1010003
:103F20001FFA80F941F288308145F2DB601C84B2CF
:103F3000B01C8442E1DB00E000BF00BFBDE8F087B9
:103F400000080140AC0000200050004008B54FF4CC
:103F5000A06000F075F81D208DF8000000208DF89D
:103F6000010001208DF802008DF80300684600F082
:103F70002FF80B208DF8000000208DF801000220A2
:103F80008DF8020001208DF80300684600F020F84B
:103F900025208DF8000001208DF8010000208DF80B
:103FA000020001208DF80300684600F011F835206A
:103FB0008DF8000001208DF8010000208DF802002E
:103FC00001208DF80300684600F002F808BD0000EB
:103FD00070B5002100230F22C47804B3154C246867
:103FE00004F4E064C4F5E064210AC1F10403CA40AA
:103FF000447804FA03F184781440214309010E4CFB
:104000000678A155047804F01F050124AC4005781A
:104010006D11AD0005F1E025C5F8004109E0047817
:1040200004F01F050124AC40044D0678761145F8D4
:10403000264070BD0CED00E000E400E080E100E00F
:1040400002490143024A1160704700000000FA056E
:104050000CED00E07047000010B50348006810B197
:1040600001480068804710BD1000002070B504466C
:1040700000F088F800202E4908702E4908702E495B
:1040800008702E4908602E4908602E4908702E4994
:1040900008702E4908702E4908602E4908602E4984
:1040A00008602E48006858B12D48056845B12B4876
:1040B000066803E0761E002028602D1D002EF9D131
:1040C00000202849086028490860284908602849D4
:1040D000086028490860284908602849086028497C
:1040E000087000F0CBFE00F0F9FE204600F034FD31
:1040F000208800B170BD204600F084FF208800B108
:10410000F8E7204600F09CFF208800B1F2E7204647
:1041100000F048FD208800B1ECE7204601F072FA7B
:10412000208800B1E6E7FFF795FF00BFE2E7000057
:10413000240000202C000020400000205C00002013
:1041400060000020300000203100002032000020FC
:1041500034000020380000203C000020F4790008E2
:10416000F079000804000020080000200C00002066
:104170001000002014000020180000201C00002067
:104180004A000020064800680649096800EB8100E3
:10419000054908600846006820F00700086070477D
:1041A000F0790008F47900086400002010B50024BC
:1041B0002C480078012800D010BD00BFFEF70AF897
:1041C000044600BF2848007828B900BF2046FEF703
:1041D00005F800BFF0E724480078401E2249087027
:1041E00008460078002805DD00BF2046FDF7F6FFF1
:1041F00000BFE1E71D480078002805DD00BF20462C
:10420000FDF7ECFF00BFD7E700F024FE1849087067
:104210000846007800EB4000164951F82000164986
:1042200008600846006815490968884205D100BF42
:104230002046FDF7D3FF00BFBEE70F480068C06C03
:10424000401C0D490968C8640D480068401C0C49B1
:104250000860FEF749F800BF2046FDF7BFFF00BF2A
:1042600000BFA9E72C00002024000020400000200F
:104270003100002050070020600000205C0000207A
:104280004400002010B500241E480078002800DDFE
:1042900010BD1D480078002800DDF9E700BFFDF7DC
:1042A00099FF044600BF00F0D5FD18490870084684
:1042B000007800EB4000164951F8200015490860CD
:1042C0000846006814490968884205D100BF2046A5
:1042D000FDF784FF00BFDBE70E480068C06C401CA0
:1042E0000C490968C8640D480068401C0B49086007
:1042F000FDF7F5FF00BF2046FDF770FF00BF00BFD0
:10430000C6E700002400002040000020310000200B
:1043100050070020600000205C00002044000020C6
:1043200010B5044612480078E8B900F093FD114931
:10433000087008460078104908700E48007800EBB5
:1043400040000E4951F820000D49086008460068F9
:104350000C490860012006490870FDF7AFFF43F6DD
:104360009920208002E045F68A60208010BD000080
:104370002C000020310000203000002050070020D9
:10438000600000205C0000202DE9FF4F85B004464E
:104390009346DDE91985159F139E0020029056482B
:1043A0000078002805DD47F24A10288009B0BDE8F2
:1043B000F08F1CB947F2AD102880F7E7BBF1000F72
:1043C00003D147F24F102880F0E71EB946F62F6060
:1043D0002880EBE749480068874203D246F6306000
:1043E0002880E3E71498B84203D346F6316028806A
:1043F000DCE71298202803D346F273202880D5E703
:1044000012981F2806D13E48844203D046F27320FA
:104410002880CBE7204600F01FFE0020288008F00F
:10442000010088B108F0020070B1B246002004908B
:1044300007E00020CAF800000AF1040A0498401CB2
:1044400004900498B842F4D3149806EB80000390CB
:10445000CDE9007832465846039B089900F022FACD
:104460008246129884F82300C4F800A0189860606F
:10447000A4F824804FF0000908E0002104F138007E
:1044800040F8291009F1010000F0FF09B9F1000F0F
:10449000F3D0204600F03AF800BF00BFFDF79AFEC7
:1044A000029000BFFEF7CEF800BF94F8230000F0A2
:1044B000F1FC204600F05AFD12480088401C1149CA
:1044C000088011480078012809D000BFFEF7D4F811
:1044D00000BF0298FDF782FE00BF00BF66E700BF85
:1044E000FEF7CAF800BF0298FDF778FE00BF00BFD4
:1044F000FFF7C8FE00BF59E724000020207A00081B
:10450000E0060020480000202C00002010B50446E2
:104510000348006818B1204601490968884710BD62
:104520000400002070B504460D460026444800787B
:10453000002803DD47F24E10288070BD41488442B8
:1045400003D147F24C102880F7E79CB900BF00BFA9
:10455000FDF740FE064600BFFEF774F800BF3A487C
:10456000046800BFFEF788F800BF3046FDF736FE4E
:1045700000BF00BF00BF00BFFDF72CFE064600BF16
:10458000FEF760F800BF94F8220008282DD2DFE87B
:1045900000F004090E10080A0F11204600F004FD77
:1045A00030E02FE000BF204600F02AFF2AE000BFE5
:1045B00000BF00BF94F82000082810D2DFE800F008
:1045C00004070508090A0B0600BF00BF08E000BF8A
:1045D00000BF00BF00BF204600F090FB00E000BF1E
:1045E00000BF204600F00CFF0CE000BFFEF744F8CF
:1045F00000BF3046FDF7F2FD00BF00BF46F62D605C
:1046000028809AE700BF204600F022F80F48008873
:10461000401E0E490880204600F01EFDFF2084F851
:10462000220000BFFEF728F800BF3046FDF7D6FD98
:1046300000BF00BF00202880FFF724FE00BF7CE7FA
:1046400024000020E00600205C000020480000203C
:1046500010B504460348006818B1204601490968AE
:10466000884710BD0800002010B5044603480068C4
:1046700018B1204601490968884710BD0C00002088
:104680002DE9F04780460E4614461D464FF00009BE
:1046900071480078002805DD46F2AE102880002021
:1046A000BDE8F0871EB1B6F5004F02D100E000BFB3
:1046B00004E045F6256028800020F1E700BF0CB13A
:1046C0000020206000BF00BFFDF784FD814600BFD1
:1046D000FDF7B8FF00BF61480068C06A90B35F484B
:1046E0000068C06A401E5D490968C8625B4800688E
:1046F000C76A1CB159480068806A2060FDF7E6FF70
:1047000056490968896A401A544909680866534835
:104710000068406E51490968096E884205D24F48C9
:104720000068006E4D490968486600BFFDF7A4FFA8
:1047300000BF4846FDF752FD00BF00BF00202880A3
:104740003846ADE7FFE706F4004068B100BFFDF76B
:1047500093FF00BF4846FDF741FD00BF00BF46F292
:10476000B010288000209BE73D48007800280DDD30
:1047700000BFFDF781FF00BF4846FDF72FFD00BFDA
:1047800000BF46F663502880002089E74346072291
:104790000021084600F03EFA00BFFDF76DFF00BFA4
:1047A0004846FDF71BFD00BF00BFFFF76BFD00BFD4
:1047B00000BFFDF70FFD814600BFFDF743FF00BFBF
:1047C0002648006890F8210020B1012821D0032854
:1047D0002FD127E0D4B121480068806A2060FDF71E
:1047E00075FF1E490968896A401A1C4909680866EC
:1047F0001A480068406E19490968096E884205D256
:1048000016480068006E154909684866002028802F
:1048100013E01CB111480068806A206046F2A910BC
:1048200028800AE00CB10020206047F2D9202880BF
:1048300003E046F62E60288000BF00BF07480068EE
:10484000C76A00BFFDF718FF00BF4846FDF7C6FC6A
:1048500000BF00BF384623E7240000205C00002092
:10486000400000202DE9F04106460D4614461DB1DA
:10487000B5F5004F02D100E000BF05E045F6256028
:1048800020800020BDE8F08100BFFDF71FFF8046BB
:10489000234642462946304600F022FC0746384669
:1048A000F0E70000F0B50446DDE9055602EB8500AF
:1048B00020F007004FF0807C071F3846C7F800C083
:1048C000071F38463C60DFF89CC0071F3846C7F812
:1048D00000C04FF0123C071F3846C7F800C04FF029
:1048E000033C071F3846C7F800C04FF0023C071FC3
:1048F0003846C7F800C0071F38463B60071F3846D8
:1049000039604FF0113C071F3846C7F800C04FF020
:10491000103C071F3846C7F800C04FF0093C071F7E
:104920003846C7F800C04FF0083C071F3846C7F8A4
:1049300000C04FF0073C071F3846C7F800C04FF0D3
:10494000063C071F3846C7F800C04FF0053C071F5C
:104950003846C7F800C04FF0043C071F3846C7F878
:1049600000C0F0BDC950000870B51F48006810B104
:104970001D4800688047FDF7A9FE04461B480068F3
:104980001B490968884210D018480068406D201AF9
:1049900016490968086515480068806D134909685B
:1049A000096D084411490968886511480068446523
:1049B000FDF732FE05460D480068806EA84202D21F
:1049C0000A480068856609480068C06E0949096898
:1049D000884204D20748006804490968C866002074
:1049E0000449086070BD0000180000205C00002031
:1049F000600000203C0000202DE9F04105460E46F5
:104A0000144600272A480078002804DD47F2752064
:104A10002080BDE8F08127480078002803DD46F6B5
:104A200063502080F5E736B1022E05D0042E0AD05F
:104A3000082E09D101E000BF00BF1DB947F27E205A
:104A40002080E6E704E003E045F625602080E0E70B
:104A500000BF00BF00BFFDF7BDFB074600BFFDF76D
:104A6000F1FD00BF2346324629461348006800F096
:104A700069FC208848B100BFFDF7FEFD00BF384645
:104A8000FDF7ACFB00BF00BFC3E70B48006800F0B8
:104A90008BFA00BFFDF7F0FD00BF3846FDF79EFB27
:104AA00000BF00BFFFF7EEFB0020208000BFB0E793
:104AB00024000020400000205C00002008B500F029
:104AC00009F86A4600210248FFF7CCFE08BD000045
:104AD000D008002010B50348006810B101480068F4
:104AE000804710BD1C00002010B5002400BF00BF8F
:104AF000FDF770FB044600BFFDF7A4FD00BF0948A9
:104B00000078401C0749087000BFFDF7B5FD00BFE5
:104B10002046FDF763FB00BF00BFFFF7CFFFFFF7A5
:104B200045FB10BD2400002001464A1E4FF0E02343
:104B30005A61084A106820F07F4000BF10601A4692
:104B4000126942F005021A611A46126942F0020225
:104B50001A61704720ED00E00021024A11800180B7
:104B6000704700002E000020002418E000BF00BFA6
:104B7000FDF730FB044600BFFDF764FD00BF0848A9
:104B80000068401C0649086000BFFDF775FD00BFC6
:104B90002046FDF723FB00BF00BFFFF75DFAE5E706
:104BA0002000002010B58AB0044600200E4908609D
:104BB0000B2000210591CDE90704069108460B4919
:104BC00009680B4A12680B4B1B68CDE90132CDE92D
:104BD00003101F200023084A08A100900C48FFF78B
:104BE000D3FB0AB010BD000020000020CC790008E3
:104BF000C8790008C4790008694B000875432F4F35
:104C0000532D4949492049646C65205461736B00F8
:104C1000E00600202DE9F04105460C4616461F46E9
:104C20001248006880F8206000201049096881F867
:104C3000210039460D48006800F0ECF96CB104F130
:104C40000408EC60012229460848006800F010F8CA
:104C50002946404600F01FF806E000200349096895
:104C6000C88402490968C861BDE8F0815C00002081
:104C700010B5C284C16100230AE000244C600C60BE
:104C80000C614C610C83CC61886020315C1CA3B248
:104C90009342F2DB10BDF0B58E6896F82350078979
:104CA0003FB90127078100274F600F600160416015
:104CB00023E007897F1C0781026806E0946894F866
:104CC0002370AF4200DD02E05268002AF6D100BF37
:104CD00032B900274F6043680B60596041600CE0B7
:104CE00017682FB9116000270F604A60016004E067
:104CF00013680B604A6059601160F0BD2DE9F04106
:104D00000446E569E68C0AE0D5F80C8008F1040752
:104D10002946384600F00AF82035701E86B2002E6B
:104D2000F2DC0020E084E061BDE8F08110B5048988
:104D3000012C03D100240460446011E00C6824B904
:104D40004A680024146002600AE04C6824B90B68C9
:104D500000245C60436003E00B684A685A6013609B
:104D60000489641E048100244C600C6010BD2DE990
:104D7000F84306460C4617469846089D94F82200CC
:104D800008284DD2DFE800F00405080906072B2C9F
:104D900000BF00BF00BF44E000BF94F8200003281C
:104DA00007D143463A4621463046009500F03CF88C
:104DB00000E0A56216B12046FFF7A0FF94F822009C
:104DC000032802D1204600F01BFB204600F098F893
:104DD00000202034A070607004F8200921E000BF9A
:104DE00094F82000032807D143463A46214630462E
:104DF000009500F019F800E0A56216B12046FFF713
:104E00007DFF94F82200072802D1204600F0F8FA2E
:104E100004202034A0700020607004F8200900E015
:104E200000BF00BFBDE8F883F0B50446059EC86921
:104E3000CD8C0AE0C768A74204D1046142610383B4
:104E4000C66104E020306F1EBDB2002DF2DC00BF51
:104E5000F0BD000070B50025074C03E005F120000F
:104E6000C5B2241D20680028F8D02068FDF7BDF9E0
:104E70002844C5B2284670BD00000020002004E090
:104E80000021034A42F82010401C0028F8D0704747
:104E90000000002030B5420900F01F030121C3F1DA
:104EA0001F04A140034C54F822400C43014D45F827
:104EB000224030BD0000002030B5420900F01F0341
:104EC0000121C3F11F04A140034C54F822408C433C
:104ED000014D45F8224030BD0000002000210AE0CD
:104EE00001EB4102054B03EB8200002202810260CC
:104EF00042604A1CD1B22029F2D3704750070020EB
:104F000010B5044694F82300FFF7C4FF94F823007B
:104F100005490978884203D1204600F027F802E0CD
:104F2000204600F003F810BD3000002010B590F8C6
:104F3000233003EB43030C4C04EB83010B893BB997
:104F400001230B8100238360C3600860486009E08F
:104F50000B895B1C0B810B6883600023C3600A68AC
:104F6000D060086010BD00005007002010B590F818
:104F7000233003EB43030B4C04EB83010B893BB958
:104F800001230B8100238360C3600860486008E050
:104F90000B895B1C0B81002383604A68C2609060B0
:104FA000486010BD500700202DE9F041054695F8F6
:104FB000230000EB4000124901EB8004EF68AE686B
:104FC00087B946B9002020812060606095F82300F1
:104FD000FFF772FF0EE02089401E20810020F06064
:104FE000266007E02089401E2081BE600EB9676000
:104FF00000E0F7600020E860A860BDE8F0810000F4
:10500000500700200021024A1180018070470000F3
:105010004200002070B504460D4645B12A4621469F
:10502000064800F055F9032084F8220002E002202F
:1050300084F822002046FFF7B7FF70BD580000201B
:105040000021034A1180034A11600180704700006B
:10505000480000204400002070B504460021216073
:105060006160A160E16021616161A161E161E18450
:10507000A162E163A4F844102164002506E0002247
:1050800004F1380141F82520691CCDB2002DF6D07D
:1050900000212034E1602164616484F82610A1803D
:1050A0002161616121856185E1622163FDF70EFB6C
:1050B00060630021A163A164E16421706170A1704B
:1050C0002021E170203C70BD08B504480068FFF75E
:1050D000CBFA69460020FFF725FA08BD5C000020E6
:1050E0002DE9F8430446884617461D464FF000094F
:1050F00000BF00BFFDF76EF8814600BFFDF7A2FAC2
:1051000000BF0CB971480468A7620020288094F899
:105110002200082878D2DFE800F004055859060775
:105120005A5B00BF00BF00BF0420012804D0022842
:1051300015D0042839D126E0E06AFF280ED100BF3F
:10514000FDF79AFA00BF4846FDF748F800BF00BFD8
:1051500046F6C55028800020BDE8F88326E04FF6CB
:10516000FF71E06A88420DD100BFFDF785FA00BFEC
:105170004846FDF733F800BF00BF46F6C55028800B
:105180000020E9E712E0E06A401C68B900BFFDF7C3
:1051900073FA00BF4846FDF721F800BF00BF46F68E
:1051A000C55028800020D7E700E000BF00BFE06ABC
:1051B000401CE062E66A00BFFDF75EFA00BF4846A9
:1051C000FDF70CF800BF00BF7DE000BF00BF00BFCF
:1051D00094F82000072818D100231A4621461846C3
:1051E0000097FFF7C4FDE66A00BFFDF745FA00BF70
:1051F0004846FCF7F3FF00BF00BF08F4004000285A
:1052000052D1FFF73FF84FE04FE00420012804D0CF
:10521000022814D0042838D125E0E06AFF280DD1F7
:1052200000BFFDF729FA00BF4846FCF7D7FF00BFD3
:1052300000BF46F6C550288000208DE726E04FF6D7
:10524000FF71E06A88420DD100BFFDF715FA00BF7B
:105250004846FCF7C3FF00BF00BF46F6C550288094
:10526000002079E712E0E06A401C68B900BFFDF752
:1052700003FA00BF4846FCF7B1FF00BF00BF46F687
:10528000C5502880002067E700E000BF00BFE06A4B
:10529000401CE062E66A00BFFDF7EEF900BF484639
:1052A000FCF79CFF00BF00BF0DE000BFFDF7E4F975
:1052B00000BF4846FCF792FF00BF00BF46F62D60D6
:1052C0002880002600BF00BF304645E75C00002074
:1052D00070B5034615461E6836B90D6300260E618B
:1052E0004E618B6119602AE01C6818682A461EE02E
:1052F000066B964217D3466956B90A6300264E617B
:1053000008618B61066BB61A06634161196009E09A
:1053100044690A634C6108618B61066BB61A0663C7
:105320004161216170BD066B921B04460069002833
:10533000DED10A634C6100260E618B61216100BFE2
:10534000F0E700002DE9F04104460D4690461F4667
:10535000B8F1040F0ED1284800682E1A16F5803FC8
:1053600001D8002E3CD10020206347F27E203880F7
:10537000BDE8F081B8F1080F29D11F49606B0968B9
:10538000081AA84205D92E461B48006828446063C5
:1053900026E01949606B0968081A2E1A16F5803F35
:1053A00000D886B91449606B0968081AB0FBF5F09B
:1053B00005FB0050616B084460630020206347F2E6
:1053C0007E203880D4E7606B2844606308E00DB12C
:1053D0002E4605E00020206347F27E203880C7E794
:1053E000012084F82200324621460448FFF770FF6E
:1053F0000020388000BFBBE74C0000205400002094
:1054000030B58369426901698AB921B900241C60F9
:105410000463846117E000244C610C6B056B2C4421
:105420000C63196000240461046384610BE0116162
:1054300021B14A610C6B056B2C440C630024446160
:1054400004610463846130BD2DE9F0414FF0000830
:1054500000BF00BFFCF7BEFE804600BFFDF7F2F8BC
:1054600000BFFDF733F90646194D2C6804B3206BD5
:10547000401E206318E094F82200012806D1002085
:1054800084F822002046FFF73BFD06E094F8220056
:10549000052802D1042084F82200206928602C68A5
:1054A00004B904E000206061206B0028E3D000BF55
:1054B000FDF70CF9871B00BFFDF7DEF800BF404683
:1054C000FCF78CFE00BF00BF3846BDE8F08100004D
:1054D000540000202DE9F0414FF0000800BF00BF4C
:1054E000FCF778FE804600BFFDF7ACF800BFFDF783
:1054F000EDF80646244D2C68002C36D0206B401E5B
:1055000020632EE094F82200032811D1FDF7DEF885
:10551000A0622046FFF7F2FB2046FFF7F1FC0020D7
:105520002034A07003206070002004F8200911E0EE
:1055300094F8220007280DD1FDF7C8F8A062204694
:10554000FFF7DCFB04202034A070032060700020F3
:1055500004F82009206928602C6804B904E00020C0
:105560006061206B0028CDD000BFFDF7AFF8871B2E
:1055700000BFFDF781F800BF4046FCF72FFE00BFDB
:1055800000BF3846BDE8F081580000201CB5002758
:1055900030E001AB6A4600210846FFF771F8BDF81C
:1055A000040038BB14480078012823D100BF00BF95
:1055B000FCF710FE074600BFFDF744F800BF0F4898
:1055C0000068401C0D49086000BFFDF755F800BF9A
:1055D0003846FCF703FE00BF00BFFFF735FF064665
:1055E000FFF778FF0546741905480068A04201D20C
:1055F00003480460CDE700002C0000204C00002090
:105600005000002010B58AB0044600201D490860F3
:105610001D4908601D4908601D48006820B947F20F
:10562000122020800AB010BD1A4800681A49096883
:10563000884203D247F213202080F3E7174800780E
:105640001F2803D347F211202080EBE70B20002115
:1056500005910A46CDE9070406910E4800681049F5
:1056600009680B4B1B68CDE90131CDE903020B48FA
:10567000007800230B4A0CA100901048FEF784FE2E
:1056800000BFCFE74C00002054000020580000204D
:105690002C7A0008347A0008207A0008287A00085A
:1056A000307A00088D55000875432F4F532D494916
:1056B00049205469636B205461736B00D00800204B
:1056C00010B54FF480710248FDF72EFC10BD0000AC
:1056D0000008014008B50121042000F063FC4FF4EC
:1056E0008070ADF8000010208DF8030003208DF8C5
:1056F000020069460448FDF783FB4FF480710248BD
:10570000FDF712FC08BD00000008014010B5FDF7D0
:1057100055F9FDF75DFB10BD08B500BF0024012160
:105720004C4800F0A9FD08B1FFF7F0FF91E04948AF
:1057300090F8BC0100F0010058B14648D0F8BC0117
:1057400020F001004349C1F8BC010121414801F0AA
:1057500045F94048C068012805D1FDF735FA022116
:105760003C48C16070E03B48C06802283AD13948E3
:10577000406B401C374948630846406B40F6B831DF
:10578000884203D300213348C1605DE0314890F87E
:10579000BC01C0F38000002856D000BF00BFFCF75A
:1057A00019FD044600BFFCF74DFF00BF2948D0F8A3
:1057B000BC0120F004002749C1F8BC010846018F54
:1057C0003A3001F059F92348008F401C81B221483A
:1057D000018700BFFCF750FF00BF2046FCF7FEFC2E
:1057E00000BF31E01B48C06803282AD100211948B6
:1057F000C1600146098F0D0205EBD571491001F119
:105800000A0001F019F900BF00BF00BF00BF00BFD0
:10581000BFF34F8F00BF00BF00BF0F48006800F408
:10582000E0600E490843001D0B49086000BF00BF3F
:1058300000BFBFF34F8F00BF00BF00BF00BF00BF5E
:10584000FDE700210348C1606A4600210120FFF7FF
:10585000D3F86CE7400900200CED00E00000FA05E9
:1058600010B5FCF759FEFFF735FF0748D0F8B8012F
:1058700020F0005000F100500349C1F8B80103497D
:105880000148C0F8981110BD400900200000C8412F
:1058900008B500BFFFF7E4FF06E000F007F86A462E
:1058A00000210A20FFF7A8F8F7E700002DE9F047EC
:1058B000FDF71AFCBB48007801282BD1BA480078C4
:1058C00000F0010020B9B8480078C0F3C00008B368
:1058D000B64890F8A00120F00100401CB34981F8BF
:1058E000A001084690F8A00120F00801AF4880F818
:1058F000A01190F8A00120F00401AC4880F8A0119C
:1059000090F8A00120F00201A84880F8A011FCF74F
:10591000BDFF3DE0A54890F8A00120F00101A3489B
:1059200080F8A011A04800788108A04890F8A00154
:1059300061F382009D4981F8A0019B4800784108ED
:105940009A4890F8A00161F34100984981F8A001BC
:105950009548007800F0010020B993480078C0F322
:10596000C00058B1914890F8A00120F0080008301C
:105970008E4981F8A001FCF789FF09E08B4890F877
:10598000A00120F00801894880F8A011FCF786FFEB
:10599000854800784109854890F8A00161F34510D9
:1059A000824981F8A0018048007881097F4890F8F9
:1059B000A00161F386107D4981F8A0017A48007842
:1059C00001097A4890F8A00161F30410774981F841
:1059D000A001084690F8A001C0F3401078B9D1F8B2
:1059E00090014FF07C5101F03BFE08D86F4890F8D1
:1059F000A00120F0200020306C4981F8A0016B4804
:105A000090F8A001C0F3401058B9684890F8A00180
:105A1000C0F3801028B9654890F8A001C0F30010C9
:105A200010B1FCF74FFD01E0FCF744FD5F49D1F8F0
:105A30009C0101F051FC21F00041044600225C4B26
:105A400001F02AFB40D200205A4908705A490870D8
:105A50005649D1F89C0101F03FFC21F00041044679
:105A60004FF08042554B01F017FB0FD2544801888C
:105A70000088401C524A108064290ADB002011462D
:105A800008804FF416704F49088002E000204C490E
:105A900008804C4801880088401C4A4A1080B1F5B3
:105AA000167F7CDB0020FCF737FE0020454908808C
:105AB0003E48D0F8B801C0F3407010B1FFF700FEC7
:105AC0006DE0FCF771FF6AE000203E49088037492D
:105AD000D1F89C0101F000FC21F0004104464FF098
:105AE0002042394B01F09EF90FD23049D1F88C0198
:105AF00001F0F2FB21F0004104464FF08042334BAD
:105B000001F090F901D2FFF7DBFD2A480178007817
:105B1000401C284A1070322941DB1046007850287A
:105B20003DDB5020114608702049D1F88C0101F06E
:105B3000D3FB21F0004106464FF02042244B01F0F8
:105B4000BDF804460D461949D1F89C0101F0C4FB8B
:105B500021F00041804622462B4601F09DFA05D2F5
:105B6000002015490870FCF7D7FD18E012480078AE
:105B7000401C114908700846007814280FDB0020EB
:105B800008700A49D1F88401124901F069FE03D86E
:105B90000120FCF7C1FD02E00020FCF7BDFDBDE8DF
:105BA000F0870000950000209400002040090020AC
:105BB00000001840A2000020A100002033331B4049
:105BC000A6000020A40000209999B93F3333D33FA9
:105BD0009999C93F0000F0412DE9F84F04460F465E
:105BE00093466078642871D006DC032809D0062823
:105BF00063D010286BD163E0652869D06628F9D19D
:105C000017E1A6784FF6FF7000EA0626E078064313
:105C100094F804A04FF6FF7000EA0A2A607940EA7F
:105C20000A0A06EB0A00401E1FFA80F949F64040B6
:105C3000814509DAB9F1710F06DB4FF07109A9EB63
:105C40000600401C1FFA80FA8F4800783870032045
:105C500078704FEA4A60000EB870712E2ADCB9F1F4
:105C6000710F27DC35461FE0002000908748006850
:105C700050F82500B0B18548006850F825206946E5
:105C800000209047BDF80000010AA81B032202EB88
:105C900040003954BDF80000C1B2A81B042202EB39
:105CA00040003954681C85B24D45DDDDB87800F1FF
:105CB000030801E04FF00008E2E04FF00008DFE0E9
:105CC000BBF1080F05DC4FF00008D9E058E0D4E044
:105CD0007AE0A6784FF6FF7000EA0626E0780643E1
:105CE00094F804A04FF6FF7000EA0A2A607940EAAF
:105CF0000A0A06EB0A00401E1FFA80F96248007883
:105D0000387010207870A078B870E078F87020793A
:105D1000387160797871712E2FDCB9F1710F2CDC3C
:105D2000354625E0002000905848006850F82500CE
:105D3000E0B1A81B072101EB4000205C0090BDF8FA
:105D400000004FF6FF7101EA00200090A81B082117
:105D500001EB4000205CBDF80010084300904B4868
:105D6000006850F82520694601209047681C85B2DC
:105D70004D45D7DD4FF0060801E04FF000087FE009
:105D8000A0780090BDF800004FF6FF7101EA0020F6
:105D90000090E078BDF80010084300903A48B0F851
:105DA0006A01BDF8001088420BD13748C06840B97D
:105DB00001213548C1600020334948630021324841
:105DC00001874FF000085BE0BBF5837F2ED12E48A2
:105DD000C06802282AD100202B494863A07800908F
:105DE000BDF800004FF6FF7101EA00200090E07856
:105DF000BDF80010084300902348008FBDF8001044
:105E0000884213D1002506E0281D215C1E483A3047
:105E10004155681C85B2FF2DF6DD1B48D0F8BC014A
:105E200020F00400001D1849C1F8BC014FF0000823
:105E300026E0BBF1060F1DD11348C068022819D116
:105E4000002011494863A0780090BDF800004FF68B
:105E5000FF7101EA00200090E078BDF800100843CF
:105E600000900948008FBDF80010884202D103213C
:105E70000548C1604FF0000802E04FF0000800BF85
:105E800000BF4046BDE8F88F400900209000002088
:105E900010B5FCF775FAFDF74BF80149086010BD25
:105EA000900000202DE9F04104460D46002654B92B
:105EB0000649D1F88C01064901F006FC074601F0BD
:105EC00067FB06B22E80BDE8F0810000400900208B
:105ED0000000C84270B505460C46EDB90F49D1F82F
:105EE00094010F4901F0F0FB064601F06DFBC0B2D2
:105EF000208020884FF6FF7101EA00202080208852
:105F000000F47F4020800549D1F8980101F040FB62
:105F1000C0B221880843208070BD000040090020E5
:105F20000000C84238B900220A800A88024B93F860
:105F3000A0311A430A8070474009002070B504461A
:105F40000D464CB90549D1F89001054901F0BCFB5B
:105F5000064601F039FB288070BD00004009002092
:105F60000000204129B1064A52690243044B5A619C
:105F700004E0034A52698243014B5A6170470000B2
:105F80000010024029B1064AD2690243044BDA618B
:105F900004E0034AD2698243014BDA617047000092
:105FA0000010024029B1064A92690243044B9A61EB
:105FB00004E0034A92698243014B9A6170470000F2
:105FC0000010024030B500210022002400232D4D96
:105FD0006D6805F00C0121B1042905D0082923D1F1
:105FE00005E0294D056022E0274D05601FE0254DA5
:105FF0006D6805F47012234D6D6805F48034022538
:1060000005EB92421CB9214D554305600BE01D4D37
:106010006D6805F400351DB11C4D5543056002E067
:10602000194D5543056002E0174D056000BF00BFE4
:10603000144D6D6805F0F0010909154D6B5C05689C
:10604000DD4045600F4D6D6805F4E061090A104DB3
:106050006B5C4568DD4085600A4D6D6805F46051F4
:10606000C90A0B4D6B5C4568DD40C560054D6D6828
:1060700005F44041890B074D6B5CC568B5FBF3F532
:10608000056130BD0010024000127A0000093D0099
:10609000CC000020DC00002010B5014600220023C7
:1060A00000204A11012A02D1094C236806E0022A85
:1060B00002D1074C236A01E0054C636A01F01F021C
:1060C000012494401C400CB1012000E0002010BDD0
:1060D00000100240014908607047000080044242FD
:1060E00018B9024AB2F868210A80704740090020B6
:1060F00018B9024AB2F86A210A80704740090020A4
:1061000070B504460D464CB90549D1F89C010549C6
:1061100001F0DAFA064601F03BFA288070BD000073
:10612000400900200000204170B504460D464CB9DE
:106130000549D1F88401054901F0C6FA064601F087
:1061400043FA288070BD0000400900200000204173
:1061500020B900220A80024A928B0A807047000010
:106160004009002018B90C4A12880A8012E0012860
:1061700010D10A88012A0DDB0A88FF2A0ADA0A7878
:10618000054B1A801A46D2F8BC2122F00102521C9B
:10619000C3F8BC21704700004009002010B900225C
:1061A0000A8000E000BF704718B9054A52890A808A
:1061B00005E0012803D10B88014AA2F8DA317047C3
:1061C0004009002018B9214A12890A803DE00128BF
:1061D0003BD10B881D4AA2F8D83192F8D821FF2A6A
:1061E0001DD100BF00BF00BF00BF00BFBFF34F8F76
:1061F00000BF00BF00BF164A126802F4E062154BF0
:106200001A43121D124B1A6000BF00BF00BFBFF33C
:106210004F8F00BF00BF00BF00BF00BFFDE70B4AAC
:1062200092F8D821282A0CD1084A127A202A0CD1B7
:10623000064AD2F8D8319360D2F87421034B5A61E0
:1062400003E0024AD2F8D831936070474009002039
:106250000CED00E00000FA0518B9024AB2F8BA21C4
:106260000A8070474009002018B9024AB2F8B821E4
:106270000A8070474009002010B502460B460B48C3
:1062800000884AF6AA24A0420CD1002106E0074863
:1062900000EB4100408822F81100491C9942F6DBCE
:1062A000002010BD4FF0FF30FBE7000000A0070802
:1062B00008B500BF00F0BAF807E00448FDF75AF946
:1062C0006A4600215A20FEF797FBF6E75C0900209A
:1062D00010B500F001F810BD0CB500200190009041
:1062E0003348006840F480303149086000BF3048CE
:1062F000006800F4003000900198401C0190009864
:1063000018B90198B0F5A06FF1D12948006800F4E0
:10631000003010B10120009001E0002000900098B2
:10632000012843D12348006840F01000214908604B
:106330000846006820F0030008600846006840F046
:10634000020008601A4840681949486008464068D9
:1063500048600846406840F48060486008464068ED
:1063600020F47C1048600846406840F4E81048601B
:106370000846006840F08070086000BF0C48006864
:1063800000F000700028F9D00948406820F00300B0
:10639000074948600846406840F00200486000BF76
:1063A0000348406800F00C000828F9D10CBD00003B
:1063B000001002400020024010B51248006840F072
:1063C000010010490860084640680F4908400D491F
:1063D0004860084600680D4908400A4908600846B8
:1063E000006820F4802008600846406820F4FE0021
:1063F00048604FF41F008860FFF76AFF04480549B2
:10640000086010BD001002400000FFF8FFFFF6FE1C
:106410000020000808ED00E010B57A230122922147
:106420000148FDF7B9FA10BD4C31002010B50948FC
:1064300009490861402088820820C86005484860F2
:1064400080200881082008600846FDF756F9FFF70C
:10645000E3FF10BD000C01404C31002000B591B0AD
:1064600001214420FFF79EFD01218803FFF79AFDDB
:1064700001210846FFF776FD4F4801904F480290F2
:10648000102003908020049000200590802006902A
:1064900000200790089009904FF480500A90002047
:1064A0000B9001A94648FCF762FB002202214448F8
:1064B000FCF754FB00214248FCF72EFB4FF4007020
:1064C000ADF8400018208DF8430003208DF84200FD
:1064D00010A93C48FCF794FC4FF48060ADF84000F4
:1064E00048208DF8430003208DF8420010A935485C
:1064F000FCF786FC4FF40060ADF8400010208DF8EA
:10650000430002208DF8420010A92E48FCF778FCC9
:106510004FF400612B48FCF707FD4FF48040ADF8C5
:10652000400010208DF8430002208DF8420010A991
:106530002548FCF765FC4FF480412348FCF7F4FC48
:106540004FF416500C900020ADF83400ADF8360032
:10655000ADF83800ADF83C000C20ADF83A000CA9BD
:106560001548001F00F0CAF940F225511248001FDB
:1065700000F050F9012240F225510F48001F00F0B1
:1065800097F940F226610C48001F00F043F9012200
:1065900040F226610848001F00F08AF9012280219C
:1065A0000548001F00F051F901210348001F00F0C9
:1065B00040F911B000BD0000043801403E2D00201C
:1065C00044000240000801400018014000B585B0B9
:1065D00001214420FFF7E6FC01213020FFF7E2FC17
:1065E00001210805FFF7CEFC4FF48050ADF81000F4
:1065F00018208DF8130003208DF8120004A91F48FD
:10660000FCF7FEFB0420ADF8100048208DF81300C5
:1066100003208DF8120004A91948FCF7F1FB4FF490
:10662000165000900020ADF80400ADF80600ADF85B
:106630000800ADF80C000C20ADF80A0069461148BE
:1066400000F05CF940F225510E4800F0E3F8012219
:1066500040F225510B4800F02BF940F22661094821
:1066600000F0D8F8012240F22661064800F020F937
:106670000121044800F0DDF805B000BD0010014024
:10668000001401400050004010B540F225512A4846
:1066900000F0E4F8B8B340F22551274800F0BAF80A
:1066A0000020264949684871AB202449496808718F
:1066B000224840680088B0F5967F11DA1E4880882D
:1066C000C1B21E48406802881C4840680088401CCF
:1066D0001A4B5B68188019484068801D815429E076
:1066E00056201649496808710020144949680880F5
:1066F00011488088C1B211484068801D0F4A526815
:106700001288815416E0FFE740F226610A4800F043
:10671000A5F878B140F22661074800F07BF8002028
:106720000649496808800549496848715620034967
:106730004968087110BD000000500040AC00002006
:1067400010B540F225512F4800F088F8C8B340F248
:1067500025512C4800F05EF800202B49096848714B
:10676000AB20294909680871274800680088B0F5FE
:10677000967F12DA2348001D0088C1B222480068C3
:106780000288214800680088401C1F4B1B68188045
:106790001D480068801D815433E056201A4909685D
:1067A000087100201849096808801648001D0088F3
:1067B000C1B215480068801D134A126812888154BE
:1067C0001FE0FFE740F226610E4800F047F8C0B135
:1067D00040F226610B4800F01DF800200A490968C4
:1067E00008800949096848715620074909680871F5
:1067F00000210648FCF790F94FF400610448FCF7CB
:1068000093FB10BD00380140AC0000204400024062
:106810000008014010B50022002340F66A14A1428E
:1068200000D100BF0A1201249440A3B2DC430480CB
:1068300010BD21B1828942F40052828104E0828934
:106840004DF6FF731A40828170471AB1838A0B4359
:10685000838202E0838A8B438382704770B502464D
:10686000002400230025002040F66A16B14200D122
:1068700000BFC1F3421501F01F03012606FA03F31E
:10688000012D02D19689334006E0022D02D1168AED
:10689000334001E0968A33400C12012606FA04F4D4
:1068A0001688344013B10CB1012000E0002070BD07
:1068B000F0B50346002400260025002040F66A17A4
:1068C000B94200D100BF1846C1F3421401F01F06BF
:1068D000012707FA06F5012C01D10C3004E0022C47
:1068E00001D1103000E014301AB107682F4307605F
:1068F00002E00768AF430760F0BD00002DE9F047F4
:1069000086B005460E460024A24600BFA1460027D9
:10691000B08900B100BF2F462C8A4CF6FF700440AE
:10692000F08804432C82AC894EF6F3100440B08802
:1069300031890843718908430443AC81AC8A4FF61E
:10694000FF400440B0890443AC8201A8FFF73AFB42
:106950001F48874202D1DDF810A001E0DDF80CA04D
:10696000A88900F4004040B10AEBCA0000EB0A100D
:1069700031684900B0FBF1F807E00AEBCA0000EB10
:106980000A1031688900B0FBF1F86420B8FBF0F020
:1069900004012009642101FB1089A88900F400404A
:1069A00040B1322000EBC900B0FBF1F000F007006D
:1069B000044308E0322000EB09106421B0FBF1F041
:1069C00000F00F0004432C8106B0BDE8F087000002
:1069D00000380140C1F308028280704770B5054657
:1069E0000E46FCF7D5F93520FCF712F91148FCF7F3
:1069F00015F900BFFCF752F90128FBD04AF6AA218D
:106A00000C48FCF76FF900240EE035F81410094A21
:106A1000921C022303FB0420FCF764F900BFFCF77F
:106A20003DF90128FBD0641CB442EEDBFCF750F9C1
:106A300070BD000000A0070810B50446FCF7A8F9D7
:106A40003520FCF7E5F84AF6AA210A48FCF74AF98E
:106A500000BFFCF723F90128FBD021460548801C24
:106A6000FCF760F900BFFCF719F90128FBD0FCF72F
:106A70002FF910BD00F0070870B505460E46FCF76B
:106A800087F93520FCF7C4F8002410E00A4AD31433
:106A900003FB0622022303FB042035F81410FCF745
:106AA00021F900BFFCF7FAF80128FBD0641C802C08
:106AB000ECD3FCF70DF970BD00A0020800B58BB057
:106AC0000AA8FDF7D3FAFDF741FAFEF71FFEFCF71F
:106AD00090FF0AA8032100220592CDE90621089023
:106AE00010464FF4807119223A4BCDE90132CDE9BD
:106AF00003100F200023384A38A100903B48FDF7CF
:106B000043FC0AA8032100220592CDE90621089042
:106B100010464FF480711922354BCDE90132CDE991
:106B2000031006200023334A33A100903548FDF7B7
:106B30002BFC0AA8032100220592CDE9062108902A
:106B400010464FF4807119222F4BCDE90132CDE967
:106B50000310082000232D4A2DA100903048FDF796
:106B600013FC0AA8032100220592CDE90621089012
:106B700010464FF4007133222A4BCDE90132CDE9A2
:106B8000031009200023284A28A100902B48FDF774
:106B9000FBFB0AA8032100220592CDE906210890FB
:106BA00010464FF480711922254BCDE90132CDE911
:106BB000031011200023234A23A100902448FDF74D
:106BC000E3FB2448FDF7B0FF0AA8FDF7A9FB00206E
:106BD0000BB000BD241B00201957000850617261E2
:106BE0006D65746572536176650000007424002041
:106BF000240B0020B162000853616D706C696E67F0
:106C00000000000024230020240F002091580008D9
:106C1000506F7765724D616E6167656D656E74006A
:106C200094230020241300208D3B00084D6F6462E4
:106C300075734F7665724C6F52610000042400201A
:106C4000241F0020093B00084C4544495744470095
:106C5000E424002080FC0A0021F00042A2F16052EE
:106C6000B2F5801F01F0004328BFD2F17F6C0BD931
:106C70005FEA001C43EAC20242EB507018BF704743
:106C800028BF20F001007047B2F5801FBCBF184636
:106C900070474FEA410C1CF5001F02D2084600F075
:106CA000DABD70B500F0A4F900000089FFF7F6BF67
:106CB0004FF00040A0F580007047000010B591EA49
:106CC000030F48BF83F0004300F12482841A71EB64
:106CD000030C05D2121943EB0C03001B61EB0C01F2
:106CE000DFF824E14FEA1154A4EB135C1EEA430FD2
:106CF00018BF9EEA445F73D023EA0E03DCF1200E36
:106D000021EA045143F4801332D322FA0CFE10EB33
:106D10000E0023FA0CFE41EB0E01CCF1200E03FA1B
:106D20000EFE10EB0E0051F10001B1F5801FCCF109
:106D3000200E32D201EB045112FA0EF2BDE81040DF
:106D400058BF7047401C38BF5FEA420218BF704707
:106D5000002814BF20F0010041F100014FEA410377
:106D600013F5001F38BF7047A1F1C04100F08EB984
:106D7000012A43EB0302ACF1200CDCF11F0E32BF01
:106D80004FF0000E23FA0CF310EB030041EB04511B
:106D9000B4EB115FD0D0A1EB045101F5801149088B
:106DA0005FEA300001EB04510ED350F1000038BF10
:106DB00012FA0EFE08D1BDE81040C9E7401C38BFEA
:106DC0005FEA4202CAD1C3E7BDE810404FEA41037F
:106DD00013F5001F38BF7047A1F1C04100F056B94C
:106DE0009EEA445F08D011EA5E0FBDE8104004BF80
:106DF00001F0004100207047BDE8104070B500F080
:106E0000F7F800BF64FBBE3E0000E0FF491058BF2A
:106E1000C1F140415B1058BFC3F140438B42EFF3D7
:106E20000080704751EA030C17D41CF5801F58BF2F
:106E3000BCF5801F00F10680994218BF704708BF5B
:106E40009042704707D711F5801F58BF13F5801F78
:106E500019D499427047894270471CF5801F08D5A4
:106E6000BCF5801FF7D58B4218BF704708BF824220
:106E700070474FF4001C1CEB410F38BF1CEB430F55
:106E800001D28B42704770B500F0B2F892244900ED
:106E90004FF000514FF08053FFF7B8BFDFF848C103
:106EA00070B51CEA111E1EBF1CEA13159EEA0C0FDA
:106EB00095EA0C0F00F06F8081EA030423EA4C137B
:106EC0004EEAD47E21EA4C1141F4801143F4801340
:106ED000AE44A1FB024CA0FB0365AEF17F7E3619E8
:106EE00055EB0C05A1FB034C4CF10003A0FB021C6D
:106EF00016EB0C06654153F10003094218BF46F03A
:106F0000010613F4007F0BD14FEA03314FEA05303D
:106F1000340341EA155140EA16506FF003020AE0CB
:106F20004FEAC3214FEAC520F40241EA555140EA35
:106F300056506FF0020202EB2E4201EB025585EA39
:106F4000CE710AD05FEA440C18BF24F0004450F11F
:106F5000000041F1000120EAD47040F2FE7C62455D
:106F600000D270BDA84214BF4FF080444FF040449F
:106F7000002E08BF0024BEF1806FA8BFA1F1C04160
:106F8000BDE8704080F282804FF0000001F1C04106
:106F900001F0004170479EEA0C0F0CEA131518BF70
:106FA00095EA0C0F06D04FF0000081EA030E0EF0B8
:106FB000004170BD00F01CF88900013E00F007B8E8
:106FC00000F009B84FEA430C5FEA5C5C08D081EA44
:106FD000030100F05BB84FEA410C5FEA5C5CF6D15C
:106FE0004FF00000014970470000FF070000F87FE4
:106FF0000EF1020E2EF0030E5EF8046B364205D43D
:10700000012A43EB030515F5001F12D8012841EBB7
:10701000010C1CF5001F0CD80ED14FEAD17C15F5E0
:10702000001F0CEB4C0C0CF1020C08BF4CEBD37C9A
:1070300004E04FF0080C01E04FEAD37C0CEB4C0568
:1070400026FA05F606F00706B6F1040C06D20EEB9A
:10705000860CBDE870404CF0010C6047DFE80CF096
:10706000090B02024FF000414FF00000A1F5002192
:1070700070BD19461046012851EB010418BFD4F524
:10708000001484BF002001F0004170BD0808A0F585
:1070900000114FEA3101704753EA010C17D41CF577
:1070A000801F58BFBCF5801F00F106808B4218BFBF
:1070B000704708BF8242704707D713F5801F58BF3B
:1070C00011F5801F19D48B4270479B4270471CF505
:1070D000801F08D5BCF5801FF7D5994218BF7047AF
:1070E00008BF904270474FF4001C1CEB430F38BFA1
:1070F0001CEB410F01D2994270470FB40CBC03BC8A
:10710000FFF7C1BE10B591EA030F48BF83F00043FB
:107110003FF5DCAD841A71EB030C07D212198CF029
:10712000004C43EB0C03001B61EB0C01DFF8A4E106
:107130004FEA1154A4EB135C1EEA430F18BF9EEAFA
:10714000445F00F0B08023EA6E03524221EA04510A
:10715000C3EB6E0338BF5B1EDCF1200E25D322FA91
:107160000CFE10EB0E0043FA0CFE41EB0E01CCF1CD
:10717000200E03FA0EFE10EB0E0051F10001CCF1CF
:10718000200E29D412FA0EF201EB0451BDE8104092
:1071900058BF7047401C1CBFB2F1004F7047002819
:1071A0000CBF491C20F00100704712EB020E43EBAC
:1071B000030218BF4FF0010E4EEA4202ACF1200C60
:1071C000DCF11E0E54D943FA0CFE10EB0E0051F107
:1071D000FF31CCF11E0ED5D50EF1010E12FA0EFEC6
:1071E000404141EB010101EB445C5FEA5C5C10D97A
:1071F00010EBDE7001EB045138BFBEF1004FBDE86B
:10720000104018BF704700280CBF491C20F0010037
:10721000704730D24FEAD42C11F5001124F40064E9
:107220001BD0B1FA81F20B3AA41AA41ED2F12003AA
:10723000914030FA03F31943904001EBCC71002CDC
:1072400001EB0451BDE81040A8BF704701F1C041F7
:107250004FF0000001F000417047B0FA80F310FADF
:1072600003F100D110BDE41A173C4805C90AE4E750
:1072700001EB045110BD491001EB0451BDE8104071
:107280004FEA300002E04FF0000170474A0008BFAB
:107290000042F8D0B2F5001F28BF704701F000414E
:1072A0004FF0000070479EEA445F07D011EA5E0F7E
:1072B000BDE8104004BF002100207047BDE8104029
:1072C00070B5FFF795FE00BF40DFF63E83F000414A
:1072D000104670470000E0FF43004FEAD30C4FEA2E
:1072E0003C0C43401FBF40070CF1605113F0FE4FB0
:1072F00070471CF0006F03D100200CF00041704774
:107300000CF0004343EA507010B540EACC0000F0A6
:107310005CFA00BF000000924FEA0001FFF7B6BE22
:107320004FF000414FF00000A1F500217047000030
:1073300090EA010F48BF81F0004100F1D482421A67
:107340003CBF801A89184FEAD0524FF07F4C1CEA9C
:10735000410FA2EBD15318BF9CEA026F00F03B80B3
:107360004FF0004C4CEA00204CEA012121FA03FCCA
:1073700010EB0C0C1ED202F1FF325FEA1C2040EB36
:10738000C25038BF70471CF07F0F4FEA400C18BF47
:10739000BCF17F4F38BF7047C3F12003994008BF4D
:1073A00020F00100BCF17F4F38BF7047A0F1C04012
:1073B00000F051BA4FEA3C00000A40EBC25028BF2F
:1073C0001CF0FF0F4FEA400CE6D018BFBCF17F4F16
:1073D00038BF7047EAE79CEA026F05D010EA5C0FFD
:1073E00008BF00F00040704710B500F0EEF900BF94
:1073F00064FBBE3E401058BFC0F14040491058BF2A
:10740000C1F140418142EFF3008070474FF47F0C9F
:107410001CEAD0121EBF1CEAD11392EA0C0F93EAA9
:107420000C0F00F0858090EA010F48BF42F4807293
:1074300040F4000C41F400002CF07F4120F07F402C
:1074400000B58142A2EB03020FF2081CACEB504ED8
:10745000C0F100009EF800E04FEA4E0E00FB0EFC6B
:1074600038BF49004FEA2C1C02F5FA020CFB0EF360
:107470004FEACE1E4FEA112C4FEAC1210EEB635E9C
:1074800042EB22420EFB0CFC4FEA1C5300FB0311A3
:107490004FEA112C4FEA01310EFB0CFC4FEADC4C99
:1074A00000FB0C11C14228BF09184CEB03335DF8F7
:1074B00004EB10EB410143EBC250B2F57C0F38BF37
:1074C000704729D512F0F00F1CBF00F1C04000F04A
:1074D00000407047008182838485868788898B8CF1
:1074E0008D8E8F919293959697999A9C9D9FA0A22D
:1074F000A3A5A7A8AAACAEB0B2B3B5B7B9BCBEC07D
:10750000C2C5C7C9CCCED1D4D7D9DCDFE2E6E9EC1D
:10751000F0F3F7FAFE0000004FEA400C0CF1807C1B
:10752000BCF17E4F28BF7047B0F1C04000F093B966
:1075300090EA010F0CEAD11348BF42F48072624511
:1075400038BF634507D213F47F0F16D080EA0100DD
:1075500000F00040704710B500F037F9097EFC3E9E
:1075600000F005B880EA010000F00040704780EAB2
:10757000010000F0004000F06EB912F47F0F04BF6C
:107580000248704780EA010000F065B90000C07F42
:1075900041000B0ED3F19E0208D950F400034FEACC
:1075A000032323FA02F048BF4042704710B500F0B1
:1075B0000CF900BF49922480002070476FF0004210
:1075C00082EA200070470000C10DD1F19E0206DB67
:1075D0004FEA002343F0004323FA02F070470042D1
:1075E00007D54FEA4001B1F1FE4F02D24FF0000043
:1075F000704710B500F0E9F84992248000207047E8
:107600006FEA20007047000010F0004148BF404280
:10761000B0FA80F310FA03F2C3F19D030BD051EAE4
:10762000C35101EB1220530638BF704700F101002F
:1076300008BF20F001007047B0FA80F310FA03F29F
:10764000C3F19D030AD0D90501EB1220530638BFC0
:10765000704700F1010008BF20F0010070470000F2
:1076600050EA010C00F113801CF5000F58BFBCF567
:10767000000F01D48842704707D710F5000F58BF9C
:1076800011F5000F15D488427047894270471CF5E8
:10769000000F04D5BCF5000FF7D5814270474FF0BD
:1076A000807C1CEB400F38BF1CEB410F01D28142A4
:1076B000704710B500F089F8922449004FF000504F
:1076C0004FF08051FFF796BE4FF47F0C1CEAD012AA
:1076D0001EBF1CEAD11392EA0C0F93EA0C0F00F0C4
:1076E000478090EA010F48BF42F480724FF0004C8F
:1076F0004CEA00204CEA012102EB0302A0FB01133B
:10770000A2F50002002918BF43F001035B0028BF67
:107710004FEA330342EB22425FEA132C4CEBC25098
:107720002EBFBCEB436FB2F57C0F70474FEA036C82
:10773000BCF1004F08BF20F00100B2F57C0F38BF4C
:1077400070470BD582F0FF0212F5803FC8BF70472B
:1077500000F1C040D8BF00F00040704700F5000CB9
:107760005FEA4C0C48BF7047B0F1C04000F073B8FE
:1077700090EA010F0CEAD11348BF42F480726245CF
:1077800038BF634504D280EA010000F00040704732
:1077900010B500F01AF800BF8900013E00F007B8EC
:1077A00000F009B85FEA410C5FEA1C6C08D080EA7F
:1077B000010000F050B85FEA400C5FEA1C6CF6D1A3
:1077C0004FF00040A0F5800070470EF1020E2EF041
:1077D000030E5EF8044B244204D44FEA4102B2F196
:1077E0007F4F11D84FEA4003B3F17F4F0CD80ED131
:1077F0004FEAD07CB2F17F4F0CEB4C0C0CF1020C39
:1078000008BF4CEBD17C04E04FF0080C01E04FEADC
:10781000D17C0CEB4C0324FA03F404F00704B4F11C
:10782000040C06D20EEB840CBDE810404CF0010CA9
:107830006047DFE80CF0070802024FF00040A0F5B7
:10784000800010BD0846420018BFD2F1807288BF88
:1078500000F0004010BDFF2141EAD050C005704744
:1078600051EA000C00F113801CF5000F58BFBCF565
:10787000000F01D48142704707D711F5000F58BFA0
:1078800010F5000F15D481427047894270471CF5EE
:10789000000F04D5BCF5000FF7D5884270474FF0B4
:1078A000807C1CEB410F38BF1CEB400F01D288429B
:1078B000704780EA010081EA000180EA0100FFF7D9
:1078C000F8BE80F0004090EA010F7FF538AD81F0FE
:1078D000004100F008B8000090EA010F48BF81F0B5
:1078E00000413FF52CAD421A04D882F00042A0EBD3
:1078F000020011444FEAD0524FF07F4C1CEA410F76
:10790000A2EBD15318BF9CEA026F4AD04FF0004C53
:107910004CEA00204CEA012121FA03FCB0EB0C0CEC
:107920000FD412F0FE0F36D05FEA4C001DD50012C6
:1079300040EBC25038BF70471CF03F0F18BF704774
:107940000BE0A2F101025FEA1C2040EBC25038BFFD
:1079500070471CF07F0F18BF7047C3F12003994098
:1079600014BF401E20F00100704780084FEA122328
:1079700008BF7047B0FA80FCA2EB0C02CCF1280CD7
:1079800060FA0CF093EA122F04BF00EBC25070476C
:107990004FEAC3707047130A5FEADC1008BF7047F4
:1079A000F6E79CEA026F04D010EA5C0F08BF0020E3
:1079B000704710B5FFF709FF40DFF63E81F0004049
:1079C00070470000E00000200C0000008000000074
:1079D00000020000000000000000000000000000A5
:1079E0000000000000000000000000000000000097
:1079F000E002002080000000000200000000000003
:107A00000000000000000000000000000000000076
:107A10000000000000000000000000000000000066
:107A2000400000006400000001000000E0040020AD
:107A30000C000000800000000002000000000000B8
:107A40000000000000000000000000000000000036
:107A50000000000000060000787A00080000002006
:107A6000E00000006C210008587B0008E0000020C6
:107A7000E836000088210008000000000000000037
:107A800000000000000000000000000000000000F6
:107A900000000000000000000000000000000000E6
:107AA00000000000000000000000000000000000D6
:107AB00000000000000000000000000000000000C6
:107AC00000000000000000000000000000000000B6
:107AD00000000000000000000000000000000000A6
