:020000040800F2
:10200000C837002001220008092200080B2200081E
:102010000D2200080F220008112200080000000015
:102020000000000000000000000000001322000873
:102030001522000800000000F3220008494C0008A7
:102040001B2200081B2200081B2200081B2200087C
:102050001B2200081B2200081B2200081B2200086C
:102060001B2200081B2200081B220008C9290008A7
:102070001B2200081B2200081B2200081B2200084C
:102080001B2200081B2200081B2200081B2200083C
:102090001B2200081B2200081B2200081B2200082C
:1020A0001B2200081B2200081B2200081B2200081C
:1020B0001B2200081B2200081B2200081B2200080C
:1020C0001B2200081B2200081B2200081B220008FC
:1020D0001B2200083D6C00081B2200081B22000880
:1020E000C72B0008616300081B2200081B220008A0
:1020F0001B2200081B2200081B2200081B220008CC
:102100001B2200081B2200081B2200081B220008BB
:102110001B220008856B00081B2200081B220008F8
:102120001B2200081B2200081B2200081B2200089B
:1021300000F002F800F03AF80AA090E8000C82449F
:102140008344AAF10107DA4501D100F02FF8AFF27C
:10215000090EBAE80F0013F0010F18BFFB1A43F085
:1021600001031847305E0000505E0000103A24BFA3
:1021700078C878C1FAD8520724BF30C830C144BFEC
:1021800004680C607047000000230024002500262E
:10219000103A28BF78C1FBD8520728BF30C148BFCA
:1021A0000B6070471FB51FBD10B510BD00F04BF898
:1021B0001146FFF7F7FF04F01FFF00F069F803B4C2
:1021C000FFF7F2FF03BC00F071F8000072B6704731
:1021D00062B67047EFF3108072B6704780F31088D4
:1021E000704730BF704720BF7047B0FA80F070472B
:1021F00090FAA0F0B0FA80F0704790FAA0F0704723
:102200000948804709480047FEE7FEE7FEE7FEE78A
:10221000FEE7FEE7FEE7FEE7FEE7FEE704480549C6
:10222000054A064B70470000B568000831210008D8
:10223000C8310020C8370020C8330020C833002030
:10224000704770477047754600F02CF8AE460500A1
:102250006946534620F00700854618B020B5FFF7C1
:10226000DDFFBDE820404FF000064FF000074FF0C3
:1022700000084FF0000B21F00701AC46ACE8C009A4
:10228000ACE8C009ACE8C009ACE8C0098D467047AD
:1022900010B50446AFF300802046BDE81040FFF7BC
:1022A0008EBF0000004870476831002001491820A7
:1022B000ABBEFEE726000200704700001D484FF04D
:1022C000FF010170002080F309881B48016881F339
:1022D00008881A484FF08051016062B6FEE717483F
:1022E0004FF080510160704714484FF080510160F9
:1022F000704772B6EFF3098028B1203880E8F00FFC
:102300000F490968086000B50E4880475DF804EB86
:102310000D480E490A78027009480D490A680260A2
:10232000106890E8F00F203080F309884EF0F40E2A
:1023300062B6704722ED00E06400002004ED00E08A
:102340005C000020C94A0008300000203100002055
:102350006000002021B1826842F48072826003E054
:10236000826822F480728260704721B1826842F4F0
:10237000A002826003E0826822F4A00282607047BB
:102380003C483D4908603D4848603D4888603D48BC
:10239000C8603D4808613D4848613D488861C86162
:1023A000086248628862C862086348638863C865D7
:1023B000086648668866C8660867C1F88400C1F880
:1023C0008800C1F898003348C1F89C003248C1F831
:1023D000A0002F48C1F8AC00C1F8B000C1F8B400AB
:1023E000C1F8B800C1F8BC00C1F8C000C1F8C40011
:1023F000C1F8C800C1F8CC00C1F8D0002748C1F826
:10240000DC002748C1F8E0002648C1F8E40026486F
:10241000C1F8E8002548C1F8EC002548C1F844019E
:102420001B48C1F84801C1F85001C1F85401C1F876
:102430006401C1F86801C1F86C01C1F87001C1F80C
:102440007401C1F87801C1F88C01C1F89001C1F89C
:102450009401C1F89801C1F89C01C1F8A001C1F82C
:10246000A401C1F8A801C1F8BC01C1F8C001C1F8BC
:10247000C4017047F1620008202A0020D5650008D9
:10248000F1650008556700086567000801630008EA
:10249000C96500087D6500081163000839630008FC
:1024A00019610008C96000083161000899600008DE
:1024B0009165000810B50421014800F0A9FD10BD88
:1024C0000018014010B50421014800F09FFD10BD27
:1024D0000018014070B5044600250C49204605F05F
:1024E00091FB06460A4905F095FC05464FF07E51E2
:1024F000284605F053FC01D84FF07E550549284683
:1025000005F04CFB00D8034D284670BDF7E4213E92
:10251000666666400AD7233C70B50024002500F0AB
:1025200097F901F0E7F81848184908610015888202
:102530000820C86014484860C0140881082008605A
:10254000084601F04CF900F02DF801F00FF80546AF
:102550004DB90F480F4908600F4848600F48886020
:102560000F48C86009E00A480A4908600A484860FC
:102570000A4888600A48C86000BF00BF00F0A0F9A0
:102580000446204670BD0000000C0140F82B0020DE
:1025900033335340E82B0020333383406666263FB5
:1025A000D524000808B50121202003F0F5FDC02046
:1025B000ADF8000004208DF8030002208DF8020021
:1025C0006946024800F08EFC08BD0000001401407E
:1025D00001460846044A1268904203D9024A12682A
:1025E000801A00E0002070477800002070B50025B8
:1025F00000BFFFF7EFFD054600BF0648046800BFB7
:102600002846FFF7EBFD00BF2046FFF7E1FF064637
:10261000304670BD7C00002070B50025FFF7E6FF56
:10262000044600BFFFF7D6FD054600BF0020044961
:10263000086000BF2846FFF7D1FD00BF204670BDEF
:102640007C00002000B509480088401C074908802C
:102650000748008818B900F039F8064908600448AE
:102660000088401C0249088000BD00006C0000206A
:102670006E0000207000002000B50F480088401E4A
:102680000D4A108010460088A0B900F01FF80B4AD0
:102690001060104600680A4A1268811A09480068EA
:1026A000884201D20748016007480068884201D289
:1026B0000548016000BD00006E000020740000208D
:1026C000700000207C00002080000020014840684D
:1026D00070470000001000E030B502460B460021B4
:1026E00000244FF6FF7000BF12E0555C68400024E4
:1026F0000AE000F0010525B140104AF201056840EA
:1027000000E04010651CECB2082CF2DB4D1CA9B2B5
:102710009942EADB30BD000010B50446012C0DD013
:102720004448007800F0010008B900F031F90020B9
:1027300000F0D0FF00204049087010BD3F480078ED
:1027400030B101281ED0022844D003286BD159E0B3
:102750003B49D1F898013B4905F020FA0ED8384999
:10276000D1F88401384905F019FB03D80120334919
:10277000087006E003203149087002E002202F496A
:10278000087054E02B48007800F0010008B900F010
:10279000FFF82B49D1F898014FF0824105F0FEFA7D
:1027A00006D92749D1F88401284905F0F7F908D856
:1027B000002000F08FFF00201F4908701F4908709B
:1027C00007E0012000F086FF01201B4908701B492B
:1027D00008702CE0002000F07DFF002016490870F2
:1027E0001448007800F0010008B100F05FF81148CB
:1027F0000078C0F3001008B100F0B6F800200F49CF
:10280000087014E0002000F065FF00200A490870FD
:102810000848007800F0010008B900F0B9F800207D
:102820000649087003E000200449087000BF00BF9B
:1028300000BF82E79800002099000020A40000203B
:10284000440900200000A0400000F0410000E041E9
:1028500008B50121402003F09FFC0520ADF80000E1
:1028600010208DF8030003208DF802006946064809
:1028700000F038FB0121044800F0CAFB04210248A3
:1028800000F0C6FB08BD00000018014010B5012192
:10289000014800F0BDFB10BD0018014010B501213A
:1028A000014800F0B3FB10BD0018014010B5102323
:1028B0001422D021014801F0ABF810BDF82B002004
:1028C0002DE9F04100242448C06810B9601EBDE81D
:1028D000F0814FF488731422D021204801F098F839
:1028E000044600232922D0211C4801F091F8044419
:1028F0000A231522D021194801F08AF80444032341
:102900001A22D021154801F083F80444124948687E
:10291000134905F07FFA0746124905F073F9064698
:1029200005F0F0F885B22B461B22D0210B4801F0B0
:102930006FF804444FF461631D22D021074801F071
:1029400067F8044445F260431E22D021034801F099
:102950005FF804442046BAE7E82B0020F82B00205B
:10296000000074400000A04210B54FF48873142298
:10297000D021064801F04CF8142000F016F910237D
:102980001422D021014801F043F810BDF82B00209B
:1029900010B54FF488731422D021024801F038F8A2
:1029A00010BD0000F82B002010B54FF480710248D4
:1029B00000F02EFB10BD000000080140012001497D
:1029C000088070474409002010B5022000F0B0F8DC
:1029D000002864D03248006820F0020030490860C6
:1029E00000212F480838FFF7C0FC00212C48083888
:1029F000FFF7B0FC022000F081F8002029490870A0
:102A000031E000212848274A127840F8221000209F
:102A1000264908701EE02549097801EB8101214A09
:102A200012781144224A32F8110005F0A3F8044646
:102A30001D481C4A127850F82210204604F016FF58
:102A40001949184A127841F8220018480078401CA9
:102A500016490870154800780A28DCDB1148007810
:102A6000401C104908700F4800780528C9DB0E4843
:102A70000068104908600C4840680F4908600A481F
:102A800080680E4908600848C0680D49086006481B
:102A900000690C49086000210B4800F03DF810BDAA
:102AA00008240140B80000203C310020B90000207B
:102AB000D8300020BC000020C0000020C40000204E
:102AC000CC000020C80000200800024010B50446D9
:102AD0004FF40061074800F09BFA0021064800F01F
:102AE0001BF80548443884640121034800F014F8B9
:102AF00010BD0000000801404400024000F0805179
:102B000011B10349086001E00249486070470000C4
:102B1000040402400000024021B1026842F00102B8
:102B2000026004E002684FF6FE731A4002607047CC
:102B300001460020002201F0805313B1054B1A68B2
:102B400001E0054B1A6802EA01030BB1012000E025
:102B50000020704700040240000002401AB10368E0
:102B60000B43036002E003688B430360704710B5BA
:102B70000022026847F6F0739A430C6A8B6823437D
:102B80000C6923434C6923438C692343CC69234359
:102B90004C6A23438C6A23431A430260CB68436028
:102BA0000B6883604B68C36010BD06E0482100BF1E
:102BB0000A1EA1F1010359B2FADA021EA0F10103C3
:102BC00058B2F3DA704704F0F7F9000001490860E1
:102BD0007047000014040140002123498279002A33
:102BE0003AD00A46126803689A430B461A600A1DD7
:102BF000126803689A430B1D1A60027911440A682F
:102C000003681A430A60184A0832126803689A4334
:102C1000154B08331A601A1D126803689A43124B49
:102C20000C331A604279102A0ED11A1F12680368F9
:102C30001A430D4B08331A601A1D126803681A43B1
:102C4000094B0C331A600DE00749427911440A68B8
:102C500003681A430A6005E0027911440A680368B0
:102C60009A430A60704700000004014010B500F06C
:102C7000E1F8352000F01EF800240AE00B4901EBD2
:102C8000C42000F01DF800BF00F05AF80128FBD066
:102C9000641C502CF2D3064800F012F800BF00F07C
:102CA0004FF80128FBD000F065F810BD00A0020825
:102CB00000F007080149C86070470000002002408A
:102CC00030B5044604254FF4302000F0BFF8054627
:102CD000042D17D10C48006940F002000A49086130
:102CE00008464461006940F0400008614FF430201C
:102CF00000F0ACF805460448006941F6FD71084053
:102D000001490861284630BD0020024004200B49DB
:102D1000C96801F0010109B101200EE00749C96845
:102D200001F0040109B1022007E00449C96801F07B
:102D3000100109B1032000E0042070470020024088
:102D400004200B49C96801F0010109B101200EE01E
:102D50000749C96801F0040109B1022007E00449EC
:102D6000C96801F0100109B1032000E00420704798
:102D7000002002400348006940F0800001490861DA
:102D8000704700000020024070B504460D4604263E
:102D9000F00200F05BF80646042E11D109480069E4
:102DA00040F00100074908612580F00200F04EF86C
:102DB00006460448006941F6FE7108400149086171
:102DC000304670BD0020024078B506460C4604250A
:102DD00000200090E80200F039F80546042D24D1C7
:102DE0001348006940F00100114908613480E8028D
:102DF00000F02CF80546042D10D1B01C0090200CDA
:102E000000990880E80200F021F8054608480069AA
:102E100041F6FE7108400649086106E00448006971
:102E200041F6FE71084002490861284678BD00005D
:102E30000020024002480349486003484860704748
:102E40002301674500200240AB89EFCD00B5024663
:102E50000423FFF75BFF034603E0FFF757FF03463A
:102E6000521E012B01D1002AF7D102B905231846C1
:102E700000BD000010B500F017FC4FF44070084989
:102E8000A1F8680100F0CCFB0549B1F868110843CE
:102E90000349A1F8680180210148A0F86A1110BD1A
:102EA0004409002030B500228B071C0F0F2303FAC2
:102EB00004F20B4B8C1053F824309343084C8D10C4
:102EC00044F8253023468C1053F824308C07240F07
:102ED00000FA04F42343024C8D1044F8253030BD31
:102EE000080001402DE9F04102460025002600209F
:102EF00000230024002791F803C00CF00F0591F87F
:102F000003C00CF0100CBCF1000F03D091F802C00C
:102F10004CEA050591F800C0BCF1000F31D01468EF
:102F200000202BE04FF0010C0CFA00F3B1F800C0C8
:102F30000CEA03069E4220D183004FF00F0C0CFADE
:102F400003F7BC4305FA03FC4CEA040491F803C000
:102F5000BCF1280F06D14FF0010C0CFA00FCC2F8AE
:102F600014C00AE091F803C0BCF1480F05D14FF03E
:102F7000010C0CFA00FCC2F810C0401C0828D1D388
:102F80001460B1F800C0BCF1FF0F34DD54680020BC
:102F90002EE000F1080C4FF0010808FA0CF3B1F82C
:102FA00000C00CEA03069E4221D183004FF00F0CB3
:102FB0000CFA03F7BC4305FA03FC4CEA040491F84D
:102FC00003C0BCF1280F05D100F1080C08FA0CF879
:102FD000C2F8148091F803C0BCF1480F07D100F18A
:102FE000080C4FF0010808FA0CF8C2F81080401CD9
:102FF0000828CED35460BDE8F081024600209368D3
:103000000B400BB1012000E0002070474161704788
:103010000161704700487047202A002038B50446F7
:1030200000256B463422D0213F4800F0FFFB0546C7
:1030300015B14FF0FF3038BDBDF8000000F48070CE
:1030400088B1207820F00100401C2070207820F00A
:1030500002002070207820F004002070207820F0FA
:103060000800207030E0207820F001002070BDF8CA
:10307000000000F0800028B1207820F00200801CC1
:10308000207003E0207820F002002070BDF80000DE
:1030900000F0400028B1207820F00400001D2070CE
:1030A00003E0207820F004002070BDF8000000F05C
:1030B000180028B1207820F008000830207003E0C4
:1030C000207820F008002070BDF8000000F0040017
:1030D00028B1207820F010001030207003E0207814
:1030E00020F010002070BDF8000000F0020028B1B0
:1030F000207820F020002030207003E0207820F09D
:1031000020002070BDF8000000F0010028B12078F8
:1031100020F040004030207003E0207820F0400094
:103120002070002087E70000F82B00202DE9F843ED
:10313000044600256B463D22D0210C4800F076FB6A
:10314000054685B9BDF9000004F0FCFC804608493D
:1031500004F058FD0746074904F0F6FB0646064909
:1031600004F0F2FB20602846BDE8F883F82B00202D
:10317000DC80BB3F0000404000007A442DE9F8436A
:10318000044600256B463E22D0210C4800F04EFB41
:10319000054685B9BDF9000004F0D4FC8046084915
:1031A00004F030FD0746074904F0CEFB0646064909
:1031B00004F0CAFB20602846BDE8F883F82B002005
:1031C000DC80BBBF0000404000007A4410B5002402
:1031D000734800F0FDF904447148083000F004F928
:1031E00004446F480C3800F0D3F904446C480C30A8
:1031F000FFF7C4FF04446A48001FFFF797FF044429
:103200006848FFF70BFF04445CB90020664908706A
:103210006648D0F8B80120F000406449C1F8B80110
:103220001AE0614801780078401C5F4A1070052957
:1032300012DD0520114608705C48D0F8B80120F076
:10324000004000F100405949C1F8B8010021574839
:10325000C0F89011C0F88C1152480078C0F34010AB
:1032600058B950480078C0F3801030B94F49D1F8B0
:1032700090014F4904F092FC18D800204D49088075
:103280004D480088401C4C49088008460088142896
:1032900029DB002008804548D0F8B80120F0005014
:1032A00000F100504149C1F8B8011CE03F49D1F894
:1032B0009001424904F072FD15D800203E49088073
:1032C0003C480088401C3B49088008460088642828
:1032D00009DB002008803548D0F8B80120F0005004
:1032E0003249C1F8B8013149D1F89C01344904F0A0
:1032F00055FC4BD22D49D1F88C01314904F04EFCDC
:1033000044D22A49D1F890012E4904F047FC19D83B
:1033100000202D4908802D480088401C2B4908803A
:1033200008460088B0F5167F30DB002008801F4873
:10333000D0F8B80120F0805000F180501B49C1F84E
:10334000B80123E01949D1F89001214904F026FD84
:1033500017D800201D4908801B480088401C1A49C6
:10336000088008460088B0F5967F0FDB00200880B3
:103370000E48D0F8B80120F080500C49C1F8B801CF
:1033800004E0002010490880104908800749D1F85E
:10339000900100F01FF80549C1F8940110BD00002C
:1033A000D40A0020980000209A0000204409002040
:1033B0000000B041A0000020A20000200000BC419D
:1033C000CDCC4C3E0000C4419E0000209C0000205B
:1033D0000000D44110B504460248C1682046884721
:1033E00010BD0000E82B00202DE9FE4F04464FF0F1
:1033F000000A02AB4022D021484800F017FA82466A
:10340000BAF1000F23D1BDF9080004F09BFB074679
:10341000434904F0F4FC0546BDF9080004F092FBB2
:103420000746404904F0EEFB0646294604F08CFAB4
:1034300081463D49484604F0B1FB09D849463B481E
:1034400004F0E0FB05463A4904F010FA206062E01F
:103450003549484604F0A2FC0ED23249484604F0F1
:103460009DFB09D84946334804F0CCFB0546324958
:1034700004F0FCF920604EE02A49484604F08EFC36
:1034800018D22E49484604F089FB13D8484604F068
:10349000C1F907462A4A2B4B03F09EFF05464FF021
:1034A0000042294B03F0A8FECDE9000103F072FEB3
:1034B000206030E02149484604F070FC0ED22349D8
:1034C000484604F06BFB09D84946214804F09AFBB2
:1034D0000546204904F0CAF920601CE01B49484613
:1034E00004F05CFC0ED21C49484604F057FB09D896
:1034F00049461A4804F086FB0546194904F0B6F916
:10350000206008E04946174804F07CFB0546164950
:1035100004F0ACF920605046BDE8FE8FF82B002087
:1035200000AAAA46000020419A999940B0031CC104
:103530009358B44213F271C0E9A67642CDCC6441EF
:1035400064CC5D4BC88700C0E9A646403333B34125
:103550008885A2BFDB7906420000E441D34D62BFFB
:103560001D5AC9414F1EB6BEDD24EC4010B50024E3
:1035700040210648FFF741FD04436006040E802108
:103580000248FFF73AFD0443204610BD00140140F5
:10359000F8B5044600256B463B22D021094800F0CF
:1035A00045F9054665B9BDF9000004F0CBFA0746B8
:1035B000054904F027FB0646044904F0C5F92060DC
:1035C0002846F8BDF82B0020AAF1D23F00007A442B
:1035D0002DE9F843044600256B463A22D0210C48D9
:1035E00000F024F9054685B9BDF9000004F0AAFAF7
:1035F0008046084904F006FB0746074904F002FB31
:103600000646064904F0A0F920602846BDE8F88384
:10361000F82B00200000E040DBE0443E00007A444C
:1036200010B500244FF400710A48FFF7E6FC04438C
:103630006006040E4FF480710648FFF7DEFC044379
:103640006006040E80210348FFF7D7FC04432046A0
:1036500010BD000000180140F8B5044600266B4676
:10366000002292210F4800F0E1F80646BEB99DF80D
:103670000150BDF80000000200B20090BDF800004B
:1036800000F47F4000B20090BDF900002843009094
:10369000BDF90000C11700EB11610912218030460D
:1036A000F8BD00005031002008B50121402002F093
:1036B00073FD4FF46070ADF8000004208DF8030036
:1036C00002208DF8020069460148FFF70BFC08BD97
:1036D0000018014010B50446012C04D120210448F3
:1036E000FFF796FC03E020210148FFF78FFC10BD97
:1036F0000014014008B50121202002F04DFD2020DA
:10370000ADF8000010208DF8030002208DF80200B3
:1037100069460448FFF7E6FB20210248FFF776FCE4
:1037200008BD00000014014070B504460025A18AC0
:103730002069FFF76BFC21896068FFF769FC0120B5
:10374000FFF733FAA18A2069FFF762FC0320FFF735
:103750002CFA21896068FFF750FC012800D101256F
:10376000A18A2069FFF752FC0120FFF71EFA2846C4
:1037700070BD70B504460D46A18A2069FFF746FC6E
:103780000120FFF712FA21896068FFF741FC002051
:103790002870072620E0A18A2069FFF737FC012066
:1037A000FFF703FAA18A2069FFF732FC0320FFF735
:1037B000FCF921896068FFF720FC012803D12978F2
:1037C000B04001432970A18A2069FFF71FFC022045
:1037D000FFF7EBF9701E46B2002EDCDA70BD38B58B
:1037E00004460121206802F0D7FC0121E06802F0C4
:1037F000D3FC2089ADF8000014208DF803000320CD
:103800008DF8020069466068FFF76CFB21896068EB
:10381000FFF7FEFBA08AADF8000069462069FFF7BC
:1038200061FBA18A2069FFF7F3FB38BD2DE9F8435E
:1038300080460E4617461C4600250020208006F0D4
:10384000FE06404600F0ADF83146404600F03EF836
:103850004046FFF769FF00B16D1E3946404600F053
:1038600035F84046FFF760FF00B16D1E46F00106D7
:10387000404600F096F83146404600F027F84046B2
:10388000FFF752FF00B16D1E69464046FFF771FF1A
:1038900020889DF8001008432080404600F049F839
:1038A00069464046FFF765FF20889DF800104FF4F9
:1038B0007F4202EA012108432080404600F055F88B
:1038C000404600F086F82846BDE8F8832DE9F0412F
:1038D00004460E460127072527E0A18A2069FFF745
:1038E00095FB0120FFF761F946FA05F000F00100B1
:1038F00020B121896068FFF78BFB03E021896068B4
:10390000FFF784FB0120FFF750F9A18A2069FFF738
:103910007FFB0520FFF749F9A18A2069FFF776FBB5
:103920000120FFF742F9681E45B2002DD5DABDE847
:10393000F08110B50446A18A2069FFF767FB218951
:103940006068FFF763FB0120FFF72FF9A18A206968
:10395000FFF75EFB0520FFF728F9A18A2069FFF732
:1039600055FB0120FFF721F910BD10B50446A18ACF
:103970002069FFF74BFB21896068FFF749FB0120B5
:10398000FFF713F9A18A2069FFF742FB0520FFF733
:103990000CF9A18A2069FFF739FB0120FFF705F92F
:1039A00010BD10B5044621896068FFF731FB022085
:1039B000FFF7FBF8A18A2069FFF72AFB0220FFF737
:1039C000F4F821896068FFF721FB0220FFF7EDF88A
:1039D00010BD10B50446A18A2069FFF717FB01202E
:1039E000FFF7E3F821896068FFF710FB0120FFF77C
:1039F000DCF8A18A2069FFF70BFB0220FFF7D5F85E
:103A000021896068FFF704FB0120FFF7CEF810BDA5
:103A10002DE9F04180460E4617461D46002406F06B
:103A2000FE064046FFF7BDFF31464046FFF74EFF1A
:103A30004046FFF779FE00B1641E39464046FFF765
:103A400045FF4046FFF770FE00B1641EE9B24046F4
:103A5000FFF73CFF4046FFF767FE00B1641E290AEE
:103A60004046FFF733FF4046FFF75EFE00B1641E9D
:103A70004046FFF7AEFF2046BDE8F0812DE9F0415A
:103A800080460D4616461F46002405F0FE054046BA
:103A9000FFF787FF29464046FFF718FF4046FFF72C
:103AA00043FE00B1641E31464046FFF70FFF40461B
:103AB000FFF73AFE00B1641E39464046FFF706FFA5
:103AC0004046FFF731FE00B1641E4046FFF781FF1C
:103AD0002046BDE8F08110B5012002F0F5FB00BFE3
:103AE000612002F0D3FB0028FAD045F2555000F0D7
:103AF00029F8042000F01AF84FF47A6000F01CF85E
:103B000000F00CF800F002F810BD00004CF6CC40BC
:103B10000149086070470000003000404AF6AA20C2
:103B200001490860704700000030004001494860CA
:103B30007047000000300040014988607047000075
:103B4000003000400149086070470000003000402C
:103B500010B50948007838B90120074908700221DA
:103B60000648FFF753FA06E00020034908700221D7
:103B70000248FFF74DFA10BDAC00002000180140CC
:103B800008B50121402002F007FB0F20ADF800002E
:103B900010208DF8030002208DF8020069460A48C3
:103BA000FFF7A0F901210848FFF732FA0221064881
:103BB000FFF72EFA04210448FFF72AFA08210248E9
:103BC000FFF726FA08BD00000018014010B50221D9
:103BD0000148FFF71DFA10BD0018014010B5022181
:103BE0000148FFF713FA10BD0018014008B5002482
:103BF00000BFFFF7C5FF24E0601CC4B21148C068D5
:103C000028B9062C16DD0024FFF7A2FF12E00D48AC
:103C1000C068012802D1FFF7E1FF0BE00948C06846
:103C2000022805D1022C05DB0024FFF791FF01E0FB
:103C3000FFF7CCFFFFF772FF6A4600210A2000F071
:103C40008BFFD9E74409002010B54FF480410248AA
:103C5000FFF7DEF910BD00000018014010B54FF469
:103C600080410248FFF7D2F910BD00000018014062
:103C700008B5002000F0A0F8012000F09DF802F047
:103C800001FA83E0424A4349002000F0B7F80028D7
:103C90003AD13F48007840490988884202D03C48E0
:103CA0000078D0B900203D4908803D490880394856
:103CB00002883C49364802F089F8394908800846AC
:103CC0000088002836DD3248007898B3354A084627
:103CD0000188002000F0EAF82CE0304801880088D4
:103CE000401C2E4A108047F23050814222DBFFF701
:103CF000ABFF6A460021642000F02EFFFFF7AEFF05
:103D000000202649088015E0244801880088401CCE
:103D1000224A108047F2305081420BDBFFF794FFBC
:103D20006A460021642000F017FFFFF797FF00208C
:103D30001A4908801C4A1D49012000F05FF800BBA9
:103D40001948007814490988884202D0164800783A
:103D5000B8B900201649088014480288154912484D
:103D600002F034F81249088008460088002808DD6F
:103D70000D48007828B10F4A08460188012000F05C
:103D800095F86A460021012000F0E6FE7AE700007F
:103D9000C827002088000020440900208C00002053
:103DA0008400002070250020F42800208A000020D4
:103DB000860000209C26002010B5044614B1012C7A
:103DC00010D109E002F0C8FD084809490860094817
:103DD0000968C1F8600206E002F076FE0648044970
:103DE000486000E000BF00BF10BD0000102C0020A4
:103DF000B0000020CD2A0008742E00202DE9F041EB
:103E000004460E469046284850F824000079AB2816
:103E100042D1254850F824004179234850F8240025
:103E20004079401C204A52F824205071062938DB82
:103E300056201D4951F82410087100201A4951F8E4
:103E400024104871184850F8240000883080002061
:103E5000154951F8241008803188134A52F824205B
:103E6000901DFEF739FC0746DFB900250EE00E482D
:103E700050F82400801D405D08F80500FF210A4825
:103E800050F82400801D4155681C85B23088A84236
:103E9000EDDC0020BDE8F0810020034951F824103A
:103EA00048714FF0FF30F5E7B00000202DE9F047F2
:103EB00005460E46904615B1012D7CD14CE04FF4DD
:103EC00000615848FFF7A4F8002406E000BF00BFD7
:103ED00000BF00BF00BF601C84B24CF2503084426F
:103EE000F4DB002406E000BF00BF00BF00BF00BF3E
:103EF000601C84B24CF250308442F4DB002409E0B0
:103F000018F80410484850F8250000F5997001553C
:103F1000601C84B2B442F3DB434951F8251001F52B
:103F200099703146FEF7D8FB07463F4850F8250008
:103F300000F5997087553A0A3B4850F8250000F57E
:103F40009970711C4254B21C90B2374A52F8252025
:103F5000D2F86012884762E0002406E000BF00BF8C
:103F600000BF00BF00BF601C84B24CF250308442DE
:103F7000F4DB002406E000BF00BF00BF00BF00BFAD
:103F8000601C84B24CF250308442F4DB002409E01F
:103F900018F80410244850F8250000F599700155D0
:103FA000601C84B2B442F3DB1F4951F8251001F5BF
:103FB0009970314600E031E0FEF78EFB07461A4863
:103FC00050F8250000F5997087553A0A164850F8C0
:103FD000250000F59970711C425400241AE0124823
:103FE00050F8250000F59970015D104802F070FF4F
:103FF0004FF0000908E000BF00BF00BF00BF00BFD6
:1040000009F101001FFA80F941F288308145F2DBA5
:10401000601C84B2B01C8442E1DB00E000BF00BF42
:10402000BDE8F08700080140B000002000500040CB
:1040300008B54FF4A06000F075F81D208DF8000061
:1040400000208DF8010001208DF802008DF803009A
:10405000684600F02FF80B208DF8000000208DF846
:10406000010002208DF8020001208DF8030068464F
:1040700000F020F825208DF8000001208DF80100C7
:1040800000208DF8020001208DF80300684600F042
:1040900011F835208DF8000001208DF80100002076
:1040A0008DF8020001208DF80300684600F002F848
:1040B00008BD000070B5002100230F22C47804B3AE
:1040C000154C246804F4E064C4F5E064210AC1F1ED
:1040D0000403CA40447804FA03F18478144021436D
:1040E00009010E4C0678A155047804F01F0501243F
:1040F000AC4005786D11AD0005F1E025C5F8004133
:1041000009E0047804F01F050124AC40044D067852
:10411000761145F8264070BD0CED00E000E400E0AB
:1041200080E100E002490143024A1160704700004B
:104130000000FA050CED00E07047000010B50348E0
:10414000006810B101480068804710BD10000020D1
:1041500070B5044600F088F800202E4908702E49FA
:1041600008702E4908702E4908602E4908602E49B3
:1041700008702E4908702E4908702E4908602E4993
:1041800008602E4908602E48006858B12D4805681F
:1041900045B12B48066803E0761E002028602D1DDF
:1041A000002EF9D1002028490860284908602849D4
:1041B000086028490860284908602849086028499B
:1041C00008602849087000F009FF00F037FF20461A
:1041D00000F072FD208800B170BD204600F0D0FFD5
:1041E000208800B1F8E7204600F0E8FF208800B101
:1041F000F2E7204600F086FD208800B1ECE720467B
:1042000001F0BEFA208800B1E6E7FFF795FF00BF96
:10421000E2E70000240000202C00002040000020E5
:104220005C000020600000203000002031000020F1
:104230003200002034000020380000203C00002024
:10424000307F00082C7F00080400002008000020B8
:104250000C00002010000020140000201800002096
:104260001C0000204A000020064800680649096832
:1042700000EB8100054908600846006820F007004F
:10428000086070472C7F0008307F00086400002021
:1042900010B500242C480078012800D010BD00BFC4
:1042A000FDF798FF044600BF2848007828B900BFF2
:1042B0002046FDF793FF00BFF0E724480078401E3A
:1042C0002249087008460078002805DD00BF204616
:1042D000FDF784FF00BFE1E71D480078002805DDF9
:1042E00000BF2046FDF77AFF00BFD7E700F062FE6F
:1042F000184908700846007800EB4000164951F84C
:104300002000164908600846006815490968884277
:1043100005D100BF2046FDF761FF00BFBEE70F4893
:104320000068C06C401C0D490968C8640D480068ED
:10433000401C0C490860FDF7D7FF00BF2046FDF781
:104340004DFF00BF00BFA9E72C0000202400002083
:1043500040000020310000205407002060000020B1
:104360005C0000204400002010B500241E480078A6
:10437000002800DD10BD1D480078002800DDF9E7A9
:1043800000BFFDF727FF044600BF00F013FE1849E9
:1043900008700846007800EB4000164951F82000EC
:1043A000154908600846006814490968884205D123
:1043B00000BF2046FDF712FF00BFDBE70E48006894
:1043C000C06C401C0C490968C8640D480068401C5A
:1043D0000B490860FDF783FF00BF2046FDF7FEFE96
:1043E00000BF00BFC6E700002400002040000020FE
:1043F0003100002054070020600000205C000020F5
:104400004400002070B5044600251A4800780028B2
:1044100003DD46F66250208070BD17480078012801
:1044200003D045F689602080F6E714480078FA2822
:1044300003DB45F209202080EEE700BF00BFFDF757
:10444000C9FE054600BFFEF7FDF800BF0B48007827
:10445000401C0A49087000F085FE00BFFEF70CF909
:1044600000BF2846FDF7BAFE00BF00BF0020208035
:1044700000BFD1E7240000202C00002040000020D5
:1044800010B5044612480078E8B900F093FD1149D0
:10449000087008460078104908700E48007800EB54
:1044A00040000E4951F820000D4908600846006898
:1044B0000C490860012006490870FDF7FFFE43F62D
:1044C0009920208002E045F68A60208010BD00001F
:1044D0002C00002031000020300000205407002074
:1044E000600000205C0000202DE9FF4F85B00446ED
:1044F0009346DDE91985159F139E002002905648CA
:104500000078002805DD47F24A10288009B0BDE890
:10451000F08F1CB947F2AD102880F7E7BBF1000F10
:1045200003D147F24F102880F0E71EB946F62F60FE
:104530002880EBE749480068874203D246F630609E
:104540002880E3E71498B84203D346F63160288008
:10455000DCE71298202803D346F273202880D5E7A1
:1045600012981F2806D13E48844203D046F2732099
:104570002880CBE7204600F02DFE0020288008F0A0
:10458000010088B108F0020070B1B246002004902A
:1045900007E00020CAF800000AF1040A0498401C51
:1045A00004900498B842F4D3149806EB800003906A
:1045B000CDE9007832465846039B089900F022FA6C
:1045C0008246129884F82300C4F800A0189860600E
:1045D000A4F824804FF0000908E0002104F138001D
:1045E00040F8291009F1010000F0FF09B9F1000FAE
:1045F000F3D0204600F03AF800BF00BFFDF7EAFD17
:10460000029000BFFEF71EF800BF94F8230000F0F0
:10461000F1FC204600F05AFD12480088401C114968
:10462000088011480078012809D000BFFEF724F85F
:1046300000BF0298FDF7D2FD00BF00BF66E700BFD4
:10464000FEF71AF800BF0298FDF7C8FD00BF00BFD3
:10465000FFF78AFE00BF59E7240000205C7F0008B6
:10466000E4060020480000202C00002010B504467D
:104670000348006818B1204601490968884710BD01
:104680000400002070B504460D460026444800781A
:10469000002803DD47F24E10288070BD4148844257
:1046A00003D147F24C102880F7E79CB900BF00BF48
:1046B000FDF790FD064600BFFDF7C4FF00BF3A4876
:1046C000046800BFFDF7D8FF00BF3046FDF786FD48
:1046D00000BF00BF00BF00BFFDF77CFD064600BF66
:1046E000FDF7B0FF00BF94F8220008282DD2DFE8C4
:1046F00000F004090E10080A0F11204600F004FD16
:1047000030E02FE000BF204600F038FF2AE000BF75
:1047100000BF00BF94F82000082810D2DFE800F0A6
:1047200004070508090A0B0600BF00BF08E000BF28
:1047300000BF00BF00BF204600F090FB00E000BFBC
:1047400000BF204600F01AFF0CE000BFFDF794FF09
:1047500000BF3046FDF742FD00BF00BF46F62D60AA
:1047600028809AE700BF204600F022F80F48008812
:10477000401E0E490880204600F02CFDFF2084F8E2
:10478000220000BFFDF778FF00BF3046FDF726FD91
:1047900000BF00BF00202880FFF7E6FD00BF7CE7D8
:1047A00024000020E40600205C00002048000020D7
:1047B00010B504460348006818B12046014909684D
:1047C000884710BD0800002010B504460348006863
:1047D00018B1204601490968884710BD0C00002027
:1047E0002DE9F04780460E4614461D464FF000095D
:1047F00071480078002805DD46F2AE1028800020C0
:10480000BDE8F0871EB1B6F5004F02D100E000BF51
:1048100004E045F6256028800020F1E700BF0CB1D8
:104820000020206000BF00BFFDF7D4FC814600BF20
:10483000FDF708FF00BF61480068C06A90B35F4899
:104840000068C06A401E5D490968C8625B4800682C
:10485000C76A1CB159480068806A2060FDF736FFBE
:1048600056490968896A401A5449096808665348D4
:104870000068406E51490968096E884205D24F4868
:104880000068006E4D490968486600BFFDF7F4FEF8
:1048900000BF4846FDF7A2FC00BF00BF00202880F3
:1048A0003846ADE7FFE706F4004068B100BFFDF70A
:1048B000E3FE00BF4846FDF791FC00BF00BF46F293
:1048C000B010288000209BE73D48007800280DDDCF
:1048D00000BFFDF7D1FE00BF4846FDF77FFC00BFDB
:1048E00000BF46F663502880002089E74346072230
:1048F0000021084600F03EFA00BFFDF7BDFE00BFF4
:104900004846FDF76BFC00BF00BFFFF72DFD00BF61
:1049100000BFFDF75FFC814600BFFDF793FE00BFBF
:104920002648006890F8210020B1012821D00328F2
:104930002FD127E0D4B121480068806A2060FDF7BC
:10494000C5FE1E490968896A401A1C49096808663B
:104950001A480068406E19490968096E884205D2F4
:1049600016480068006E15490968486600202880CE
:1049700013E01CB111480068806A206046F2A9105B
:1049800028800AE00CB10020206047F2D92028805E
:1049900003E046F62E60288000BF00BF074800688D
:1049A000C76A00BFFDF768FE00BF4846FDF716FC6A
:1049B00000BF00BF384623E7240000205C00002031
:1049C000400000202DE9F04106460D4614461DB179
:1049D000B5F5004F02D100E000BF05E045F62560C7
:1049E00020800020BDE8F08100BFFDF76FFE80460B
:1049F000234642462946304600F030FC07463846FA
:104A0000F0E70000F0B50446DDE9055602EB85004D
:104A100020F007004FF0807C071F3846C7F800C021
:104A2000071F38463C60DFF89CC0071F3846C7F8B0
:104A300000C04FF0123C071F3846C7F800C04FF0C7
:104A4000033C071F3846C7F800C04FF0023C071F61
:104A50003846C7F800C0071F38463B60071F384676
:104A600039604FF0113C071F3846C7F800C04FF0BF
:104A7000103C071F3846C7F800C04FF0093C071F1D
:104A80003846C7F800C04FF0083C071F3846C7F843
:104A900000C04FF0073C071F3846C7F800C04FF072
:104AA000063C071F3846C7F800C04FF0053C071FFB
:104AB0003846C7F800C04FF0043C071F3846C7F817
:104AC00000C0F0BD4552000870B51F48006810B125
:104AD0001D4800688047FDF7F9FD04461B48006843
:104AE0001B490968884210D018480068406D201A98
:104AF00016490968086515480068806D13490968FA
:104B0000096D0844114909688865114800684465C1
:104B1000FDF782FD05460D480068806EA84202D26E
:104B20000A480068856609480068C06E0949096836
:104B3000884204D20748006804490968C866002012
:104B40000449086070BD0000180000205C000020CF
:104B5000600000203C0000202DE9F04105460E4693
:104B6000144600272A480078002804DD47F2752003
:104B70002080BDE8F08127480078002803DD46F654
:104B800063502080F5E736B1022E05D0042E0AD0FE
:104B9000082E09D101E000BF00BF1DB947F27E20F9
:104BA0002080E6E704E003E045F625602080E0E7AA
:104BB00000BF00BF00BFFDF70DFB074600BFFDF7BC
:104BC00041FD00BF2346324629461348006800F0E5
:104BD00077FC208848B100BFFDF74EFD00BF384686
:104BE000FDF7FCFA00BF00BFC3E70B48006800F008
:104BF0008BFA00BFFDF740FD00BF3846FDF7EEFA27
:104C000000BF00BFFFF7B0FB0020208000BFB0E76F
:104C100024000020400000205C00002008B500F0C7
:104C200009F86A4600210248FFF7CCFE08BD0000E3
:104C3000D408002010B50348006810B1014800688E
:104C4000804710BD1C00002010B5002400BF00BF2D
:104C5000FDF7C0FA044600BFFDF7F4FC00BF0948A9
:104C60000078401C0749087000BFFDF705FD00BF34
:104C70002046FDF7B3FA00BF00BFFFF7CFFFFFF7F5
:104C800007FB10BD2400002001464A1E4FF0E02320
:104C90005A61084A106820F07F4000BF10601A4631
:104CA000126942F005021A611A46126942F00202C4
:104CB0001A61704720ED00E00021024A1180018056
:104CC000704700002E000020002418E000BF00BF45
:104CD000FDF780FA044600BFFDF7B4FC00BF0848AA
:104CE0000068401C0649086000BFFDF7C5FC00BF16
:104CF0002046FDF773FA00BF00BFFFF71FFAE5E794
:104D00002000002010B58AB0044600200E4908603B
:104D10000B2000210591CDE90704069108460B49B7
:104D200009680B4A12680B4B1B68CDE90132CDE9CB
:104D300003101F200023084A08A100900C48FFF729
:104D4000D3FB0AB010BD000020000020087F00083F
:104D5000047F0008007F0008C94C000875432F4FEE
:104D6000532D4949492049646C65205461736B0097
:104D7000E40600202DE9F04105460C4616461F4684
:104D80001248006880F8206000201049096881F806
:104D9000210039460D48006800F0FAF96CB104F1C1
:104DA0000408EC60012229460848006800F010F869
:104DB0002946404600F01FF806E000200349096834
:104DC000C88402490968C861BDE8F0815C00002020
:104DD00010B5C284C16100230AE000244C600C605D
:104DE0000C614C610C83CC61886020315C1CA3B2E7
:104DF0009342F2DB10BDF0B58E6896F82350078918
:104E00003FB90127078100274F600F6001604160B3
:104E100023E007897F1C0781026806E0946894F804
:104E20002370AF4200DD02E05268002AF6D100BFD5
:104E300032B900274F6043680B60596041600CE055
:104E400017682FB9116000270F604A60016004E005
:104E500013680B604A6059601160F0BD2DE9F041A4
:104E60000446E569E68C0AE0D5F80C8008F10407F1
:104E70002946384600F00AF82035701E86B2002E0A
:104E8000F2DC0020E084E061BDE8F08110B5048927
:104E9000012C03D100240460446011E00C6824B9A3
:104EA0004A680024146002600AE04C6824B90B6868
:104EB00000245C60436003E00B684A685A6013603A
:104EC0000489641E048100244C600C6010BD2DE92F
:104ED000F84306460C4617469846089D94F822006B
:104EE00008284DD2DFE800F00405080906072B2C3E
:104EF00000BF00BF00BF44E000BF94F820000328BB
:104F000007D143463A4621463046009500F03CF82A
:104F100000E0A56216B12046FFF7A0FF94F822003A
:104F2000032802D1204600F029FB204600F098F823
:104F300000202034A070607004F8200921E000BF38
:104F400094F82000032807D143463A4621463046CC
:104F5000009500F019F800E0A56216B12046FFF7B1
:104F60007DFF94F82200072802D1204600F006FBBE
:104F700004202034A0700020607004F8200900E0B4
:104F800000BF00BFBDE8F883F0B50446059EC869C0
:104F9000CD8C0AE0C768A74204D104614261038353
:104FA000C66104E020306F1EBDB2002DF2DC00BFF0
:104FB000F0BD000070B50025074C03E005F12000AE
:104FC000C5B2241D20680028F8D02068FDF70DF92F
:104FD0002844C5B2284670BD00000020002004E02F
:104FE0000021034A42F82010401C0028F8D07047E6
:104FF0000000002030B5420900F01F030121C3F179
:105000001F04A140034C54F822400C43014D45F8C5
:10501000224030BD0000002030B5420900F01F03DF
:105020000121C3F11F04A140034C54F822408C43DA
:10503000014D45F8224030BD0000002000210AE06B
:1050400001EB4102054B03EB82000022028102606A
:1050500042604A1CD1B22029F2D370475407002085
:1050600010B5044694F82300FFF7C4FF94F823001A
:1050700005490978884203D1204600F027F802E06C
:10508000204600F003F810BD3000002010B590F865
:10509000233003EB43030C4C04EB83010B893BB936
:1050A00001230B8100238360C3600860486009E02E
:1050B0000B895B1C0B810B6883600023C3600A684B
:1050C000D060086010BD00005407002010B590F8B3
:1050D000233003EB43030B4C04EB83010B893BB9F7
:1050E00001230B8100238360C3600860486008E0EF
:1050F0000B895B1C0B81002383604A68C26090604F
:10510000486010BD540700202DE9F041054695F890
:10511000230000EB4000124901EB8004EF68AE6809
:1051200087B946B9002020812060606095F823008F
:10513000FFF772FF0EE02089401E20810020F06002
:10514000266007E02089401E2081BE600EB967609E
:1051500000E0F7600020E860A860BDE8F081000092
:105160005407002010B504480078012803D1FDF74A
:10517000ADFA0249086010BD400000203400002054
:105180000021024A11800180704700004200002087
:1051900070B504460D4645B12A462146064800F042
:1051A00055F9032084F8220002E0022084F822004E
:1051B0002046FFF7A9FF70BD580000200021034AD8
:1051C0001180034A116001807047000048000020F0
:1051D0004400002070B50446002121606160A16098
:1051E000E16021616161A161E161E184A162E1634A
:1051F000A4F844102164002506E0002204F13801DF
:1052000041F82520691CCDB2002DF6D000212034B4
:10521000E1602164616484F82610A18021616161EC
:1052200021856185E1622163FDF750FA6063002109
:10523000A163A164E16421706170A1702021E1701B
:10524000203C70BD08B504480068FFF7BDFA694608
:105250000020FFF717FA08BD5C0000202DE9F84395
:105260000446884617461D464FF0000900BF00BFA0
:10527000FCF7B0FF814600BFFDF7E4F900BF0CB9B1
:1052800071480468A7620020288094F8220008284A
:1052900078D2DFE800F00405585906075A5B00BFD2
:1052A00000BF00BF0420012804D0022815D0042824
:1052B00039D126E0E06AFF280ED100BFFDF7DCF906
:1052C00000BF4846FCF78AFF00BF00BF46F6C55046
:1052D00028800020BDE8F88326E04FF6FF71E06AE1
:1052E00088420DD100BFFDF7C7F900BF4846FCF763
:1052F00075FF00BF00BF46F6C55028800020E9E7D3
:1053000012E0E06A401C68B900BFFDF7B5F900BFC4
:105310004846FCF763FF00BF00BF46F6C550288033
:105320000020D7E700E000BF00BFE06A401CE06259
:10533000E66A00BFFDF7A0F900BF4846FCF74EFF44
:1053400000BF00BF7DE000BF00BF00BF94F8200099
:10535000072818D100231A46214618460097FFF760
:10536000B6FDE66A00BFFDF787F900BF4846FCF7C7
:1053700035FF00BF00BF08F40040002852D1FEF7FF
:10538000F3FF4FE04FE00420012804D0022814D09E
:10539000042838D125E0E06AFF280DD100BFFDF7D1
:1053A0006BF900BF4846FCF719FF00BF00BF46F687
:1053B000C550288000208DE726E04FF6FF71E06A97
:1053C00088420DD100BFFDF757F900BF4846FCF7F2
:1053D00005FF00BF00BF46F6C5502880002079E7D2
:1053E00012E0E06A401C68B900BFFDF745F900BF54
:1053F0004846FCF7F3FE00BF00BF46F6C5502880C4
:10540000002067E700E000BF00BFE06A401CE062E8
:10541000E66A00BFFDF730F900BF4846FCF7DEFE44
:1054200000BF00BF0DE000BFFDF726F900BF4846F2
:10543000FCF7D4FE00BF00BF46F62D602880002692
:1054400000BF00BF304645E75C00002070B5034652
:1054500015461E6836B90D6300260E614E618B61DC
:1054600019602AE01C6818682A461EE0066B9642FE
:1054700017D3466956B90A6300264E6108618B61ED
:10548000066BB61A06634161196009E044690A6354
:105490004C6108618B61066BB61A0663416121613C
:1054A00070BD066B921B044600690028DED10A63BA
:1054B0004C6100260E618B61216100BFF0E70000A6
:1054C0002DE9F04104460D4690461F46B8F1040F01
:1054D0000ED1284800682E1A16F5803F01D8002EFC
:1054E0003CD10020206347F27E203880BDE8F08167
:1054F000B8F1080F29D11F49606B0968081AA84242
:1055000005D92E461B4800682844606326E01949E7
:10551000606B0968081A2E1A16F5803F00D886B904
:105520001449606B0968081AB0FBF5F005FB0050E0
:10553000616B084460630020206347F27E2038805E
:10554000D4E7606B2844606308E00DB12E4605E0A7
:105550000020206347F27E203880C7E7012084F8CE
:105560002200324621460448FFF770FF00203880B1
:1055700000BFBBE74C0000205400002030B5836919
:10558000426901698AB921B900241C6004638461FD
:1055900017E000244C610C6B056B2C440C63196004
:1055A00000240461046384610BE0116121B14A614C
:1055B0000C6B056B2C440C63002444610461046390
:1055C000846130BD2DE9F0414FF0000800BF00BFFD
:1055D000FCF700FE804600BFFDF734F800BFFDF782
:1055E00075F80646194D2C6804B3206B401E2063E5
:1055F00018E094F82200012806D1002084F8220047
:105600002046FFF72DFD06E094F82200052802D180
:10561000042084F82200206928602C6804B904E082
:1056200000206061206B0028E3D000BFFDF74EF83A
:10563000871B00BFFDF720F800BF4046FCF7CEFDFA
:1056400000BF00BF3846BDE8F081000054000020D4
:105650002DE9F0414FF0000800BF00BFFCF7BAFD94
:10566000804600BFFCF7EEFF00BFFDF72FF80646AF
:10567000244D2C68002C36D0206B401E20632EE079
:1056800094F82200032811D1FDF720F8A0622046EB
:10569000FFF7E4FB2046FFF7E3FC00202034A07076
:1056A00003206070002004F8200911E094F8220023
:1056B00007280DD1FDF70AF8A0622046FFF7CEFBC0
:1056C00004202034A07003206070002004F820091A
:1056D000206928602C6804B904E000206061206B18
:1056E0000028CDD000BFFCF7F1FF871B00BFFCF7FF
:1056F000C3FF00BF4046FCF771FD00BF00BF384646
:10570000BDE8F081580000201CB5002730E001AB57
:105710006A4600210846FFF763F8BDF8040038BB6D
:1057200014480078012823D100BF00BFFCF752FDC8
:10573000074600BFFCF786FF00BF0F480068401C0B
:105740000D49086000BFFCF797FF00BF3846FCF723
:1057500045FD00BF00BFFFF735FF0646FFF778FFA6
:105760000546741905480068A04201D20348046048
:10577000CDE700002C0000204C000020500000204D
:1057800010B58AB0044600201D4908601D49086014
:105790001D4908601D48006820B947F2122020808A
:1057A0000AB010BD1A4800681A490968884203D235
:1057B00047F213202080F3E7174800781F2803D30F
:1057C00047F211202080EBE70B20002105910A46CB
:1057D000CDE9070406910E480068104909680B4B93
:1057E0001B68CDE90131CDE903020B4800780023A5
:1057F0000B4A0CA100901048FEF776FE00BFCFE7E1
:105800004C0000205400002058000020687F000851
:10581000707F00085C7F0008647F00086C7F0008D0
:105820000957000875432F4F532D494949205469A2
:10583000636B205461736B00D408002010B54FF4E3
:1058400080710248FDF7E2FB10BD00000008014036
:1058500008B50121042000F09FFC4FF48070ADF8E2
:10586000000010208DF8030003208DF80200694627
:105870000448FDF737FB4FF480710248FDF7C6FB83
:1058800008BD00000008014001490862704700009F
:1058900000000E420349096841EA8001014A116093
:1058A000704700000070004010B5024600200C4B0D
:1058B000186820F00300104318600A4B1B6843F07F
:1058C0000403084C2360012901D130BF00E020BF50
:1058D000044B1B6823F00403024C236010BD00003E
:1058E0000070004010ED00E001460020034A5268BD
:1058F0000A400AB1012000E000207047007000401B
:1059000010B5FDF75BF8FDF7B5FA10BD08B500BF9F
:10591000002401214C4800F02DFF08B1FFF7F0FFF3
:1059200091E0494890F8BC0100F0010058B14648A8
:10593000D0F8BC0120F001004349C1F8BC010121AD
:10594000414801F0C9FA4048C068012805D1FDF777
:105950008DF902213C48C16070E03B48C0680228D4
:105960003AD13948406B401C374948630846406B80
:1059700040F6B831884203D300213348C1605DE06E
:10598000314890F8BC01C0F38000002856D000BF19
:1059900000BFFCF71FFC044600BFFCF753FE00BF2E
:1059A0002948D0F8BC0120F004002749C1F8BC0107
:1059B0000846018F3A3001F0DDFA2348008F401C81
:1059C00081B22148018700BFFCF756FE00BF204688
:1059D000FCF704FC00BF31E01B48C06803282AD153
:1059E00000211948C1600146098F0D0205EBD571F0
:1059F000491001F10A0001F09DFA00BF00BF00BF8D
:105A000000BF00BFBFF34F8F00BF00BF00BF0F48F4
:105A1000006800F4E0600E490843001D0B4908606F
:105A200000BF00BF00BFBFF34F8F00BF00BF00BF6C
:105A300000BF00BFFDE700210348C1606A460021A6
:105A40000120FFF789F86CE7440900200CED00E025
:105A50000000FA0510B5FCF75FFDFFF7F9FE0748F7
:105A6000D0F8B80120F0005000F100500349C1F80F
:105A7000B80103490148C0F8981110BD440900203D
:105A80000000C84108B500BFFFF7E4FF06E000F0E2
:105A900007F86A4600210A20FFF75EF8F7E70000E2
:105AA0002DE9F047FDF792FBBB48007801282BD188
:105AB000BA48007800F0010020B9B8480078C0F377
:105AC000C00008B3B64890F8A00120F00100401CC7
:105AD000B34981F8A001084690F8A00120F0080120
:105AE000AF4880F8A01190F8A00120F00401AC4864
:105AF00080F8A01190F8A00120F00201A84880F8D9
:105B0000A011FCF7C3FE3DE0A54890F8A00120F0ED
:105B10000101A34880F8A011A04800788108A0489E
:105B200090F8A00161F382009D4981F8A0019B4893
:105B3000007841089A4890F8A00161F34100984923
:105B400081F8A0019548007800F0010020B9934841
:105B50000078C0F3C00058B1914890F8A00120F03F
:105B6000080008308E4981F8A001FCF78FFE09E09B
:105B70008B4890F8A00120F00801894880F8A01116
:105B8000FCF78CFE854800784109854890F8A00113
:105B900061F34510824981F8A001804800788109AD
:105BA0007F4890F8A00161F386107D4981F8A0013B
:105BB0007A48007801097A4890F8A00161F304104E
:105BC000774981F8A001084690F8A001C0F3401081
:105BD00078B9D1F890014FF07C5101F0DFFF08D87F
:105BE0006F4890F8A00120F0200020306C4981F827
:105BF000A0016B4890F8A001C0F3401058B9684864
:105C000090F8A001C0F3801028B9654890F8A00171
:105C1000C0F3001010B1FCF755FC01E0FCF74AFCA2
:105C20005F49D1F89C0101F0F5FD21F000410446E7
:105C300000225C4B01F0CEFC40D200205A49087093
:105C40005A4908705649D1F89C0101F0E3FD21F052
:105C5000004104464FF08042554B01F0BBFC0FD28F
:105C6000544801880088401C524A108064290ADB8D
:105C70000020114608804FF416704F49088002E05A
:105C800000204C4908804C4801880088401C4A4A42
:105C90001080B1F5167F7CDB0020FCF73DFD002075
:105CA000454908803E48D0F8B801C0F3407010B1B3
:105CB000FFF7C4FD6DE0FCF777FE6AE000203E4987
:105CC00008803749D1F89C0101F0A4FD21F0004182
:105CD00004464FF02042394B01F042FB0FD23049CD
:105CE000D1F88C0101F096FD21F0004104464FF0FF
:105CF0008042334B01F034FB01D2FFF79FFD2A486D
:105D000001780078401C284A1070322941DB104687
:105D1000007850283DDB5020114608702049D1F80A
:105D20008C0101F077FD21F0004106464FF0204242
:105D3000244B01F061FA04460D461949D1F89C0143
:105D400001F068FD21F00041804622462B4601F01B
:105D500041FC05D2002015490870FCF7DDFC18E075
:105D600012480078401C1149087008460078142831
:105D70000FDB002008700A49D1F88401124902F0B3
:105D80000DF803D80120FCF7C7FC02E00020FCF767
:105D9000C3FCBDE8F08700009900002098000020B7
:105DA0004409002000001840A6000020A5000020A3
:105DB00033331B40AA000020A80000209999B93F66
:105DC0003333D33F9999C93F0000F0412DE9F84F93
:105DD00004460F4693466078642871D006DC032899
:105DE00009D0062863D010286BD163E0652869D0FC
:105DF0006628F9D117E1A6784FF6FF7000EA06266B
:105E0000E078064394F804A04FF6FF7000EA0A2AEF
:105E1000607940EA0A0A06EB0A00401E1FFA80F980
:105E200049F64040814509DAB9F1710F06DB4FF0C0
:105E30007109A9EB0600401C1FFA80FA8F48007810
:105E40003870032078704FEA4A60000EB870712EE7
:105E50002ADCB9F1710F27DC35461FE000200090E5
:105E60008748006850F82500B0B18548006850F8B0
:105E70002520694600209047BDF80000010AA81BB4
:105E8000032202EB40003954BDF80000C1B2A81B48
:105E9000042202EB40003954681C85B24D45DDDD1B
:105EA000B87800F1030801E04FF00008E2E04FF09D
:105EB0000008DFE0BBF1080F05DC4FF00008D9E077
:105EC00058E0D4E07AE0A6784FF6FF7000EA0626A4
:105ED000E078064394F804A04FF6FF7000EA0A2A1F
:105EE000607940EA0A0A06EB0A00401E1FFA80F9B0
:105EF00062480078387010207870A078B870E07828
:105F0000F8702079387160797871712E2FDCB9F1D1
:105F1000710F2CDC354625E00020009058480068C1
:105F200050F82500E0B1A81B072101EB4000205CE0
:105F30000090BDF800004FF6FF7101EA00200090CC
:105F4000A81B082101EB4000205CBDF800100843AD
:105F500000904B48006850F8252069460120904782
:105F6000681C85B24D45D7DD4FF0060801E04FF0C3
:105F700000087FE0A0780090BDF800004FF6FF71A8
:105F800001EA00200090E078BDF80010084300907E
:105F90003A48B0F86A01BDF8001088420BD1374882
:105FA000C06840B901213548C160002033494863C9
:105FB0000021324801874FF000085BE0BBF5837F8A
:105FC0002ED12E48C06802282AD100202B494863D0
:105FD000A0780090BDF800004FF6FF7101EA0020A4
:105FE0000090E078BDF80010084300902348008F2F
:105FF000BDF80010884213D1002506E0281D215C61
:106000001E483A304155681C85B2FF2DF6DD1B480D
:10601000D0F8BC0120F00400001D1849C1F8BC01F3
:106020004FF0000826E0BBF1060F1DD11348C068F1
:10603000022819D1002011494863A0780090BDF8CA
:1060400000004FF6FF7101EA00200090E078BDF8F3
:106050000010084300900948008FBDF800108842E6
:1060600002D103210548C1604FF0000802E04FF063
:10607000000800BF00BF4046BDE8F88F440900207B
:106080009400002010B5FCF77BF9FCF7C3FF014931
:10609000086010BD940000202DE9F04104460D4633
:1060A000002654B90649D1F88C01064901F0AAFD31
:1060B000074601F00BFD06B22E80BDE8F08100001E
:1060C000440900200000C84270B505460C46EDB9F1
:1060D0000F49D1F894010F4901F094FD064601F0F3
:1060E00011FDC0B2208020884FF6FF7101EA002028
:1060F0002080208800F47F4020800549D1F8980155
:1061000001F0E4FCC0B221880843208070BD00008B
:10611000440900200000C84238B900220A800A88D9
:10612000024B93F8A0311A430A80704744090020BB
:1061300070B504460D464CB90549D1F890010549A2
:1061400001F060FD064601F0DDFC288070BD000016
:10615000440900200000204129B1064A5269024347
:10616000044B5A6104E0034A52698243014B5A616D
:10617000704700000010024029B1064AD26902436C
:10618000044BDA6104E0034AD2698243014BDA61CD
:10619000704700000010024029B1064A926902438C
:1061A000044B9A6104E0034A92698243014B9A616D
:1061B000704700000010024030B50021002200248A
:1061C00000232D4D6D6805F00C0121B1042905D087
:1061D000082923D105E0294D056022E0274D0560FF
:1061E0001FE0254D6D6805F47012234D6D6805F4B0
:1061F0008034022505EB92421CB9214D55430560C0
:106200000BE01D4D6D6805F400351DB11C4D554367
:10621000056002E0194D5543056002E0174D056029
:1062200000BF00BF144D6D6805F0F0010909154D60
:106230006B5C0568DD4045600F4D6D6805F4E061FD
:10624000090A104D6B5C4568DD4085600A4D6D683C
:1062500005F46051C90A0B4D6B5C4568DD40C560B3
:10626000054D6D6805F44041890B074D6B5CC568B1
:10627000B5FBF3F5056130BD0010024000127A0055
:1062800000093D00D0000020E000002010B50146CC
:106290000022002300204A11012A02D1094C236860
:1062A00006E0022A02D1074C236A01E0054C636A2A
:1062B00001F01F02012494401C400CB1012000E0B9
:1062C000002010BD00100240014908607047000026
:1062D0008004424201490860704700003C04424289
:1062E0000249096A0143014A1162704700100240E5
:1062F00018B9024AB2F868210A80704744090020A0
:1063000018B9024AB2F86A210A807047440900208D
:1063100070B504460D464CB90549D1F89C010549B4
:1063200001F070FC064601F0D1FB288070BD000032
:10633000440900200000204170B504460D464CB9C8
:106340000549D1F88401054901F05CFC064601F0DD
:10635000D9FB288070BD00004409002000002041C6
:1063600010B5022000F044F880B1022000F012F8CD
:106370004FF40030FCF72AFC0120FFF7B5FA10B10A
:106380000120FFF787FA01200149087010BD0000C5
:1063900090000020024909888143014A118070471A
:1063A00004280040024909888143014A118070474E
:1063B000042800400348008840F01000014908808C
:1063C0007047000004280040034800884FF6EF7132
:1063D0000840014908807047042800400021034814
:1063E0000188001F008841EA004070471C280040D7
:1063F00001460020064A12880A40D0B2044A121F01
:1064000012880A4012B108B1012000E00020704754
:106410000428004029B1064A12880243044B1A801E
:1064200004E0034A12888243014B1A80704700003F
:10643000002800407CB500244FF40030FCF7C6FB78
:1064400000208DF804004FF40030009008208DF8F3
:10645000050001208DF806006846FCF7BDFB012110
:106460004FF0C050FFF788FE0120FFF70DFA00E063
:10647000641C6120FFF70AFF08B9FA2CF8DBFA2C3C
:1064800001DB01207CBD4FF40070FFF729FF0120E4
:10649000FFF720FF00F056F800F05EF80220FFF74B
:1064A00081FF0520FFF77EFF00F04CF8FFF782FF29
:1064B00049F63F4000F036F800F044F8FFF784FF5B
:1064C00000F011F801210220FFF7A4FF00F03AF8D4
:1064D000FFF784FF00F10A05284600F015F800F0E8
:1064E00031F80020CEE708B529208DF80000002003
:1064F0008DF801008DF8020001208DF80300684638
:10650000FDF7D8FD08BD000000B50246FFF752FFB9
:10651000100C03490880091D0A80FFF755FF00BDD4
:106520002028004000B50246FFF744FFC2F30340B5
:1065300003490880091D0A80FFF746FF00BD0000DF
:106540000828004000BF0348008800F02000002811
:10655000F9D0704704280040074800884FF6F771CB
:1065600008400549088000BF0348008800F0080083
:106570000028F9D0704700000428004020B900220C
:106580000A80024A928B0A8070470000440900206A
:1065900018B90C4A12880A8012E0012810D10A8822
:1065A000012A0DDB0A88FF2A0ADA0A78054B1A80CD
:1065B0001A46D2F8BC2122F00102521CC3F8BC21B9
:1065C000704700004409002010B900220A8000E052
:1065D00000BF704718B9054A52890A8005E00128B2
:1065E00003D10B88014AA2F8DA3170474409002030
:1065F0007FB504460D461CB95248008928809FE0AB
:10660000012CFCD129884F48A0F8D81190F8D80166
:10661000FF2801D100F0D0FC4A4890F8D801FE28AC
:1066200078D120214748C0F8D81101210807FFF789
:10663000A3FD01210846FFF7AFFD0A210020FCF76A
:1066400031FC4FF48060029000208DF80C00102087
:106650008DF80D0001208DF80E0002A8FCF7BCFAA1
:1066600028208DF8040002208DF8050003208DF805
:10667000060001208DF8070001A8FDF71BFDFDF7BE
:106680004DFA45F25550FDF75DFA0620FDF74EFA3A
:1066900040F6FF70FDF750FAFDF740FAFFF7CAFE2B
:1066A0004FF0E02000692849088000204FF0E021E9
:1066B000086101210846FFF7F7F86846FDF7A2FEDA
:1066C00026E022480078012822D100201F490870C6
:1066D0001D4800884FF0E021086100F0EBF81C48ED
:1066E000FEF7D2FAFDF71AFA0120FFF7EDFDFFF7EA
:1066F00033FFFFF79FFE4FF0E0200069124908804A
:1067000000204FF0E021086101210846FFF7CCF896
:10671000D7E7FFE70B4890F8D80128280CD10948A3
:10672000007A20280CD10748D0F8D8118160D0F821
:1067300074010449486103E00248D0F8D81181602F
:106740007FBD0000440900208E0000209000002042
:1067500080FC0A0018B9024AB2F8BA210A807047D0
:106760004409002018B9024AB2F8B8210A807047DB
:106770004409002010B502460B460B4800884AF633
:10678000AA24A0420CD1002106E0074800EB4100FA
:10679000408822F81100491C9942F6DB002010BD08
:1067A0004FF0FF30FBE7000000A0070808B500BF6E
:1067B00000F0BAF807E00448FCF74EFF6A460021F3
:1067C0005A20FEF7C9F9F6E76009002010B500F07D
:1067D00001F810BD0CB5002001900090334800680E
:1067E00040F480303149086000BF3048006800F450
:1067F000003000900198401C0190009818B9019851
:10680000B0F5A06FF1D12948006800F4003010B154
:106810000120009001E0002000900098012843D161
:106820002348006840F010002149086008460068CD
:1068300020F0030008600846006840F0020008608D
:106840001A48406819494860084640684860084648
:10685000406840F4806048600846406820F47C103E
:1068600048600846406840F4E81048600846006800
:1068700040F08070086000BF0C48006800F00070B5
:106880000028F9D00948406820F003000749486013
:106890000846406840F00200486000BF0348406876
:1068A00000F00C000828F9D10CBD000000100240D7
:1068B0000020024010B51248006840F00100104965
:1068C0000860084640680F4908400D49486008467E
:1068D00000680D4908400A4908600846006820F42D
:1068E000802008600846406820F4FE0048604FF4AD
:1068F0001F008860FFF76AFF04480549086010BD63
:10690000001002400000FFF8FFFFF6FE0020000824
:1069100008ED00E010B57A23012292210148FDF72D
:10692000ADF810BD5031002010B509480949086183
:10693000402088820820C86005484860802008817F
:10694000082008600846FCF74AFFFFF7E3FF10BD88
:10695000000C01405031002000B591B001214420CD
:10696000FFF71AFC01218803FFF716FC01210846F6
:10697000FFF7F2FB4F4801904F4802901020039020
:106980008020049000200590802006900020079031
:10699000089009904FF480500A9000200B9001A9B4
:1069A0004648FCF7E4F8002202214448FCF7D6F8F8
:1069B00000214248FCF7B0F84FF40070ADF84000F9
:1069C00018208DF8430003208DF8420010A93C48A0
:1069D000FCF788FA4FF48060ADF8400048208DF84D
:1069E000430003208DF8420010A93548FCF77AFADD
:1069F0004FF40060ADF8400010208DF843000220F5
:106A00008DF8420010A92E48FCF76CFA4FF4006193
:106A10002B48FCF7FBFA4FF48040ADF84000102003
:106A20008DF8430002208DF8420010A92548FCF79C
:106A300059FA4FF480412348FCF7E8FA4FF4165016
:106A40000C900020ADF83400ADF83600ADF83800F9
:106A5000ADF83C000C20ADF83A000CA91548001F19
:106A600000F0CAF940F225511248001F00F050F919
:106A7000012240F225510F48001F00F097F940F223
:106A800026610C48001F00F043F9012240F2266104
:106A90000848001F00F08AF9012280210548001FE4
:106AA00000F051F901210348001F00F040F911B036
:106AB00000BD000004380140422D00204400024087
:106AC000000801400018014000B585B001214420B4
:106AD000FFF762FB01213020FFF75EFB0121080573
:106AE000FFF74AFB4FF48050ADF8100018208DF8E6
:106AF000130003208DF8120004A91F48FCF7F2F9D7
:106B00000420ADF8100048208DF8130003208DF804
:106B1000120004A91948FCF7E5F94FF4165000904B
:106B20000020ADF80400ADF80600ADF80800ADF89F
:106B30000C000C20ADF80A006946114800F05CF921
:106B400040F225510E4800F0E3F8012240F22551B1
:106B50000B4800F02BF940F22661094800F0D8F804
:106B6000012240F22661064800F020F90121044884
:106B700000F0DDF805B000BD001001400014014038
:106B80000050004010B540F225512A4800F0E4F8CA
:106B9000B8B340F22551274800F0BAF80020264942
:106BA00049684871AB202449496808712248406807
:106BB0000088B0F5967F11DA1E488088C1B21E4861
:106BC000406802881C4840680088401C1A4B5B687B
:106BD000188019484068801D815429E056201649C4
:106BE0004968087100201449496808801148808864
:106BF000C1B211484068801D0F4A52681288815402
:106C000016E0FFE740F226610A4800F0A5F878B1E7
:106C100040F22661074800F07BF8002006494968E9
:106C20000880054949684871562003494968087138
:106C300010BD000000500040B000002010B540F230
:106C400025512F4800F088F8C8B340F225512C4850
:106C500000F05EF800202B4909684871AB202949F3
:106C600009680871274800680088B0F5967F12DA35
:106C70002348001D0088C1B22248006802882148CC
:106C800000680088401C1F4B1B6818801D48006866
:106C9000801D815433E056201A490968087100208C
:106CA0001849096808801648001D0088C1B21548B7
:106CB0000068801D134A1268128881541FE0FFE7A4
:106CC00040F226610E4800F047F8C0B140F226615C
:106CD0000B4800F01DF800200A490968088009499E
:106CE000096848715620074909680871002106485B
:106CF000FBF712FF4FF400610448FCF787F910BD61
:106D000000380140B000002044000240000801406B
:106D100010B50022002340F66A14A14200D100BF42
:106D20000A1201249440A3B2DC43048010BD21B1B7
:106D3000828942F40052828104E082894DF6FF7319
:106D40001A40828170471AB1838A0B43838202E022
:106D5000838A8B438382704770B5024600240023E8
:106D60000025002040F66A16B14200D100BFC1F3F1
:106D7000421501F01F03012606FA03F3012D02D18B
:106D80009689334006E0022D02D1168A334001E095
:106D9000968A33400C12012606FA04F41688344011
:106DA00013B10CB1012000E0002070BDF0B5034626
:106DB000002400260025002040F66A17B94200D1C1
:106DC00000BF1846C1F3421401F01F06012707FA5D
:106DD00006F5012C01D10C3004E0022C01D1103059
:106DE00000E014301AB107682F43076002E007681B
:106DF000AF430760F0BD00002DE9F04786B00546BF
:106E00000E460024A24600BFA1460027B08900B16B
:106E100000BF2F462C8A4CF6FF700440F0880443D4
:106E20002C82AC894EF6F3100440B08831890843B7
:106E3000718908430443AC81AC8A4FF6FF4004409B
:106E4000B0890443AC8201A8FFF7B6F91F48874216
:106E500002D1DDF810A001E0DDF80CA0A88900F453
:106E6000004040B10AEBCA0000EB0A10316849004B
:106E7000B0FBF1F807E00AEBCA0000EB0A1031683A
:106E80008900B0FBF1F86420B8FBF0F004012009A0
:106E9000642101FB1089A88900F4004040B1322030
:106EA00000EBC900B0FBF1F000F00700044308E07C
:106EB000322000EB09106421B0FBF1F000F00F006C
:106EC00004432C8106B0BDE8F08700000038014083
:106ED000C1F308028280704770B505460E46FBF785
:106EE000A9FF3520FBF7E6FE1148FBF7E9FE00BFDE
:106EF000FBF726FF0128FBD04AF6AA210C48FBF736
:106F000043FF00240EE035F81410094A921C0223B6
:106F100003FB0420FBF738FF00BFFBF711FF01283C
:106F2000FBD0641CB442EEDBFBF724FF70BD000015
:106F300000A0070810B50446FBF77CFF3520FBF7DF
:106F4000B9FE4AF6AA210A48FBF71EFF00BFFBF76D
:106F5000F7FE0128FBD021460548801CFBF734FFD3
:106F600000BFFBF7EDFE0128FBD0FBF703FF10BDD0
:106F700000F0070870B505460E46FBF75BFF3520AD
:106F8000FBF798FE002410E00A4AD31403FB062204
:106F9000022303FB042035F81410FBF7F5FE00BFB5
:106FA000FBF7CEFE0128FBD0641C802CECD3FBF752
:106FB000E1FE70BD00A0020800BF00BF00BFBFF32C
:106FC0004F8F00BF00BF00BF0948006800F4E060B9
:106FD00008490843001D0649086000BF00BF00BF04
:106FE000BFF34F8F00BF00BF00BF00BF00BFFDE772
:106FF0000CED00E00000FA0500B58BB00AA8FDF723
:10700000A7F8FDF715F8FEF77BFCFCF764FD0AA86E
:10701000032100220592CDE90621089010464FF485
:10702000807119223A4BCDE90132CDE903100F20CE
:107030000023384A38A100903B48FDF755FA0AA8CA
:10704000032100220592CDE90621089010464FF455
:1070500080711922354BCDE90132CDE903100620AC
:107060000023334A33A100903548FDF73DFA0AA8C2
:10707000032100220592CDE90621089010464FF425
:10708000807119222F4BCDE90132CDE90310082080
:1070900000232D4A2DA100903048FDF725FA0AA8BB
:1070A000032100220592CDE90621089010464FF4F5
:1070B000007133222A4BCDE90132CDE903100920BA
:1070C0000023284A28A100902B48FDF70DFA0AA8B2
:1070D000032100220592CDE90621089010464FF4C5
:1070E00080711922254BCDE90132CDE90310112021
:1070F0000023234A23A100902448FDF7F5F92448F2
:10710000FDF7C2FD0AA8FDF7BBF900200BB000BDDA
:10711000281B00200D590008506172616D6574656F
:10712000725361766500000078240020280B00204F
:10713000AD67000853616D706C696E6700000000F8
:1071400028230020280F0020855A0008506F7765FB
:10715000724D616E6167656D656E740098230020E5
:1071600028130020713C00084D6F646275734F76E0
:1071700065724C6F5261000008240020281F002017
:10718000ED3B00084C45444957444700E8240020A3
:1071900080FC0A0021F00042A2F16052B2F5801F8B
:1071A00001F0004328BFD2F17F6C0BD95FEA001CCD
:1071B00043EAC20242EB507018BF704728BF20F06C
:1071C00001007047B2F5801FBCBF184670474FEAF8
:1071D000410C1CF5001F02D2084600F0DABD70B564
:1071E00000F0A4F900000089FFF7F6BF4FF000405F
:1071F000A0F580007047000010B591EA030F48BF6A
:1072000083F0004300F12482841A71EB030C05D251
:10721000121943EB0C03001B61EB0C01DFF824E1B6
:107220004FEA1154A4EB135C1EEA430F18BF9EEA09
:10723000445F73D023EA0E03DCF1200E21EA0451EF
:1072400043F4801332D322FA0CFE10EB0E0023FA23
:107250000CFE41EB0E01CCF1200E03FA0EFE10EBFA
:107260000E0051F10001B1F5801FCCF1200E32D299
:1072700001EB045112FA0EF2BDE8104058BF7047FE
:10728000401C38BF5FEA420218BF7047002814BF95
:1072900020F0010041F100014FEA410313F5001F06
:1072A00038BF7047A1F1C04100F08EB9012A43EB0D
:1072B0000302ACF1200CDCF11F0E32BF4FF0000EC8
:1072C00023FA0CF310EB030041EB0451B4EB115F14
:1072D000D0D0A1EB045101F5801149085FEA3000DC
:1072E00001EB04510ED350F1000038BF12FA0EFE2C
:1072F00008D1BDE81040C9E7401C38BF5FEA420230
:10730000CAD1C3E7BDE810404FEA410313F5001F9F
:1073100038BF7047A1F1C04100F056B99EEA445F02
:1073200008D011EA5E0FBDE8104004BF01F0004133
:1073300000207047BDE8104070B500F0F7F800BFBE
:1073400064FBBE3E0000E0FF491058BFC1F1404160
:107350005B1058BFC3F140438B42EFF3008070478E
:1073600051EA030C17D41CF5801F58BFBCF5801FD1
:1073700000F10680994218BF704708BF90427047DD
:1073800007D711F5801F58BF13F5801F19D49942F4
:107390007047894270471CF5801F08D5BCF5801FD7
:1073A000F7D58B4218BF704708BF824270474FF431
:1073B000001C1CEB410F38BF1CEB430F01D28B426A
:1073C000704770B500F0B2F8922449004FF00051B8
:1073D0004FF08053FFF7B8BFDFF848C170B51CEA23
:1073E000111E1EBF1CEA13159EEA0C0F95EA0C0F26
:1073F00000F06F8081EA030423EA4C134EEAD47E46
:1074000021EA4C1141F4801143F48013AE44A1FBF6
:10741000024CA0FB0365AEF17F7E361955EB0C05DF
:10742000A1FB034C4CF10003A0FB021C16EB0C0665
:10743000654153F10003094218BF46F0010613F4F9
:10744000007F0BD14FEA03314FEA0530340341EAA4
:10745000155140EA16506FF003020AE04FEAC321CB
:107460004FEAC520F40241EA555140EA56506FF008
:10747000020202EB2E4201EB025585EACE710AD0E0
:107480005FEA440C18BF24F0004450F1000041F1C1
:10749000000120EAD47040F2FE7C624500D270BD4B
:1074A000A84214BF4FF080444FF04044002E08BF64
:1074B0000024BEF1806FA8BFA1F1C041BDE87040BB
:1074C00080F282804FF0000001F1C04101F00041E4
:1074D00070479EEA0C0F0CEA131518BF95EA0C0FC3
:1074E00006D04FF0000081EA030E0EF0004170BD9F
:1074F00000F01CF88900013E00F007B800F009B860
:107500004FEA430C5FEA5C5C08D081EA030100F0BB
:107510005BB84FEA410C5FEA5C5CF6D14FF00000CB
:10752000014970470000FF070000F87F0EF1020ECE
:107530002EF0030E5EF8046B364205D4012A43EBAD
:10754000030515F5001F12D8012841EB010C1CF5AD
:10755000001F0CD80ED14FEAD17C15F5001F0CEBA3
:107560004C0C0CF1020C08BF4CEBD37C04E04FF048
:10757000080C01E04FEAD37C0CEB4C0526FA05F62B
:1075800006F00706B6F1040C06D20EEB860CBDE839
:1075900070404CF0010C6047DFE80CF0090B020270
:1075A0004FF000414FF00000A1F5002170BD1946D9
:1075B0001046012851EB010418BFD4F5001484BF14
:1075C000002001F0004170BD0808A0F500114FEA4D
:1075D0003101704753EA010C17D41CF5801F58BFC6
:1075E000BCF5801F00F106808B4218BF704708BFB2
:1075F0008242704707D713F5801F58BF11F5801FCF
:1076000019D48B4270479B4270471CF5801F08D5E8
:10761000BCF5801FF7D5994218BF704708BF90424C
:1076200070474FF4001C1CEB430F38BF1CEB410F9D
:1076300001D2994270470FB40CBC03BCFFF7C1BE26
:1076400010B591EA030F48BF83F000433FF5DCAD6E
:10765000841A71EB030C07D212198CF0004C43EB27
:107660000C03001B61EB0C01DFF8A4E14FEA11549D
:10767000A4EB135C1EEA430F18BF9EEA445F00F0C0
:10768000B08023EA6E03524221EA0451C3EB6E0339
:1076900038BF5B1EDCF1200E25D322FA0CFE10EB66
:1076A0000E0043FA0CFE41EB0E01CCF1200E03FA62
:1076B0000EFE10EB0E0051F10001CCF1200E29D48A
:1076C00012FA0EF201EB0451BDE8104058BF7047AA
:1076D000401C1CBFB2F1004F704700280CBF491C72
:1076E00020F00100704712EB020E43EB030218BFBB
:1076F0004FF0010E4EEA4202ACF1200CDCF11E0EFE
:1077000054D943FA0CFE10EB0E0051F1FF31CCF1CD
:107710001E0ED5D50EF1010E12FA0EFE404141EBC0
:10772000010101EB445C5FEA5C5C10D910EBDE7098
:1077300001EB045138BFBEF1004FBDE8104018BF47
:10774000704700280CBF491C20F00100704730D260
:107750004FEAD42C11F5001124F400641BD0B1FAC7
:1077600081F20B3AA41AA41ED2F12003914030FA00
:1077700003F31943904001EBCC71002C01EB045151
:10778000BDE81040A8BF704701F1C0414FF00000B4
:1077900001F000417047B0FA80F310FA03F100D114
:1077A00010BDE41A173C4805C90AE4E701EB04518F
:1077B00010BD491001EB0451BDE810404FEA300004
:1077C00002E04FF0000170474A0008BF0042F8D0C5
:1077D000B2F5001F28BF704701F000414FF00000D4
:1077E00070479EEA445F07D011EA5E0FBDE8104083
:1077F00004BF002100207047BDE8104070B5FFF7BE
:1078000095FE00BF40DFF63E83F000411046704712
:107810000000E0FF43004FEAD30C4FEA3C0C43402A
:107820001FBF40070CF1605113F0FE4F70471CF072
:10783000006F03D100200CF0004170470CF00043B2
:1078400043EA507010B540EACC0000F05CFA00BF8B
:10785000000000924FEA0001FFF7B6BE4FF0004172
:107860004FF00000A1F500217047000090EA010FE1
:1078700048BF81F0004100F1D482421A3CBF801A17
:1078800089184FEAD0524FF07F4C1CEA410FA2EB0F
:10789000D15318BF9CEA026F00F03B804FF0004CC0
:1078A0004CEA00204CEA012121FA03FC10EB0C0CFD
:1078B0001ED202F1FF325FEA1C2040EBC25038BFFB
:1078C00070471CF07F0F4FEA400C18BFBCF17F4F90
:1078D00038BF7047C3F12003994008BF20F0010072
:1078E000BCF17F4F38BF7047A0F1C04000F051BAE3
:1078F0004FEA3C00000A40EBC25028BF1CF0FF0FCB
:107900004FEA400CE6D018BFBCF17F4F38BF70473C
:10791000EAE79CEA026F05D010EA5C0F08BF00F0AE
:107920000040704710B500F0EEF900BF64FBBE3EAA
:10793000401058BFC0F14040491058BFC1F140410C
:107940008142EFF3008070474FF47F0C1CEAD012A5
:107950001EBF1CEAD11392EA0C0F93EA0C0F00F041
:10796000858090EA010F48BF42F4807240F4000C19
:1079700041F400002CF07F4120F07F4000B58142AF
:10798000A2EB03020FF2081CACEB504EC0F100005A
:107990009EF800E04FEA4E0E00FB0EFC38BF490097
:1079A0004FEA2C1C02F5FA020CFB0EF34FEACE1E36
:1079B0004FEA112C4FEAC1210EEB635E42EB2242EB
:1079C0000EFB0CFC4FEA1C5300FB03114FEA112C79
:1079D0004FEA01310EFB0CFC4FEADC4C00FB0C11B2
:1079E000C14228BF09184CEB03335DF804EB10EBE0
:1079F000410143EBC250B2F57C0F38BF704729D527
:107A000012F0F00F1CBF00F1C04000F000407047C2
:107A1000008182838485868788898B8C8D8E8F9167
:107A20009293959697999A9C9D9FA0A2A3A5A7A88B
:107A3000AAACAEB0B2B3B5B7B9BCBEC0C2C5C7C9B7
:107A4000CCCED1D4D7D9DCDFE2E6E9ECF0F3F7FA1B
:107A5000FE0000004FEA400C0CF1807CBCF17E4F30
:107A600028BF7047B0F1C04000F093B990EA010F11
:107A70000CEAD11348BF42F48072624538BF6345B7
:107A800007D213F47F0F16D080EA010000F0004007
:107A9000704710B500F037F9097EFC3E00F005B8DC
:107AA00080EA010000F00040704780EA010000F029
:107AB000004000F06EB912F47F0F04BF0248704717
:107AC00080EA010000F065B90000C07F41000B0EA4
:107AD000D3F19E0208D950F400034FEA032323FA9E
