:020000040800F2
:10200000284D002041220008492200084B220008E8
:102010004D2200084F220008512200080000000055
:102020000000000000000000000000005322000833
:102030005522000800000000332300081570000836
:102040005B2200085B2200085B2200085B2200087C
:102050005B2200085B2200085B2200085B2200086C
:102060005B2200085B2200085B220008E9360008BA
:102070005B2200085B2200085B2200085B2200084C
:102080005B2200085B2200085B2200085B2200083C
:102090005B2200085B2200085B2200085B2200082C
:1020A0005B2200085B2200085B2200085B2200081C
:1020B0005B220008C5A000085B2200085B22000824
:1020C0005B2200085B2200085B2200085B220008FC
:1020D0005B2200085B2200085B2200085B220008EC
:1020E0005B2200085B2200085B2200085B220008DC
:1020F0005B2200085B2200085B2200085B220008CC
:102100005B2200085B2200085B2200085B220008BB
:10211000F1A500085B2200085B2200085B22000892
:102120005B2200085B2200085B2200085B2200089B
:1021300000F002F800F05AF80AA090E8000C82447F
:102140008344AAF10107DA4501D100F04FF8AFF25C
:10215000090EBAE80F0013F0010F18BFFB1A43F085
:1021600001031847E4A2000004A300000A444FF052
:10217000000C10F8013B13F0070408BF10F8014BE6
:102180001D1108BF10F8015B641E05D010F8016B2B
:10219000641E01F8016BF9D113F0080F1EBF10F88F
:1021A000014BAD1C0C1B09D16D1E58BF01F801CBB2
:1021B000FAD505E014F8016B01F8016B6D1EF9D535
:1021C0009142D6D37047000000230024002500264A
:1021D000103A28BF78C1FBD8520728BF30C148BF8A
:1021E0000B6070471FB51FBD10B510BD00F050F853
:1021F0001146FFF7F7FF08F011FE00F06EF803B488
:10220000FFF7F2FF03BC00F071F8000072B67047F0
:1022100062B67047EFF3108072B6704780F3108893
:10222000704730BF704720BF7047B0FA80F07047EA
:1022300090FAA0F0B0FA80F0704790FAA0F07047E2
:102240000948804709480047FEE7FEE7FEE7FEE74A
:10225000FEE7FEE7FEE7FEE7FEE7FEE70448054986
:10226000054A064B70470000F59F00083121000821
:1022700028470020284D0020284900202849002018
:10228000704770477047000000487047C8460020FC
:102290007546FFF7F9FFAE4605006946534620F044
:1022A0000700854618B020B5FFF7D8FFBDE82040ED
:1022B0004FF000064FF000074FF000084FF0000B02
:1022C00021F00701AC46ACE8C009ACE8C009ACE8B5
:1022D000C009ACE8C0098D46704710B50446AFF39D
:1022E00000802046BDE81040FFF789BF0149182053
:1022F000ABBEFEE726000200704700001D484FF00D
:10230000FF010170002080F309881B48016881F3F8
:1023100008881A484FF08051016062B6FEE71748FE
:102320004FF080510160704714484FF080510160B8
:10233000704772B6EFF3098028B1203880E8F00FBB
:102340000F490968086000B50E4880475DF804EB46
:102350000D480E490A78027009480D490A68026062
:10236000106890E8F00F203080F309884EF0F40EEA
:1023700062B6704722ED00E06400002004ED00E04A
:102380005C000020956E0008300000203100002025
:102390006000002010B502210F4800F0F5F8002180
:1023A0000E4801F041FA32200C490839C860012179
:1023B0000A4801F039FA0121074800F0F3F806480D
:1023C0000830006840F0020003490831086001212C
:1023D000014800F086F910BD0024014008000240C9
:1023E00000B591B00121480206F03AFA0121082017
:1023F00006F036FA0121102006F032FA4FF40040C0
:1024000006F002FA0120ADF8400000208DF84300EC
:1024100010A9584801F03AFE0220ADF84000002013
:102420008DF8430010A9534801F030FE0120ADF8AB
:10243000400000208DF8430010A94F4801F026FE0F
:102440000820ADF8400000208DF8430010A94A484C
:1024500001F01CFE0420ADF8400000208DF8430080
:1024600010A9454801F012FE0121084606F0D8F9EE
:102470004248009042480190002002903220039090
:102480000020049080200590400006908000079076
:10249000002008904FF40050099000200A906946EF
:1024A000384801F0ECF90121364801F0BDF901226C
:1024B0000221344801F0DAF900200B9001208DF858
:1024C00030008DF831004FF460200D9000200E9008
:1024D00005208DF83C000BA928484C3800F078F80E
:1024E00007230122082125484C3800F099F80723DA
:1024F0000222092121484C3800F092F807230322D8
:102500000A211E484C3800F08BF8072304220C21C6
:102510001A484C3800F084F8072305220D2117488B
:102520004C3800F07DF8012114484C3800F03AF89E
:10253000012112484C3800F02AF810484C3800F0BD
:10254000CBF800BF0D484C3800F037F80028F9D11F
:102550000A484C3800F0D0F800BF08484C3800F06A
:102560002CF80028F9D1012104484C3800F0B9F8C2
:1025700011B000BD000C0140001001404C2401408E
:102580003846002008000240CA430260704721B16B
:10259000826842F00102826003E0826822F0010258
:1025A0008260704721B1826842F48072826003E0E9
:1025B000826822F4807282607047014600208A6837
:1025C00002F004020AB1012000E000207047000080
:1025D00030B502460020002350680F4C20400D7992
:1025E0000C6844EA05242043506090680B4C20405E
:1025F000D1E902542C434D7944EA450420439060CC
:10260000D06A20F470000C7C641EE4B2234340EADC
:102610000350D06230BD0000FFFEF0FFFDF7F1FF78
:10262000F0B504460D4600200021092D11DDE068BB
:10263000A5F10A0606EB4607072606FA07F18843C6
:10264000A5F10A0606EB460603FA06F10843E06028
:102650000CE0206905EB4507072606FA07F18843D9
:1026600005EB450603FA06F108432061072A0FDA55
:10267000606B561E06EB86071F2606FA07F1884395
:10268000561E06EB860605FA06F10843606322E053
:102690000D2A0FDA206BD61F06EB86071F2606FAD7
:1026A00007F18843D61F06EB860605FA06F10843B4
:1026B000206310E0E06AA2F10D0606EB86071F26F4
:1026C00006FA07F18843A2F10D0606EB860605FA25
:1026D00006F10843E062F0BD816841F008018160C5
:1026E000704721B1826842F4A002826003E08268F0
:1026F00022F4A00282607047816841F00401816089
:102700007047000053485449086054484860544892
:1027100088605448C8605448086154484861544827
:1027200088615448C8615448086254484862544813
:1027300088625448C86254480863544848635448FF
:1027400088635448C86554480866544848665448E5
:1027500088665448C866544808675448C1F88400DD
:102760005348C1F888005348C1F898005248C1F84E
:102770009C005248C1F8A0005148C1F8AC00514833
:10278000C1F8B0005048C1F8B4005048C1F8B800D2
:102790004F48C1F8BC004F48C1F8C0004E48C1F8CE
:1027A000C4004E48C1F8C8004D48C1F8CC004D489F
:1027B000C1F8D0004C48C1F8DC004C48C1F8E0003A
:1027C0004B48C1F8E4004B48C1F8E8004A48C1F85A
:1027D000EC004A48C1F844014948C1F84801494859
:1027E000C1F850014848C1F854014848C1F8640193
:1027F0004748C1F868014748C1F86C014648C1F82C
:1028000070014648C1F874014548C1F8780145484F
:10281000C1F88C014448C1F890014448C1F89401C2
:102820004348C1F898014348C1F89C014248C1F8A7
:10283000A0014248C1F8A4014148C1F8A80141489B
:10284000C1F8BC014048C1F8C0014048C1F8C4010A
:10285000704700009D890008003F0020B9980008DB
:10286000D99800083D9A00085D9A0008C1890008BF
:102870004D8D0008E1890008F189000829870008CA
:1028800039870008118C0008218C0008A98A0008EB
:10289000B98A000891960008B99500089994000833
:1028A000F99400085995000819960008DD9300086E
:1028B000B98C0008518A0008A58C0008018A00081C
:1028C000619300087D930008499000086590000816
:1028D0005D8F0008798F0008F19600080D970008B9
:1028E0008D8E0008A98E0008298A0008C987000873
:1028F00079870008E187000849870008BD8D000836
:1029000031930008818D0008AD910008ED91000819
:1029100009920008819200089D9200081D94000809
:1029200039940008B597000881970008699100085C
:1029300035910008F58D0008118E0008E597000814
:1029400001980008E98C0008258F00087D98000890
:1029500070B50024304890F84C0000F0F00080285A
:1029600005D12D4890F84C0000F00F0030B1002048
:102970002A4908802A482B49086070BD0020264952
:1029800081F8B0010021244880F8B1112348008863
:10299000401C2249088008460088B0F5967F00DA7E
:1029A000EBE700201D4908801B4890F8F801C0F3B0
:1029B000401058BB184890F8F801C0F3001028BB2D
:1029C0001548D0F8B811184809F00EFC0546124811
:1029D0000168284609F02EF904461449204609F0FA
:1029E000C7FA07D21249204609F0C2FB02D20A48B0
:1029F000046002E00020084908600748D0F8FC01A4
:102A000020F00100401C0449C1F8FC0100210248EB
:102A1000C16400BFB1E70000B0090020A800002099
:102A200059510008980000200000B44200002041E5
:102A3000000020C11CB5002400BF00F027F821E0F1
:102A40006946002001F008FC48B90F480168009869
:102A500009F0F0F80C49C1F8B80100240DE0142C7D
:102A600002DA601C84B208E00748D0F8F80120F0D0
:102A7000100010300449C1F8F80101AA0021022019
:102A800004F050FADCE70000B009002008B507F0B8
:102A900067F802F003FD6946182007F00BF89DF86F
:102AA0000000382801D1002008BD4FF0FF30FBE7BF
:102AB00010B5204890F84C00282803D01E481F4924
:102AC000086010BD00201B4981F8B001486B4FF031
:102AD0007E5109F0AFF804461648816D204609F092
:102AE00047FB08D21349486B4FF07E5109F0A2F81A
:102AF0001049486518E00F49886B4FF07E5109F086
:102B000073FB04460B48816D204609F031FA08D268
:102B10000849886B4FF07E5109F066FB054948650E
:102B200002E00448816D41650121024880F8B1113D
:102B300000BFC6E7B0090020E52B00089C0000207C
:102B400010B50C4890F84C00252803D00A480B49D2
:102B5000086010BD0020074981F8B001888F09F096
:102B6000F3F9044948650121024880F8B11100BF1A
:102B7000EFE70000B0090020E52B00089C000020D2
:102B800010B5144890F84C0000F0F000202818D13F
:102B90001048D0F8F801C0F3807068B90D48D0F83B
:102BA000F801C0F3006038B907F066FE00F082FA61
:102BB0000948006880470BE00021064880F8B11101
:102BC00006E00648064908600021024880F8B11175
:102BD00010BD0000B00900209C00002059510008E1
:102BE0009800002000211F4880F8B11190F84C0097
:102BF000242803D11C481D49086032E0194890F888
:102C00004C00252803D11A481849086029E01548C6
:102C100090F84C00282806D1164814490860002175
:102C20001048C1651DE00F4890F84C00212803D1E1
:102C300011480E49086014E00A4890F84C00222818
:102C400003D10E48094908600BE0064890F84C0093
:102C5000202803D10A480549086002E009480A49CA
:102C600008607047B0090020B12F00089C000020C8
:102C7000412B0008B12A00088D2C0008A52E000861
:102C8000192F0008595100089800002010B57C4801
:102C900090F84C00212808D000207A4908707A4921
:102CA00008807A487A49086010BD0020744981F88C
:102CB000B0017448007805287ED2DFE800F0032DCB
:102CC0006581B80073496E484165012180F8B111F2
:102CD000014608696F4908F0ADFF04466848D0F81E
:102CE000B811204609F044FA15D8654801696948C9
:102CF00009F07AFA04466248D0F8B811204609F083
:102D000037F908D80120644908705E49087000212D
:102D10005B4880F8B111B0E00121594880F8B11149
:102D20005D49097801EB8101490001F13C0009F09E
:102D3000F3F853494865486D584909F019FA0AD81B
:102D400001205549087003204E49087000214C4865
:102D500080F8B11117E04A49486D4FF07E5109F0F3
:102D600043FA04464648D0F8B811204609F000F965
:102D700009D20220434908700020434908800021FD
:102D80003F4880F8B11178E000213D4880F8B1114A
:102D90003D4801880088401C3B4A108042F6E060B4
:102DA00081420CDB00201146088001203549087063
:102DB00039480078401C00E053E0374908705CE077
:102DC00001212F4880F8B1113349097801EB8101C5
:102DD0004900C1F1780009F09FF829494865486D1C
:102DE0002F4909F0C5F809D801202B490870254959
:102DF00008700021224880F8B11117E02049486D81
:102E00004FF07E5108F016FF04461D48D0F8B81167
:102E1000204609F0ADF909D804201A4908700020AD
:102E2000194908800021164880F8B11125E00021D9
:102E3000134880F8B111144801880088401C124AD8
:102E4000108042F6E06081420ADB002011460880D3
:102E500003200C49087010480078401C0E49087087
:102E60000BE0002007490870074908800A490870EC
:102E70000021034880F8B11100BF00BF00BF13E775
:102E8000B0090020AA000020AC000020E52B0008BB
:102E90009C00002000007042AE0000200000F442C0
:102EA0000000684210B5174890F84C00222803D063
:102EB00015481649086010BD0020124981F8B0017C
:102EC000D1F8B801124909F08FF90446114909F007
:102ED0004FF908D20B49886B4FF0804109F084F913
:102EE0000849486507E00749486B4FF0804108F002
:102EF000A1FE044948650121024880F8B11100BFD4
:102F0000D9E70000B0090020E52B00089C00002054
:102F10000000B442CDCCCC3D10B5224890F84C0016
:102F2000202803D020482149086010BD01201D49F8
:102F300081F8B001886B4FF07E5109F055F90446D5
:102F40001848D0F8F411204609F012F808D81549AD
:102F5000886B4FF07E5109F047F9124948651AE035
:102F60001049486B4FF07E5108F064FE04460D484E
:102F7000D0F8F411204609F0FBF808D80949486B4D
:102F80004FF07E5108F056FE0649486503E00548BB
:102F9000D0F8F41141650121024880F8B11100BF59
:102FA000C3E70000B0090020E52B00089C000020CA
:102FB00010B50C4890F84C00242803D00A480B495F
:102FC000086010BD0020074981F8B001888F08F023
:102FD000BBFF044948650121024880F8B11100BFD8
:102FE000EFE70000B0090020E52B00089C0000205E
:102FF00010B501214FF0C05005F022FC012004F073
:1030000029FF002000F042F8002000F02BF800F02B
:103010001FF8002004F01EFF10BD10B5042000F0C2
:1030200027F84AF6AA21884201D1002010BD4FF0AE
:10303000FF30FBE710B5012004F00CFF4AF6AA218F
:10304000042000F029F8002004F004FF10BD000067
:103050000348008840F001000149088070470000E3
:10306000346C0040014908607047000088860D42BA
:1030700008B50146002000900348009000980844DD
:1030800000900098008808BD006C0040014908606D
:103090007047000000860D4208B500220092044AE5
:1030A0000092009A02440092009A116008BD00004C
:1030B000006C00400E4890F84C00242817D00C48B3
:1030C00090F84C00252809D10948D0F8F801C0F340
:1030D000007060B920210648C16408E00448D0F8B7
:1030E000F801C0F3007010B125210148C164704798
:1030F000B009002070B5044600250C49204608F0B0
:103100006BFF06460A4909F06FF805464FF07E51FD
:10311000284609F02DF801D84FF07E55054928467C
:1031200008F026FF00D8034D284670BDF7E4213E85
:10313000666666400AD7233C70B50024002501F07E
:10314000DBFD184818490861001588820820C8600E
:1031500014484860C014088108200860084601F03F
:1031600042FE00F02DF801F037FB05464DB90F483F
:103170000F4908600F4848600F4888600F48C860D2
:1031800009E00A480A4908600A4848600A48886015
:103190000A48C86000BF00BF00F0D8F904462046C6
:1031A00070BD0000000C01403C410020333353400F
:1031B0002C410020333383401283C03EF530000899
:1031C00008B50121202005F04BFB4020ADF80000A0
:1031D00004208DF8030002208DF80200694605489E
:1031E00000F054FF8020ADF800006946014800F06F
:1031F0004DFF08BD0014014001460846044A12680C
:10320000904203D9024A1268801A00E000207047F9
:103210007800002070B5002500BFFEF7FBFF0546D3
:1032200000BF0648046800BF2846FEF7F7FF00BF4E
:103230002046FFF7E1FF0646304670BD7C000020C7
:1032400070B50025FFF7E6FF044600BFFEF7E2FF7A
:10325000054600BF00200449086000BF2846FEF76D
:10326000DDFF00BF204670BD7C00002000B509488E
:103270000088401C074908800748008818B900F0FA
:1032800039F80649086004480088401C0249088053
:1032900000BD00006C0000206E00002070000020C7
:1032A00000B50F480088401E0D4A10801046008867
:1032B000A0B900F01FF80B4A1060104600680A4AD7
:1032C0001268811A09480068884201D207480160E3
:1032D00007480068884201D20548016000BD00002F
:1032E0006E00002074000020700000207C00002090
:1032F000800000200148406870470000001000E096
:1033000030B502460B46002100244FF6FF7000BF87
:1033100012E0555C684000240AE000F0010525B188
:1033200040104AF20105684000E04010651CECB214
:10333000082CF2DB4D1CA9B29942EADB30BD00003B
:103340002DE9F74F82B089461446484608F046FCFE
:103350000746224A224B08F017FA054607F012FFEB
:1033600081462049204608F037FE824608F036FCA8
:1033700007461A4A1A4B08F007FA054607F002FFFB
:10338000044619480168029808F02EFF824608F0AA
:1033900025FC0746154A164B08F0F6F9054607F0D6
:1033A000F1FE02902146484607F00AFC009008F022
:1033B00015FC05460F4A104B08F0E6F907460022B7
:1033C0000E4B07F011FF824607F0DCFE0190DDE9AD
:1033D000011001F00BFF05B0BDE8F08FD5CC5A0A03
:1033E00048FB0F3F000080BFD8000020EC51B81E02
:1033F00085EB713FD3DEE00B93A94C400080564033
:1034000010B50446012C0DD04448007800F00100AE
:1034100008B900F013F9002001F05CFC00204049DD
:10342000087010BD3F48007830B101281ED0022836
:1034300044D003286BD159E03B49D1F8DC013B492A
:1034400008F096FD0ED83849D1F8C801384908F07F
:103450008FFE03D801203349087006E0032031496C
:10346000087002E002202F49087054E02B480078D1
:1034700000F0010008B900F0E1F82B49D1F8DC01B7
:103480004FF0824108F074FE06D92749D1F8C801EF
:10349000284908F06DFD08D8002001F01BFC002031
:1034A0001F4908701F49087007E0012001F012FC55
:1034B00001201B4908701B4908702CE0002001F016
:1034C00009FC0020164908701448007800F001003B
:1034D00008B100F031F811480078C0F3001008B1CD
:1034E00000F098F800200F49087014E0002001F067
:1034F000F1FB00200A4908700848007800F001003C
:1035000008B900F09BF800200649087003E000208D
:103510000449087000BF00BF00BF82E7B000002070
:10352000B1000020BC000020B00900200000A04035
:103530000000F0410000E04110B510231422D0211A
:10354000014801F069FD10BD3C4100202DE9F0412A
:1035500000242C48C06810B9601EBDE8F0814FF40B
:1035600088731422D021284801F056FD0446002318
:103570002922D021244801F04FFD044411231522B3
:10358000D021214801F048FD04441E4988684FF0CD
:10359000834108F021FD07464FF07E5108F024FEDC
:1035A000064608F099FC85B22B461A22D02116480F
:1035B00001F032FD044413494868144908F014FE30
:1035C0000746134908F008FD064608F085FC85B259
:1035D0002B461B22D0210C4801F01EFD04444FF461
:1035E00061631D22D021084801F016FD044445F214
:1035F00060431E22D021044801F00EFD0444204601
:10360000ABE700002C4100203C410020000074404A
:103610000000A04210B54FF488731422D021064850
:1036200001F0FAFC142000F055F910231422D021E7
:10363000014801F0F1FC10BD3C41002010B54FF4F1
:1036400088731422D021024801F0E6FC10BD00006E
:103650003C41002010B54FF48071024800F0F5FDA8
:1036600010BD000000080140012017498882002099
:103670000860A1F844005A2088872D20A1F8420054
:1036800012484863124888635A20C887A1F840004E
:10369000400708610F4888600F4848604FF082403B
:1036A000C8600E4848620E480862002088623C20CC
:1036B000C885122088854FF4967048860E200886AB
:1036C0000848886170470000B009002000003442BB
:1036D000000007430000F0410000F242CDCC8C40D6
:1036E0009A99F93F0000404010B5022000F0A8F878
:1036F000002864D03248006820F002003049086099
:1037000000212F480838FEF7ECFF00212C4808382C
:10371000FEF748FF022000F079F8002029490870E0
:1037200031E000212848274A127840F82210002072
:10373000264908701EE02549097801EB8101214ADC
:1037400012781144224A32F8110008F0FDFB0446B9
:103750001D481C4A127850F82210204608F06AFAD8
:103760001949184A127841F8220018480078401C7C
:1037700016490870154800780A28DCDB11480078E3
:10378000401C104908700F4800780528C9DB0E4816
:103790000068104908600C4840680F4908600A48F2
:1037A00080680E4908600848C0680D4908600648EE
:1037B00000690C49086000210B4800F035F810BD85
:1037C00008240140240100209C46002025010020FF
:1037D00038460020280100202C0100203001002064
:1037E00038010020340100200800024010B50446D2
:1037F0000021054800F018F80348001D046001216D
:10380000001F00F011F810BD5804024000F0805174
:1038100011B10349086001E00249486070470000A7
:10382000040402400000024021B1026842F001029B
:10383000026004E002684FF6FE731A4002607047AF
:1038400001460020002201F0805313B1054B1A6895
:1038500001E0054B1A6802EA01030BB1012000E008
:103860000020704700040240000002401AB10368C3
:103870000B43036002E003688B430360704710B59D
:103880000022026847F6F0739A430C6A8B68234360
:103890000C6923434C6923438C692343CC6923433C
:1038A0004C6A23438C6A23431A430260CB6843600B
:1038B0000B6883604B68C36010BD0C2105E00C21D0
:1038C00000BF0A1EA1F10101FBD1021EA0F10100FF
:1038D000F5D1704706E0482100BF0A1EA1F101039F
:1038E00059B2FADA021EA0F1010358B2F3DA7047B6
:1038F00010B51449D1F8CC01134908F039FB15D89B
:1039000012480078401C11490870084600781428B5
:1039100017DB002008700B48D0F8F80120F0806019
:1039200000F180600749C1F8F8010AE0002007496A
:1039300008700448D0F8F80120F080600149C1F80F
:10394000F80110BDB009002000007041D200002035
:103950003EB5A54890F8B30101287DD10020A349C8
:103960000880A3480088401CA149088008460088B8
:10397000052804DA9C48D0F8B8019E4908609C48A4
:103980000088B0F5167F45DD0020994908809648EB
:10399000D0F8B8119748006808F026FC04464FF0AC
:1039A0003F4108F0E5FA09D28F48D0F8F80120F03D
:1039B0000200801C8C49C1F8F80107E08A48D0F861
:1039C000F80120F002008849C1F8F8018648D0F8D3
:1039D000B8118848006808F007FC04464FF07E5193
:1039E00008F0C6FB0BD38048D0F8B81181480068B6
:1039F00008F0FAFB0446804908F0BAFA0BD27A487C
:103A0000D0F8F80120F020007749C1F8F801002033
:103A10007A490880E7E07448D0F8F80120F02000E7
:103A200020307149C1F8F80174480088012817D185
:103A300002A8002148F204130A46CDE90010022131
:103A40006F4802F089FBBDF808000028E2D102AB04
:103A5000002204216A4800E01FE002F059FDC2E0A4
:103A6000664800880028D5D15F48D0F8F801C0F337
:103A700040700028CED10120604908805A48D0F813
:103A8000F80120F020005849C1F8F80102AB0022EB
:103A900001215B4802F03CFDA5E0534890F8B301DA
:103AA00002287CD100205249088050480088401CE0
:103AB0004E49088008460088052804DA4A48D0F8AC
:103AC000B8014C49086049480088B0F5167F45DDCB
:103AD0000020464908804448D0F8B811454800689D
:103AE00008F082FB04464FF07C5108F041FB09D2FC
:103AF0003D48D0F8F80120F00200801C3A49C1F896
:103B0000F80107E03848D0F8F80120F00200364903
:103B1000C1F8F8013448D0F8B8113648006808F008
:103B200063FB04464FF07E5108F022FB0BD32E4876
:103B3000D0F8B8112F48006808F056FB04462E490B
:103B400008F016FA0BD22848D0F8F80120F020002F
:103B50002549C1F8F80100202849088043E022489F
:103B6000D0F8F80120F0200020301F49C1F8F801FA
:103B700022480088012816D102A8002148F2041327
:103B80000A46CDE9001002211D4802F0E5FABDF811
:103B9000080010BB02AB00220421194800E01DE020
:103BA00002F0B6FC1FE015480088B0B90E48D0F806
:103BB000F801C0F3407080B90120104908800A481C
:103BC000D0F8F80120F020000749C1F8F80102AB55
:103BD000002201210A4802F09BFC04E00020044975
:103BE0000880024908803EBDB0090020CE000020B8
:103BF000CC000020C8000020000080BFD0000020C2
:103C0000783C002070B54D4890F8B201002864DD82
:103C10004A4A9169D2F8BC0108F0AAFA0CD947487F
:103C2000D0F8BC11464808F0D7F9044643488169EA
:103C3000204608F09DFA1DD80020424908704248ED
:103C40000078401C404908700846007807F04CFD99
:103C5000044600223D4B07F095FE0BD200203A4966
:103C600008703648D0F8F80120F00100401C3349B4
:103C7000C1F8F80131498869354908F0ADF90446C1
:103C80002E48D0F8BC11204608F072FA2AD82B49E9
:103C90008869304908F0A0F904462848D0F8BC11DA
:103CA000204608F065F91DD826480078401C2549B3
:103CB000087008460078642814DD00200870224946
:103CC00008701E48D0F8F80120F001001B49C1F827
:103CD000F80100202049087004E00020194908700C
:103CE00019490870154890F8F80100F0010008B370
:103CF0001A480088401C1949088008460088B0F519
:103D0000966F1ADD0020088013480078401C124985
:103D1000087008460078082808DA0848D0F8F80142
:103D200020F001000549C1F8F80106E009200A4920
:103D3000087002E000200949088070BDB009002029
:103D4000000080BFC0000020C100002000002C4007
:103D50006666663F666666BFC2000020C40000203B
:103D600010B53A49886B4FF0804107F063FF044675
:103D70003648D0F8B811204608F0FAF814D2344882
:103D80000078401C324908700846007832285CDD13
:103D9000342008702D48D0F8F80120F008000830D1
:103DA0002A49C1F8F80150E02849486B4FF080419A
:103DB00008F01AFA04462548D0F8B811204608F051
:103DC000D7F914D222480078401C214908700846CF
:103DD0000078322839DD342008701C48D0F8F8010A
:103DE00020F00400001D1949C1F8F8012DE0174921
:103DF000886B4FF07E5108F0F7F904461348D0F86D
:103E0000B811204608F0B4F91FD21049486B4FF0A2
:103E10007E5107F00FFF04460C48D0F8B811204639
:103E200008F0A6F811D20020094908700748D0F818
:103E3000F80120F004000549C1F8F8010846D0F85F
:103E4000F80120F00800C1F8F80110BDB009002009
:103E5000C600002010B500F0E1F8352000F01EF893
:103E600000240AE00B4901EBC42000F01DF800BF5C
:103E700000F05AF80128FBD0641C502CF2D30648FD
:103E800000F012F800BF00F04FF80128FBD000F05E
:103E900065F810BD00A0020800F007080149C860DD
:103EA000704700000020024030B5044604254FF45E
:103EB000302000F0BFF80546042D17D10C480069EA
:103EC00040F002000A49086108464461006940F078
:103ED000400008614FF4302000F0ACF8054604487B
:103EE000006941F6FD71084001490861284630BD6E
:103EF0000020024004200B49C96801F0010109B10A
:103F000001200EE00749C96801F0040109B102204F
:103F100007E00449C96801F0100109B1032000E07D
:103F2000042070470020024004200B49C96801F0BA
:103F3000010109B101200EE00749C96801F004013F
:103F400009B1022007E00449C96801F0100109B174
:103F5000032000E00420704700200240034800696D
:103F600040F08000014908617047000000200240D5
:103F700070B504460D460426F00200F05BF80646D4
:103F8000042E11D10948006940F001000749086179
:103F90002580F00200F04EF806460448006941F61C
:103FA000FE71084001490861304670BD00200240A2
:103FB00078B506460C46042500200090E80200F083
:103FC00039F80546042D24D11348006940F001005A
:103FD000114908613480E80200F02CF80546042DF0
:103FE00010D1B01C0090200C00990880E80200F06D
:103FF00021F805460848006941F6FE710840064967
:10400000086106E00448006941F6FE710840024973
:104010000861284678BD000000200240024803499C
:10402000486003484860704723016745002002400C
:10403000AB89EFCD00B502460423FFF75BFF0346D3
:1040400003E0FFF757FF0346521E012B01D1002A60
:10405000F7D102B90523184600BD000010B500F0E5
:10406000ADFD4FF4E8500849A1F8AC0100F00AFC9E
:104070000549B1F8AC1108430349A1F8AC01092185
:104080000148A0F8AE1110BDB00900202DE9F041A3
:10409000024600250026002000230024002791F876
:1040A00003C00CF00F0591F803C00CF0100CBCF12C
:1040B000000F03D091F802C04CEA050591F800C04A
:1040C000BCF1000F31D0146800202BE04FF0010C40
:1040D0000CFA00F3B1F800C00CEA03069E4220D1AE
:1040E00083004FF00F0C0CFA03F7BC4305FA03FCF6
:1040F0004CEA040491F803C0BCF1280F06D14FF03C
:10410000010C0CFA00FCC2F814C00AE091F803C0DC
:10411000BCF1480F05D14FF0010C0CFA00FCC2F8BD
:1041200010C0401C0828D1D31460B1F800C0BCF105
:10413000FF0F34DD546800202EE000F1080C4FF032
:10414000010808FA0CF3B1F800C00CEA03069E421D
:1041500021D183004FF00F0C0CFA03F7BC4305FA92
:1041600003FC4CEA040491F803C0BCF1280F05D10C
:1041700000F1080C08FA0CF8C2F8148091F803C09A
:10418000BCF1480F07D100F1080C4FF0010808FA04
:104190000CF8C2F81080401C0828CED35460BDE84B
:1041A000F0810000F0B50A4600230024002100251C
:1041B00000F00046B6F1004F02D11D4EF16901E05A
:1041C0001B4E7168C0F3034583B200F44016B6F588
:1041D000401F08D121F07061154E766826F0706698
:1041E000134F7E6012E000F48016B6F5801F06D1F2
:1041F000032606FA05F4A14341F0706106E0460D7E
:10420000360103FA06F6B14341F0706122B1460D62
:10421000360103FA06F6314300F00046B6F1004FCE
:1042200002D1034EF16101E0014E7160F0BD00006A
:10423000000001400246002093680B400BB10120B2
:1042400000E0002070474161704701617047000045
:1042500000487047003F00202DE9F84F83460F4685
:104260000024002500266946232005F023FC9DF844
:10427000000004436946222005F01CFC200204B221
:104280009DF80000044369462B2005F013FC9DF8BF
:104290000000054369462A2005F00CFC280205B2FF
:1042A0009DF80000054369462D2005F003FC9DF8AC
:1042B0000000064369462C2005F0FCFB300206B2E4
:1042C0009DF8000006436946182005F0F3FB9DF8B1
:1042D0000000382813D1304607F01EFE80462846DD
:1042E00007F01AFE8146204607F016FE8246424637
:1042F0004946FFF725F838600020BDE8F88F4FF0F9
:10430000FF30FAE738B5044600256B463422D02149
:104310003F4800F08FFD054615B14FF0FF3038BD26
:10432000BDF8000000F4807088B1207820F0010012
:10433000401C2070207820F002002070207820F0AF
:1043400004002070207820F00800207030E02078F1
:1043500020F001002070BDF8000000F0800028B1BE
:10436000207820F00200801C207003E0207820F0EC
:1043700002002070BDF8000000F0400028B1207855
:1043800020F00400001D207003E0207820F00400DD
:104390002070BDF8000000F0180028B1207820F04F
:1043A00008000830207003E0207820F0080020701A
:1043B000BDF8000000F0040028B1207820F01000C3
:1043C0001030207003E0207820F010002070BDF83D
:1043D000000000F0020028B1207820F020002030FA
:1043E000207003E0207820F020002070BDF800004D
:1043F00000F0010028B1207820F04000403020700B
:1044000003E0207820F040002070002087E70000C3
:104410003C4100202DE9F843044600256B463D222F
:10442000D0210D4800F006FD05468DB9BDF900000C
:1044300007F072FD8046094907F0CEFD07464FF0B0
:10444000834107F06BFC0646054907F067FC2060D6
:104450002846BDE8F88300003C410020DC80BB3FDB
:1044600000007A4410B50024694800F0C7F90444FC
:104470006748001FFFF7CEFF04446548083000F08E
:10448000E9F804446348FFF73DFF04445CB90020A9
:10449000614908706148D0F8F80120F000405F4998
:1044A000C1F8F8011AE05C4801780078401C5A4ACB
:1044B0001070052912DD0520114608705748D0F804
:1044C000F80120F0004000F100405449C1F8F80123
:1044D00000215248C0F8D411C0F8D0114D480078DE
:1044E000C0F3401058B94B480078C0F3801030B981
:1044F0004A49D1F8D4014A4907F03AFD18D80020BA
:104500004849088048480088401C474908800846B8
:104510000088142829DB002008804048D0F8F801E2
:1045200020F0005000F100503C49C1F8F8011CE0B7
:104530003A49D1F8D4013D4907F01AFE15D80020B8
:104540003949088037480088401C364908800846A9
:104550000088642809DB002008803048D0F8F80182
:1045600020F000502D49C1F8F8012C4890F8B20114
:10457000002844D12949D1F8D4012D4907F0F8FC8D
:1045800019D800202B4908802B480088401C2A4954
:10459000088008460088B0F5167F30DB00200880D0
:1045A0001E48D0F8F80120F0805000F180501B49DF
:1045B000C1F8F80123E01949D1F8D4011F4907F0E7
:1045C000D7FD17D800201C4908801A480088401CD5
:1045D0001849088008460088B0F5967F0FDB002058
:1045E00008800E48D0F8F80120F080500B49C1F83F
:1045F000F80104E000200F4908800F4908800749AE
:10460000D1F8D40100F01CF80449C1F8D80110BD5C
:10461000840B0020B0000020B2000020B009002070
:104620000000B041B8000020BA0000200000BC41EA
:104630000000C441B6000020B40000200000D441B6
:1046400010B504460248C1682046884710BD0000E6
:104650002C4100202DE9FE4F04464FF0000A02AB2A
:104660004022D021484800F0E5FB8246BAF1000F15
:1046700023D1BDF9080007F04FFC0746434907F076
:10468000A8FD0546BDF9080007F046FC074640496D
:1046900007F0A2FC0646294607F040FB81463D494B
:1046A000484607F065FC09D849463B4807F094FCAA
:1046B00005463A4907F0BEFA206062E035494846AF
:1046C00007F056FD0ED23249484607F051FC09D892
:1046D0004946334807F080FC0546324907F0AAFAFC
:1046E00020604EE02A49484607F042FD18D22E4984
:1046F000484607F03DFC13D8484607F06FFA0746D6
:104700002A4A2B4B07F040F805464FF00042294B50
:1047100006F06AFDCDE9000106F034FD206030E0CE
:104720002149484607F024FD0ED22349484607F0A8
:104730001FFC09D84946214807F04EFC0546204990
:1047400007F078FA20601CE01B49484607F010FD8E
:104750000ED21C49484607F00BFC09D849461A48B6
:1047600007F03AFC0546194907F064FA206008E0B2
:104770004946174807F030FC0546164907F05AFA33
:1047800020605046BDE8FE8F3C41002000AAAA46AA
:10479000000020419A999940B0031CC19358B4423B
:1047A00013F271C0E9A67642CDCC644164CC5D4B76
:1047B000C88700C0E9A646403333B3418885A2BF0D
:1047C000DB7906420000E441D34D62BF1D5AC94166
:1047D0004F1EB6BEDD24EC4010B500244021064833
:1047E000FFF728FD04436006040E80210248FFF70E
:1047F00021FD0443204610BD001401402DE9F8437B
:10480000044600256B463A22D0210C4800F012FBEA
:10481000054685B9BDF9000007F07EFB80460849D2
:1048200007F0DAFB0746074907F0D6FB06460649BC
:1048300007F074FA20602846BDE8F8833C41002068
:104840000000E040DBE0443E00007A4470B50749D8
:104850000748006807F0C0FB0546064907F0BCFBA7
:104860000446054907F05AFA70BD0000333353403F
:1048700030010020BE9F4E41000020470048704795
:10488000C840002010B500244FF400710A48FFF71B
:10489000D1FC04436006040E4FF480710648FFF714
:1048A000C9FC04436006040E80210348FFF7C2FCE4
:1048B0000443204610BD00000018014070B50949AE
:1048C0000948006807F088FB06464FF08B4107F067
:1048D00025FA0546054907F087FC0446044907F018
:1048E0001DFA70BD0000044228010020000025438D
:1048F000000030410146C1EBC100024A02EB8000DA
:10490000007E7047544100200146C1EBC100024ABD
:1049100002EB8000807E70475441002070B507494B
:104920000748006807F058FB0546064907F054FBA6
:104930000446054907F0F2F970BD000033335340D7
:104940002C010020BE9F4E410000204770B5094950
:104950000948006807F040FB06464FF08B4107F01E
:10496000DDF90546054907F03FFC0446044907F018
:10497000D5F970BD00000442380100200000254335
:104980000000304170B509490948006807F024FB70
:1049900006464FF08B4107F0C1F90546054907F07F
:1049A00023FC0446044907F0B9F970BD0000044235
:1049B000340100200000254300003041F8B50446D2
:1049C00000266B46002292210F4800F033FA06467B
:1049D000BEB99DF80150BDF80000000200B2009081
:1049E000BDF8000000F47F4000B20090BDF9000067
:1049F00028430090BDF90000C11700EB11610912B6
:104A000021803046F8BD0000B04600202DE9FC476B
:104A100005460E4617469846DDE90A9A002400200E
:104A2000009001904FF480716348FFF70CFC4FF445
:104A300000716148FFF709FC80215F48FFF703FC24
:104A40000A20FEF73AFF00BF5BE04FF480715A483E
:104A5000FFF7FBFB0A20FEF730FF182C18DA402185
:104A60005548FFF7E7FB012841D12046E11704EB49
:104A70005171C910A4EBC102012191406A4602EBB9
:104A8000E402127811436A4602EBE40211702EE050
:104A90001C2C10DA40214848FFF7CCFB012826D116
:104AA0009DF80300A4F1180101228A401043C0B20E
:104AB0008DF803001BE0342C19DA40213E48FFF743
:104AC000B9FB012813D1201DC11700EB5171C9108A
:104AD000A0EBC102012191406B46221D03EBE202D3
:104AE00012781143CAB2211D03EBE1010A704FF4A1
:104AF00080713148FFF7A7FB0A20FEF7DEFE601C3D
:104B0000C4B2342CA1DB4FF400712B48FFF79BFBA0
:104B10009DF8000000F00F009DF80010C1F3021195
:104B200001EB810100EB410028809DF8010000F0BD
:104B30000F009DF80110C1F3021101EB810100EBA0
:104B4000410030809DF8020000F00F009DF8021037
:104B5000C1F3011101EB810100EB410038809DF8A8
:104B6000040000F00F009DF80410C1F3011101EBE7
:104B7000810100EB4100A8F800009DF8050000F05D
:104B80000F009DF80510C1F3001101EB810100EB4E
:104B90004100A9F800009DF8060000F00F009DF804
:104BA0000610090901EB810100EB410000F2DA7007
:104BB000AAF80000BDE8FC870010014008B50121FB
:104BC000402003F04DFE8020ADF8000004208DF859
:104BD000030002208DF8020069460A48FFF756FAE2
:104BE0004FF48070ADF8000069460648FFF74EFAB2
:104BF0004FF40070ADF8000069460248FFF746FA2E
:104C000008BD00000018014018B9054A12880A8042
:104C100004E0012802D10A88014B1A807047000085
:104C2000D400002017481849086018484860184800
:104C300088601848C86018480861184848611848D2
:104C400088611848C8611848086248621748886235
:104C50001748C862174808631748486317488863AD
:104C60001748C86310480864164848640E488864AA
:104C7000C86415480865154848651548C8650A4858
:104C800008667047AD890008C8400020B789000851
:104C9000D1890008E5910008D9900008ED8F00083F
:104CA00071990008FD930008094C0008C19600089E
:104CB000E9950008C994000829950008899500081D
:104CC00055960008318C00084D9A00086D9A00082E
:104CD000C98A000810B50446012C04D18102054898
:104CE000FFF7B3FA04E04FF480610248FFF7ABFA34
:104CF00010BD00000018014008B50121402003F05C
:104D0000AFFD4FF48060ADF8000010208DF8030077
:104D100002208DF8020069460448FFF7B7F94FF406
:104D200080610248FFF78FFA08BD000000180140BB
:104D300070B504460025A18A2069FFF784FA21890D
:104D40006068FFF782FA0120FEF7C4FDA18A20699E
:104D5000FFF77BFA0320FEF7BDFD21896068FFF7AE
:104D600069FA012800D10125A18A2069FFF76BFAB1
:104D70000120FEF7AFFD284670BD70B504460D4614
:104D8000A18A2069FFF75FFA0120FEF7A3FD2189C0
:104D90006068FFF75AFA00202870072620E0A18AF1
:104DA0002069FFF750FA0120FEF794FDA18A2069DF
:104DB000FFF74BFA0320FEF78DFD21896068FFF7AE
:104DC00039FA012803D12978B04001432970A18A1A
:104DD0002069FFF738FA0220FEF77CFD701E46B20C
:104DE000002EDCDA70BD38B504460121206803F0DE
:104DF00037FD0121E06803F033FD2089ADF80000A4
:104E000014208DF8030003208DF8020069466068C5
:104E1000FFF73CF921896068FFF717FAA08AADF81F
:104E2000000069462069FFF731F9A18A2069FFF780
:104E30000CFA38BD2DE9F84380460E4617461C464D
:104E400000250020208006F0FE06404600F0ADF868
:104E50003146404600F03EF84046FFF769FF00B19A
:104E60006D1E3946404600F035F84046FFF760FFBA
:104E700000B16D1E46F00106404600F096F831463E
:104E8000404600F027F84046FFF752FF00B16D1E84
:104E900069464046FFF771FF20889DF800100843DF
:104EA0002080404600F049F869464046FFF765FF1C
:104EB00020889DF800104FF47F4202EA0121084348
:104EC0002080404600F055F8404600F086F828461D
:104ED000BDE8F8832DE9F04104460E460127072579
:104EE00027E0A18A2069FFF7AEF90120FEF7F2FC66
:104EF00046FA05F000F0010020B121896068FFF753
:104F0000A4F903E021896068FFF79DF90120FEF70D
:104F1000E1FCA18A2069FFF798F90520FEF7DAFC89
:104F2000A18A2069FFF78FF90120FEF7D3FC681EE4
:104F300045B2002DD5DABDE8F08110B50446A18A4E
:104F40002069FFF780F921896068FFF77CF901206B
:104F5000FEF7C0FCA18A2069FFF777F90520FEF76C
:104F6000B9FCA18A2069FFF76EF90120FEF7B2FCB7
:104F700010BD10B50446A18A2069FFF764F92189A4
:104F80006068FFF762F90120FEF7A4FCA18A20699E
:104F9000FFF75BF90520FEF79DFCA18A2069FFF76A
:104FA00052F90120FEF796FC10BD10B50446218988
:104FB0006068FFF74AF90220FEF78CFCA18A20699D
:104FC000FFF743F90220FEF785FC21896068FFF7AF
:104FD0003AF90220FEF77EFC10BD10B50446A18A06
:104FE0002069FFF730F90120FEF774FC2189606821
:104FF000FFF729F90120FEF76DFCA18A2069FFF770
:1050000024F90220FEF766FC21896068FFF71DF98C
:105010000120FEF75FFC10BD2DE9F04180460E46F1
:1050200017461D46002406F0FE064046FFF7BDFF6A
:1050300031464046FFF74EFF4046FFF779FE00B18C
:10504000641E39464046FFF745FF4046FFF770FEB5
:1050500000B1641EE9B24046FFF73CFF4046FFF74F
:1050600067FE00B1641E290A4046FFF733FF404641
:10507000FFF75EFE00B1641E4046FFF7AEFF20461C
:10508000BDE8F0812DE9F04180460D4616461F46E9
:10509000002405F0FE054046FFF787FF29464046FD
:1050A000FFF718FF4046FFF743FE00B1641E31468C
:1050B0004046FFF70FFF4046FFF73AFE00B1641E7F
:1050C00039464046FFF706FF4046FFF731FE00B184
:1050D000641E4046FFF781FF2046BDE8F08110B511
:1050E000012003F055FC00BF612003F033FC0028D1
:1050F000FAD045F2555000F029F8042000F01AF8D3
:105100004FF47A6000F01CF800F00CF800F002F8A0
:1051100010BD00004CF6CC4001490860704700000B
:10512000003000404AF6AA2001490860704700009C
:1051300000300040014948607047000000300040E6
:105140000149886070470000003000400149086054
:10515000704700000030004000211E4880F8B11167
:10516000C06CFF2802D11B48C16431E0194890F897
:105170004C0000F0F000202803D1174817490860C0
:1051800026E0144890F84C0000F0F000102803D1FD
:105190001348124908601BE00E4890F84C0000F0DC
:1051A000F000402803D10F480C49086010E009487E
:1051B00090F84C0000F0F000802803D10A4807491D
:1051C000086005E000210348C164D0F8F41141658E
:1051D00070470000B0090020812B000898000020D3
:1051E000BD57000805570008512900082DE9FE4F5A
:1051F00005460C46DFF8D491DFF8D4A1DFF8D4B12E
:105200004946284606F0E8FE0746734801684846C6
:1052100006F0E2FE804671480168404606F0D9FF7C
:105220000646394606F006FD6D4908606A48006882
:105230006C4908606C4801686C4806F0CDFE02902D
:105240006B480168484606F0C7FE0190694801684E
:10525000484606F0C1FE009067480168009806F0D5
:10526000B8FF8046019906F0BFFF0746029906F095
:10527000E1FC0646514606F0DDFC604908605A48EC
:105280000168484606F0A8FE0646594801683046BF
:1052900006F09FFF5A49086053480168484606F0E7
:1052A0009BFE064653480168304606F092FF55497A
:1052B000086051464C48006806F0BCFC5249086042
:1052C00059464E48006806F0B5FC064631464B4844
:1052D000006806F023FD4D490860594647480068BC
:1052E00006F0A8FC064631464648006806F016FD62
:1052F000474908603A480168204606F075FF0746AE
:1053000042480168384606F067FE064634480168A0
:10531000304606F08FFC314908603148016820466C
:1053200006F062FF07463A480168384606F054FE28
:1053300006462C480168304606F07CFC2649086089
:10534000324801684FF07E5006F04EFF06462B486B
:105350000168304606F040FE274908602B48016886
:105360004FF07E5006F040FF064625480168304663
:1053700006F032FE1E49086025480168254806F0FF
:105380002BFE07461D480168384606F025FE0646F6
:105390001C480168304606F04DFC164908601C4860
:1053A00001681C4806F018FE074615480168384693
:1053B00006F012FE064614480168304606F03AFC34
:1053C0000949086005480068BDE8FE8F0AD7A33C7C
:1053D0000AD7233C00002041E8000020E400002020
:1053E000DC000020E00000200801002017B7D139C0
:1053F0000001002004010020FC000020EC0000203F
:10540000F0000020F4000020F80000200C01002033
:1054100010010020000080BF10B50948007838B99D
:1054200001200749087002210648FEF70CFF06E03C
:1054300000200349087002210248FEF706FF10BD54
:105440001A0100200018014008B50121402003F096
:1054500007FA0220ADF8000010208DF803000220AA
:105460008DF8020069460448FEF710FE022102484A
:10547000FEF7EBFE08BD00000018014010B5022148
:105480000148FEF7E2FE10BD0018014010B50221F0
:105490000148FEF7D8FE10BD00180140F8B5694676
:1054A0000F2004F007FB0EE069460F2004F002FB1A
:1054B0009DF80000692800D106E0002401E0601C8E
:1054C000C4B2322CFBDBEFE700BF0021112005F056
:1054D000DFFA7021102005F0DBFA0121122005F01F
:1054E000D7FA11E0002000906946122004F0E2FA99
:1054F0009DF8000000F0010000B906E0002401E082
:10550000601CC4B2322CFBDBECE700BF00210120A1
:1055100005F0BEFA20210B2005F0BAFA00210D207B
:1055200005F0B6FA00210E2005F0B2FA4321102052
:1055300005F0AEFA4221112005F0AAFA74211220DA
:1055400005F0A6FA8C21132005F0A2FA0021142000
:1055500005F09EFA0021152005F09AFA0021162088
:1055600005F096FAC421172005F092FA1021582070
:1055700005F08EFA3821182005F08AFA3821192012
:1055800005F086FA002400203C49086037E000203E
:10559000009069461E2004F08DFA9DF8000000F08E
:1055A000020002281DD100256946232004F082FA5A
:1055B0009DF8000005436946222004F07BFA28028A
:1055C00005B29DF800000543284606F0A5FC0646F6
:1055D0002A480168304606F02DFB28490860601C07
:1055E000C4B2052C0BDD204606F0AEFC0646314663
:1055F0002248006806F092FB2049086000E0C6E7F8
:1056000000BF002437E00020009069461E2004F00F
:1056100051FA9DF8000000F0020002281DD100257B
:105620006946232004F046FA9DF8000005436946C8
:10563000222004F03FFA280205B29DF8000005433D
:10564000284606F069FC06460C480168304606F01C
:10565000F1FA0A490860601CC4B21E2C0BDD20461A
:1056600006F072FC064631460448006806F056FB18
:105670000249086000E0C6E700BFF8BDD80000207E
:1056800008B5002400BFFFF7DFFE24E0601CC4B2B1
:105690001148006D28B9062C16DD0024FFF7BCFE6A
:1056A00012E00D48006D012802D1FFF7EFFE0BE07C
:1056B0000948006D022805D1022C05DB0024FFF704
:1056C000ABFE01E0FFF7DAFEFFF72CFD6A46002192
:1056D0000A2001F027FCD9E7B009002010B54FF4EB
:1056E00000410248FEF7B1FD10BD00000008014076
:1056F00010B54FF400410248FEF7A5FD10BD0000B3
:105700000008014070B52A4890F84C0000F0F00005
:10571000402805D1264890F84C0000F00F0018B141
:1057200024482549086070BD0020214981F8B00156
:10573000486B4FF07E5106F07DFA04461C49B1F8E3
:10574000420006F001FC0546214606F011FC08D295
:105750001749486B4FF07E5106F06CFA14494865C2
:1057600020E01349886B4FF07E5106F03DFD044662
:105770000F49B1F8420006F0E7FB0546214606F066
:10578000F7FC08D20A49886B4FF07E5106F02CFDD9
:105790000749486506E00649B1F8420006F0D4FB27
:1057A000034948650121024880F8B11100BFBAE7FA
:1057B000B0090020595100089800002010B51E487B
:1057C00090F84C0000F0F000102803D01B481C4952
:1057D000086010BD0020184981F8B001084690F813
:1057E0004C0018280CD10121134880F8B111014652
:1057F000486B4FF0804106F01DFA0F49486518E0EC
:105800000D4890F84C0014280CD101210A4880F86A
:10581000B1110146886B4FF0804106F0E5FC064966
:10582000486506E00021044880F8B111D0F8F41171
:10583000416500BFCDE70000B009002059510008C4
:105840009800002008B5002000F06EF802F05AFF22
:105850005CE02F4A2F49002000F08CF800283AD154
:105860002B4800782C49898A884202D02848007841
:10587000D0B9002029490880294908802548028894
:105880002849234802F02EFD254908800846008853
:10589000002836DD1E48007898B3224A0846018861
:1058A000002000F0BFF82CE01C4801880088401C54
:1058B0001A4A108047F23050814222DBFFF70EFF78
:1058C0006A460021642001F02DFBFFF711FF002044
:1058D0001249088015E0114801880088401C0F4AD1
:1058E000108047F2305081420BDBFFF7F7FE6A462B
:1058F0000021642001F016FBFFF7FAFE00200749A3
:1059000008806A460021012001F00CFBA1E700009D
:10591000D43D002088000020B00900208A0000202B
:1059200086000020A83C002010B5044614B1012CCC
:1059300014D109E004F0A6FD0A480B4908600B48A1
:105940000968C1F860020AE004F09CFD08480649B5
:10595000486006484968C1F8600200E000BF00BF27
:1059600010BD0000704100201C010020ED37000830
:10597000D44300202DE9F04104460E4690462848C5
:1059800050F824000079AB2842D1254850F8240073
:105990004179234850F824004079401C204A52F8AD
:1059A00024205071062938DB56201D4951F8241057
:1059B000087100201A4951F824104871184850F80D
:1059C0002400008830800020154951F824100880F8
:1059D0003188134A52F82420901DFDF791FC0746A8
:1059E000DFB900250EE00E4850F82400801D405D10
:1059F00008F80500FF210A4850F82400801D415591
:105A0000681C85B23088A842EDDC0020BDE8F0813A
:105A10000020034951F8241048714FF0FF30F5E79A
:105A20001C0100202DE9F04105460E469046002459
:105A300006E000BF00BF00BF00BF00BF601C84B213
:105A40004CF250308442F4DB002406E000BF00BF7B
:105A500000BF00BF00BF601C84B24CF250308442D3
:105A6000F4DB002409E018F80410154850F825006C
:105A700000F599700155601C84B2B442F3DB104903
:105A800051F8251001F599703146FDF739FC0746AC
:105A90000B4850F8250000F5997087553A0A0848D8
:105AA00050F8250000F59970711C4254B21C90B258
:105AB000034A52F82520D2F860128847BDE8F081E9
:105AC0001C01002010B504F0CBFC002411E00221E1
:105AD000204600F089F90020C4EBC401064A02EB1D
:105AE00081010876C4EBC40102EB81018876601C59
:105AF000C4B2012CEBDB10BD544100200EB50024D4
:105B000000BF00F011FA5FE1B04890F8B101002841
:105B10007ED0AE4890F8F801C0F34010002877D14D
:105B2000AA4890F8F801C0F300100028F7D1A74860
:105B300090F8F80100F001000028F0D1A34890F897
:105B4000F801C0F340000028E9D1A048D0F8F801DE
:105B5000C0F340700028E2D19C48D0F8F801C0F3AF
:105B600080600028DBD1994890F8B001012807D166
:105B7000964908694FF0804106F0D0F8044600E0ED
:105B800000249348007820B101287DD002287AD1E2
:105B90009CE08E4AD2F8B811506D06F025FB0646FF
:105BA0008A480169304606F0E3FA12D2022187489A
:105BB00080F8B411874801780078401C854A10703D
:105BC000C8295EDD02208249087000201146087055
:105BD00057E07E480169804806F0FEF906467B4A98
:105BE000D2F8B811506D06F0FFFA0746314606F0BC
:105BF000BFF914D20121754880F8B41175480178B5
:105C00000078401C734A1070C8293ADD012000E07A
:105C100087E06F49087000201146087031E0FFF7F7
:105C200051FF00206A4908706A49087000216748DE
:105C300080F8B41102A848F204130A46CDE9001016
:105C40000221664800F088FABDF8080028B902ABC6
:105C500000220421614800F05BFC02A8002148F208
:105C600004130A46CDE9001002215D4800F074FAE1
:105C7000BDF8080028B902AB00220421584800F002
:105C800047FC4DE000E043E0504AD2F8B811506DB7
:105C900006F0AAFA0646214606F06AFA05D94B48EC
:105CA00090F8F801C0F3800038B1FFF70BFF002037
:105CB000474908704B49088007E0002000F04CF984
:105CC00048480088401C4749088029E03F4A516DF8
:105CD000D2F8B80106F088FA0646214606F048FADE
:105CE00005D93A4890F8F801C0F3C00038B1FFF781
:105CF000E9FE0020364908703A49088007E0002094
:105D000000F050F937480088401C3649088007E009
:105D1000FFF7D8FE00202E4908703249088000BFE6
:105D200033E0FFF7CFFE0020294908700021274803
:105D300080F8B41100202B49088002A8002148F205
:105D400004130A46CDE900100221244800F004FAA9
:105D5000BDF8080028B902AB002204211F4800F05A
:105D6000D7FB02A8002148F204130A46CDE900102F
:105D700002211B4800F0F0F9BDF8080028B902AB79
:105D800000220421164800F0C3FB16480088B0F535
:105D9000FA6F08DD00201349088002AB00220121C0
:105DA0000F4800F0B5FB0020FEF7AEFD074981F873
:105DB000B2010020FEF79EFD044981F8B30102AA5A
:105DC0000021012001F0AEF89EE60000B00900209D
:105DD0008C0000208D000020000080BF783C002057
:105DE000903C00208E00002070B504460D46012D29
:105DF0000DD1C4EBC4020D4B03EB82021189C4EB3D
:105E0000C40203EB82025068FEF71FFA0CE0C4EBF9
:105E1000C402064B03EB82021189C4EBC40203EBFC
:105E200082025068FEF70FFA70BD00005441002056
:105E300070B504460D46012D1FD12148B0F844002D
:105E400068B9C4EBC4021F4B03EB8202918AC4EB16
:105E5000C40203EB82021069FEF7F7F92EE0C4EBEF
:105E6000C402184B03EB8202918AC4EBC40203EB19
:105E700082021069FEF7E7F920E0022D1ED11048DA
:105E8000B0F8440068B9C4EBC4020E4B03EB8202C5
:105E9000918AC4EBC40203EB82021069FEF7D3F9C6
:105EA0000CE0C4EBC402074B03EB8202918AC4EB03
:105EB000C40203EB82021069FEF7C7F970BD00004F
:105EC000B00900205441002008B50121202002F033
:105ED000C7FC4FF44040ADF8000010208DF80300DF
:105EE00003208DF8020069460D48FEF7CFF84FF405
:105EF00000410B48FEF7A7F909480A4948604FF4EA
:105F00000040088120200860054808614FF4804067
:105F100088822020C86000200876887608BD0000AE
:105F2000001401405441002010B5FFF7CDFF04F0EC
:105F300091F810BD08B500BF0CE0FDF763FEFDF75A
:105F40000FFFFDF705FDFDF7D3FC6A460021052094
:105F500000F0E8FFF1E7000010B50446012C1CDC5E
:105F60000E480078A04207D1C4EBC4000C4901EBF5
:105F70008000007E012810D0FFF7A4FD0120C4EBB3
:105F8000C401074A02EB810108760448047001212C
:105F90000078FFF74DFF04F051FA10BD1401002006
:105FA0005441002010B50446012C1CDC0E4800783A
:105FB000A04207D1C4EBC4000C4901EB8000007E75
:105FC000022810D0FFF77EFD0220C4EBC401074A6F
:105FD00002EB810108760448047002210078FFF783
:105FE00027FF04F02BFA10BD1401002054410020BB
:105FF00008B54FF4A06000F065F81D208DF8000092
:1060000000208DF8010001208DF802008DF80300BA
:10601000684600F01FF80B208DF8000000208DF876
:10602000010002208DF8020001208DF8030068466F
:1060300000F010F834208DF8000001208DF80100E8
:1060400000208DF8020001208DF80300684600F062
:1060500001F808BD70B5002100230F22C47804B3F5
:10606000154C246804F4E064C4F5E064210AC1F12D
:106070000403CA40447804FA03F1847814402143AD
:1060800009010E4C0678A155047804F01F0501247F
:10609000AC4005786D11AD0005F1E025C5F8004173
:1060A00009E0047804F01F050124AC40044D067893
:1060B000761145F8264070BD0CED00E000E400E0EC
:1060C00080E100E002490143024A1160704700008C
:1060D0000000FA050CED00E0704700002DE9F041EA
:1060E0000446884616461D460027184800780028B2
:1060F00004DD42F6E1602880BDE8F0811CB945F678
:10610000C3502880F8E700BF00BFFCF783F80746BC
:1061100000BFFDF7ABF800BF0D48206026610020EE
:106120006061201D01F057F90A480088401C0949A8
:10613000088000BFFDF7B4F800BF3846FCF76EF8E2
:1061400000BF00BF0020288000BFD5E7240000204A
:10615000464C41472E0000202DE9FF4F8BB00546ED
:1061600089469846DDE9186400200290E4480078EA
:10617000002806DD46F2AE10208000200FB0BDE8FA
:10618000F08F25B945F6C35020800020F6E748F28D
:106190000101A8EB0100884536D01ADC40F201115C
:1061A000A8EB010088452BD00CDCB8F1010F23D0FF
:1061B000B8F1020F21D0B8F1040F1FD0B8F1080FC9
:1061C0002AD11CE001281CD003281BD0072823D18A
:1061D00019E0B0F5807F1BD006DC012815D003281C
:1061E00014D0072818D112E0A0F2011088B10228BB
:1061F00010D0062810D10EE000BF00BF00BF00BFC6
:1062000000BF00BF00BF00BF00BF00BF00BF00BF96
:1062100000BF00BF00BF04E045F6256020800020DD
:10622000ACE700BFB7492868884204D045F6C4509F
:1062300020800020A2E708F4807010B14FF0010A1E
:1062400001E04FF0000A0EB10020306008F00F0BA3
:1062500000BF00BFFBF7DEFF029000BFFDF706F8AE
:1062600000BFBBF1040F03D0BBF1080F70D152E0A7
:10627000286900EA09074F4518D1BAF1010F02D188
:106280002869B8432861A048006807640EB16869AE
:10629000306000BFFDF704F800BF0298FBF7BEFFB7
:1062A00000BF00BF00202080384667E708F40040A8
:1062B00068B100BFFCF7F4FF00BF0298FBF7AEFF28
:1062C00000BF00BF46F2B0102080002056E78F4884
:1062D000007800280DDD00BFFCF7E2FF00BF029848
:1062E000FBF79CFF00BF00BF46F6635020800020F4
:1062F00044E70D9843464A462946009003A800F01B
:10630000C1FE00BFFCF7CCFF00BF0298FBF786FF81
:1063100000BF00BF60E0286900EA0907CFB1BAF109
:10632000010F02D12869B8432861774800680764E3
:106330000EB16869306000BFFCF7B2FF00BF029881
:10634000FBF76CFF00BF00BF00202080384615E738
:1063500034E008F4004068B100BFFCF7A1FF00BFC3
:106360000298FBF75BFF00BF00BF46F2B010208031
:10637000002003E76548007800280DDD00BFFCF72A
:106380008FFF00BF0298FBF749FF00BF00BF46F632
:10639000635020800020F1E60D9843464A46294686
:1063A000009003A800F06EFE00BFFCF779FF00BF6D
:1063B0000298FBF733FF00BF00BF0DE000BFFCF702
:1063C0006FFF00BF0298FBF729FF00BF00BF45F633
:1063D000256020800020D1E600BF00F0E9F900BF71
:1063E00000BFFBF717FF029000BFFCF73FFF00BFA5
:1063F0004548006890F8210030B101280CD00228EF
:106400002CD003283CD119E01EB13F480068806AB7
:1064100030600020208040E01EB13B480068806A68
:10642000306000BFFCF73CFF00BF0298FBF7F6FEB0
:1064300000BF00BF46F2A91020802EE00EB1002060
:10644000306000BFFCF72CFF00BF0298FBF7E6FEB0
:1064500000BF00BF47F2D92020801EE01EB12A48AD
:106460000068806A306000BFFCF71AFF00BF029826
:10647000FBF7D4FE00BF00BF45F6C25020800CE001
:1064800000BFFCF70DFF00BF0298FBF7C7FE00BF7F
:1064900000BF46F62E60208000BF00BF208808B1F4
:1064A00000206BE618480068076CBAF1010F1AD19A
:1064B000BBF1040F03D0BBF1080F05D100E000BF12
:1064C0002869B84328610DE000BFFCF7E9FE00BF72
:1064D0000298FBF7A3FE00BF00BF45F625602080B1
:1064E00000204BE600BF00BFFCF7DAFE00BF0298B9
:1064F000FBF794FE00BF00BF0020208038463DE639
:1065000024000020464C41475C0000204000002051
:106510002DE9F8430546884616461C462DB945F632
:10652000C35020800020BDE8F8834EB1012E08D072
:10653000B6F5004F06D06FF40040304420B902E0B9
:1065400000BF00BF00BF04E045F6256020800020AA
:10655000E9E700BF0A492868884204D045F6C450DC
:1065600020800020DFE7FCF7C5FE81464B4632461F
:1065700041462846009400F0ABFD07463846D2E776
:10658000464C414710B50348006810B10148006807
:10659000804710BD1000002070B5044600F088F858
:1065A00000202E4908702E4908702E4908702E4987
:1065B00008602E4908602E4908702E4908702E493F
:1065C00008702E4908602E4908602E4908602E4840
:1065D000006858B12D48056845B12B48066803E0AE
:1065E000761E002028602D1D002EF9D1002028499C
:1065F0000860284908602849086028490860284937
:10660000086028490860284908602849087000F097
:10661000D9FF01F007F8204600F052FD208800B1B4
:1066200070BD204601F092F8208800B1F8E72046BE
:1066300001F0AAF8208800B1F2E7204600F052FEEF
:10664000208800B1ECE7204601F080FB208800B1F3
:10665000E6E7FFF741FD00BFE2E70000240000206D
:106660002C000020400000205C0000206000002082
:1066700030000020310000203200002034000020D3
:10668000380000203C000020E4C30008E0C30008FC
:1066900004000020080000200C0000201000002052
:1066A00014000020180000201C0000204A000020D8
:1066B000064800680649096800EB81000549086042
:1066C0000846006820F0070008607047E0C3000833
:1066D000E4C300086400002010B500242C480078B2
:1066E000012800D010BD00BFFBF794FD044600BF99
:1066F0002848007828B900BF2046FBF78FFD00BF6F
:10670000F0E724480078401E2249087008460078C7
:10671000002805DD00BF2046FBF780FD00BFE1E754
:106720001D480078002805DD00BF2046FBF776FDF8
:1067300000BFD7E700F032FF18490870084600781C
:1067400000EB4000164951F8200016490860084641
:10675000006815490968884205D100BF2046FBF74B
:106760005DFD00BFBEE70F480068C06C401C0D49CE
:106770000968C8640D480068401C0C490860FBF7B4
:10678000D3FD00BF2046FBF749FD00BF00BFA9E7CE
:106790002C000020240000204000002031000020B8
:1067A000C0070020600000205C00002044000020A2
:1067B00010B500241E480078002800DD10BD1D48DB
:1067C0000078002800DDF9E700BFFBF723FD044651
:1067D00000BF00F0E3FE184908700846007800EB9F
:1067E0004000164951F82000154908600846006825
:1067F00014490968884205D100BF2046FBF70EFD09
:1068000000BFDBE70E480068C06C401C0C490968FB
:10681000C8640D480068401C0B490860FBF77FFD09
:1068200000BF2046FBF7FAFC00BF00BFC6E7000030
:10683000240000204000002031000020C00700207C
:10684000600000205C0000204400002010B50446D9
:1068500012480078E8B900F0A1FE11490870084616
:106860000078104908700E48007800EB40000E498F
:1068700051F820000D490860084600680C4908607E
:10688000012006490870FBF739FD43F69920208066
:1068900002E045F68A60208010BD00002C00002038
:1068A0003100002030000020C007002060000020E0
:1068B0005C0000202DE9FF4F85B004469346DDE9DA
:1068C0001985159F139E00200290564800780028D5
:1068D00005DD47F24A10288009B0BDE8F08F1CB9E9
:1068E00047F2AD102880F7E7BBF1000F03D147F264
:1068F0004F102880F0E71EB946F62F602880EBE79E
:1069000049480068874203D246F630602880E3E7B2
:106910001498B84203D346F631602880DCE7129819
:10692000202803D346F273202880D5E712981F2829
:1069300006D13E48844203D046F273202880CBE73C
:10694000204600F02DFF0020288008F0010088B1CB
:1069500008F0020070B1B2460020049007E0002069
:10696000CAF800000AF1040A0498401C0490049834
:10697000B842F4D3149806EB80000390CDE9007878
:1069800032465846039B089900F022FA8246129834
:1069900084F82300C4F800A018986060A4F824804C
:1069A0004FF0000908E0002104F1380040F82910F8
:1069B00009F1010000F0FF09B9F1000FF3D0204602
:1069C00000F03AF800BF00BFFBF724FC029000BFC4
:1069D000FCF74CFC00BF94F8230000F0FFFD2046BC
:1069E00000F068FE12480088401C114908801148D8
:1069F0000078012809D000BFFCF752FC00BF0298C4
:106A0000FBF70CFC00BF00BF66E700BFFCF748FCCB
:106A100000BF0298FBF702FC00BF00BFFFF7C8FEF3
:106A200000BF59E72400002010C4000850070020D0
:106A3000480000202C00002010B5044603480068E0
:106A400018B1204601490968884710BD040000209C
:106A500070B504460D46002644480078002803DD42
:106A600047F24E10288070BD4148844203D147F25E
:106A70004C102880F7E79CB900BF00BFFBF7CAFBAA
:106A8000064600BFFCF7F2FB00BF3A48046800BFAF
:106A9000FCF706FC00BF3046FBF7C0FB00BF00BFA1
:106AA00000BF00BFFBF7B6FB064600BFFCF7DEFBEE
:106AB00000BF94F8220008282DD2DFE800F0040976
:106AC0000E10080A0F11204600F012FE30E02FE0F1
:106AD00000BF204601F038F82AE000BF00BF00BF29
:106AE00094F82000082810D2DFE800F00407050819
:106AF000090A0B0600BF00BF08E000BF00BF00BFCF
:106B000000BF204600F09FFC00E000BF00BF204611
:106B100001F01AF80CE000BFFCF7C2FB00BF3046E2
:106B2000FBF77CFB00BF00BF46F62D6028809AE78C
:106B300000BF204600F022F80F480088401E0E4992
:106B40000880204600F02CFEFF2084F8220000BFC1
:106B5000FCF7A6FB00BF3046FBF760FB00BF00BFA1
:106B600000202880FFF724FE00BF7CE724000020DF
:106B7000500700205C0000204800002010B50446AB
:106B80000348006818B1204601490968884710BDCC
:106B90000800002010B504460348006818B12046DC
:106BA00001490968884710BD0C0000202DE9F04715
:106BB00080460E4614461D464FF000097148007885
:106BC000002805DD46F2AE1028800020BDE8F087E1
:106BD0001EB1B6F5004F02D100E000BF04E045F65B
:106BE000256028800020F1E700BF0CB10020206064
:106BF00000BF00BFFBF70EFB814600BFFCF736FB72
:106C000000BF61480068C06A90B35F480068C06A0E
:106C1000401E5D490968C8625B480068C76A1CB1CC
:106C200059480068806A2060FCF764FB564909688F
:106C3000896A401A54490968086653480068406EDA
:106C400051490968096E884205D24F480068006EB4
:106C50004D490968486600BFFCF722FB00BF484663
:106C6000FBF7DCFA00BF00BF002028803846ADE704
:106C7000FFE706F4004068B100BFFCF711FB00BF5E
:106C80004846FBF7CBFA00BF00BF46F2B0102880A1
:106C900000209BE73D48007800280DDD00BFFCF791
:106CA000FFFA00BF4846FBF7B9FA00BF00BF46F63F
:106CB00063502880002089E74346072200210846C8
:106CC00000F048FB00BFFCF7EBFA00BF4846FBF7BB
:106CD000A5FA00BF00BFFFF76BFD00BF00BFFBF7C9
:106CE00099FA814600BFFCF7C1FA00BF2648006848
:106CF00090F8210020B1012821D003282FD127E0CE
:106D0000D4B121480068806A2060FCF7F3FA1E497C
:106D10000968896A401A1C49096808661A480068A7
:106D2000406E19490968096E884205D21648006804
:106D3000006E1549096848660020288013E01CB1E0
:106D400011480068806A206046F2A91028800AE095
:106D50000CB10020206047F2D920288003E046F6DD
:106D60002E60288000BF00BF07480068C76A00BFC8
:106D7000FCF796FA00BF4846FBF750FA00BF00BF89
:106D8000384623E7240000205C000020400000205B
:106D90002DE9F04106460D4614461DB1B5F5004FEC
:106DA00002D100E000BF05E045F62560208000200C
:106DB000BDE8F08100BFFCF79DFA804623464246BD
:106DC0002946304600F030FD07463846F0E700001F
:106DD000F0B50446DDE9055602EB850020F007001A
:106DE0004FF0807C071F3846C7F800C0071F3846A1
:106DF0003C60DFF89CC0071F3846C7F800C04FF062
:106E0000123C071F3846C7F800C04FF0033C071F6D
:106E10003846C7F800C04FF0023C071F3846C7F895
:106E200000C0071F38463B60071F384639604FF0E7
:106E3000113C071F3846C7F800C04FF0103C071F31
:106E40003846C7F800C04FF0093C071F3846C7F85E
:106E500000C04FF0083C071F3846C7F800C04FF08D
:106E6000073C071F3846C7F800C04FF0063C071F15
:106E70003846C7F800C04FF0053C071F3846C7F832
:106E800000C04FF0043C071F3846C7F800C0F0BDF3
:106E90001178000870B51F48006810B11D480068DF
:106EA0008047FCF727FA04461B4800681B4909681D
:106EB000884210D018480068406D201A16490968A9
:106EC000086515480068806D13490968096D084414
:106ED000114909688865114800684465FCF7B0F9F4
:106EE00005460D480068806EA84202D20A48006834
:106EF000856609480068C06E09490968884204D25D
:106F00000748006804490968C86600200449086009
:106F100070BD0000180000205C0000206000002010
:106F20003C0000202DE9F04105460E46144600279E
:106F30002A480078002804DD47F275202080BDE84B
:106F4000F08127480078002803DD46F66350208052
:106F5000F5E736B1022E05D0042E0AD0082E09D14D
:106F600001E000BF00BF1DB947F27E202080E6E7A8
:106F700004E003E045F625602080E0E700BF00BFA5
:106F800000BFFBF747F9074600BFFCF76FF900BFEA
:106F90002346324629461348006800F077FD2088D2
:106FA00048B100BFFCF77CF900BF3846FBF736F963
:106FB00000BF00BFC3E70B48006800F099FB00BFAB
:106FC000FCF76EF900BF3846FBF728F900BF00BF99
:106FD000FFF7EEFB0020208000BFB0E72400002078
:106FE000400000205C00002008B500F009F86A4667
:106FF00000210248FFF7CCFE08BD00004009002038
:1070000010B50348006810B101480068804710BD02
:107010001C00002010B5002400BF00BFFBF7FAF8E9
:10702000044600BFFCF722F900BF09480078401C65
:107030000749087000BFFCF733F900BF2046FBF793
:10704000EDF800BF00BFFFF7CFFFFFF745FB10BD16
:107050002400002001464A1E4FF0E0235A61084AEE
:10706000106820F07F4000BF10601A46126942F09D
:1070700005021A611A46126942F002021A6170474B
:1070800020ED00E02DE9F04106460F4614461D466E
:10709000DDF8188009480068C46308480068A0F853
:1070A00044500020054909680864434601223946D6
:1070B000304600F04FF9BDE8F08100005C00002090
:1070C0000021024A11800180704700002E0000203C
:1070D0002DE9F04F85B00446884691469A460E9FAA
:1070E0000020009000BF00BFFBF794F8009000BFA5
:1070F000FCF7BCF800BFB9F1000F0AD0B9F1010FDD
:107100000DD0B9F5004F05D06FF40040484460B988
:1071100006E000BF206940EA0800206115E000BFDA
:10712000206920EA080020610FE000BFFCF7B8F8F2
:1071300000BF0098FBF772F800BF00BF45F625605E
:107140003880002005B0BDE8F08F00BFC4F814A05F
:10715000201D01900198008960B900BFFCF7A0F8DC
:1071600000BF0098FBF75AF800BF00BF002038802E
:107170002069E7E701980668B5683AE07068029010
:1071800095F8440000F00F0003900398042802D003
:1071900008281AD10CE02069E96B00EA010BE86BC2
:1071A000584504D152465946284600F04AF81AE09C
:1071B0002069E96B00EA010BBBF1000F04D05246D5
:1071C0005946284600F03DF80DE000BFFCF768F88E
:1071D00000BF0098FBF722F800BF00BF43F6FF2076
:1071E00038800020AEE700BF029E0EB1B56800E017
:1071F0000025002DC2D100BFFCF752F800BF009857
:10720000FBF70CF800BF00BF09F4004008B9FFF716
:10721000CFFA00BF00BFFAF7FDFF009000BFFCF7F8
:1072200025F800BF2069049000BFFCF739F800BFC3
:107230000098FAF7F3FF00BF00BF002038800498E1
:1072400080E770B504460E461546203426620020BD
:1072500060702070A560A078203C08281DD2DFE86F
:1072600000F0040508090706171800BF00BF00BF9B
:1072700014E000BF94F82200032802D1204600F059
:1072800063FC204600F0E0F9002084F8220005E0CD
:1072900000BF042084F8220000E000BF00BF2046A9
:1072A00000F0D1F870BD0000002418E000BF00BF5E
:1072B000FAF7B0FF044600BFFBF7D8FF00BF08484D
:1072C0000068401C0649086000BFFBF7E9FF00BFEB
:1072D0002046FAF7A3FF00BF00BFFFF753F9E5E729
:1072E0002000002010B58AB0044600200E49086036
:1072F0000B2000210591CDE90704069108460B49B2
:1073000009680B4A12680B4B1B68CDE90132CDE9C5
:1073100003101F200023084A08A100900C48FFF723
:10732000C9FA0AB010BD000020000020BCC300084C
:10733000B8C30008B4C30008A972000875432F4FF2
:10734000532D4949492049646C65205461736B0091
:10735000500700202DE9F04105460C4616461F4611
:107360001248006880F8206000201049096881F800
:10737000210039460D48006800F0F0F96CB104F1C5
:107380000408EC60012229460848006800F010F863
:107390002946404600F024F806E000200349096829
:1073A000C88402490968C861BDE8F0815C0000201A
:1073B00010B5C284C16100230AE000244C600C6057
:1073C0000C614C610C83CC61886020315C1CA3B2E1
:1073D0009342F2DB10BD00210160416001817047E2
:1073E000F0B58E6896F8235007893FB901270781C9
:1073F00000274F600F600160416023E007897F1C18
:107400000781026806E0946894F82370AF4200DDBB
:1074100002E05268002AF6D100BF32B900274F605F
:1074200043680B60596041600CE017682FB9116028
:1074300000270F604A60016004E013680B604A6037
:1074400059601160F0BD2DE9F0410446E569E68C14
:107450000AE0D5F80C8008F104072946384600F008
:107460000AF82035701E86B2002EF2DC0020E0847F
:10747000E061BDE8F08110B50489012C03D100243E
:107480000460446011E00C6824B94A680024146068
:1074900002600AE04C6824B90B6800245C60436019
:1074A00003E00B684A685A6013600489641E048113
:1074B00000244C600C6010BD2DE9F84306460C46D4
:1074C00017469846089D94F8220008284DD2DFE818
:1074D00000F00405080906072B2C00BF00BF00BF01
:1074E00044E000BF94F82000032807D143463A4601
:1074F00021463046009500F03CF800E0A56216B148
:107500002046FFF7A0FF94F82200032802D120466E
:1075100000F01AFB204600F097F800202034A070FD
:10752000607004F8200921E000BF94F820000328CF
:1075300007D143463A4621463046009500F019F8F7
:1075400000E0A56216B12046FFF77DFF94F8220007
:10755000072802D1204600F0F7FA04202034A0705A
:107560000020607004F8200900E000BF00BFBDE803
:10757000F883F0B50446059EC869CD8C0AE0C7685B
:10758000A74204D1046142610383C66104E0203054
:107590006F1EBDB2002DF2DC00BFF0BD70B500253E
:1075A000074C03E005F12000C5B2241D2068002827
:1075B000F8D02068FAF739FE2844C5B2284670BDD5
:1075C00000000020002004E00021034A42F82010BF
:1075D000401C0028F8D070470000002030B5420958
:1075E00000F01F030121C3F11F04A140034C54F814
:1075F00022400C43014D45F8224030BD00000020E0
:1076000030B5420900F01F030121C3F11F04A1405E
:10761000034C54F822408C43014D45F8224030BDC4
:107620000000002000210AE001EB4102054B03EBC2
:10763000820000220281026042604A1CD1B22029ED
:10764000F2D37047C007002010B5044694F8230019
:10765000FFF7C4FF94F8230005490978884203D155
:10766000204600F027F802E0204600F003F810BDA5
:107670003000002010B590F8233003EB43030C4C8E
:1076800004EB83010B893BB901230B810023836049
:10769000C3600860486009E00B895B1C0B810B68C4
:1076A00083600023C3600A68D060086010BD0000DA
:1076B000C007002010B590F8233003EB43030B4CB8
:1076C00004EB83010B893BB901230B810023836009
:1076D000C3600860486008E00B895B1C0B810023D5
:1076E00083604A68C2609060486010BDC007002097
:1076F0002DE9F041054695F8230000EB40001249C2
:1077000001EB8004EF68AE6887B946B9002020819C
:107710002060606095F82300FFF772FF0EE020897B
:10772000401E20810020F060266007E02089401E76
:107730002081BE600EB9676000E0F7600020E8605D
:10774000A860BDE8F0810000C00700200021024AC7
:1077500011800180704700004200002070B504468F
:107760000D4645B12A462146064800F055F903204A
:1077700084F8220002E0022084F822002046FFF76D
:10778000B7FF70BD580000200021034A1180034A52
:107790001160018070470000480000204400002074
:1077A00070B50446002121606160A160E160216143
:1077B0006161A161E161E184A162E163A4F8441027
:1077C0002164002506E0002204F1380141F825205B
:1077D000691CCDB2002DF6D000212034E160216477
:1077E000616484F82610A180216161612185618531
:1077F000E1622163FBF77EFD60630021A163A16468
:10780000E16421706170A1702021E170203C70BDA5
:1078100008B504480068FFF7BDF969460020FFF786
:1078200017F908BD5C0000202DE9F843044688469E
:1078300017461D464FF0000900BF00BFFAF7EAFCEB
:10784000814600BFFBF712FD00BF0CB97148046808
:10785000A7620020288094F82200082878D2DFE868
:1078600000F00405585906075A5B00BF00BF00BF6F
:107870000420012804D0022815D0042839D126E09C
:10788000E06AFF280ED100BFFBF70AFD00BF4846A3
:10789000FAF7C4FC00BF00BF46F6C55028800020A0
:1078A000BDE8F88326E04FF6FF71E06A88420DD10B
:1078B00000BFFBF7F5FC00BF4846FAF7AFFC00BF7E
:1078C00000BF46F6C55028800020E9E712E0E06AD4
:1078D000401C68B900BFFBF7E3FC00BF4846FAF75D
:1078E0009DFC00BF00BF46F6C55028800020D7E7AA
:1078F00000E000BF00BFE06A401CE062E66A00BF33
:10790000FBF7CEFC00BF4846FAF788FC00BF00BF7B
:107910007DE000BF00BF00BF94F82000072818D109
:1079200000231A46214618460097FFF7C5FDE66A70
:1079300000BFFBF7B5FC00BF4846FAF76FFC00BF7D
:1079400000BF08F40040002852D1FEF731FF4FE09D
:107950004FE00420012804D0022814D0042838D194
:1079600025E0E06AFF280DD100BFFBF799FC00BFBE
:107970004846FAF753FC00BF00BF46F6C5502880C2
:1079800000208DE726E04FF6FF71E06A88420DD1B6
:1079900000BFFBF785FC00BF4846FAF73FFC00BF7D
:1079A00000BF46F6C5502880002079E712E0E06A63
:1079B000401C68B900BFFBF773FC00BF4846FAF7EC
:1079C0002DFC00BF00BF46F6C5502880002067E7A9
:1079D00000E000BF00BFE06A401CE062E66A00BF52
:1079E000FBF75EFC00BF4846FAF718FC00BF00BF7B
:1079F0000DE000BFFBF754FC00BF4846FAF70EFC51
:107A000000BF00BF46F62D602880002600BF00BFE3
:107A1000304645E75C00002070B5034615461E68F9
:107A200036B90D6300260E614E618B6119602AE044
:107A30001C6818682A461EE0066B964217D34669F2
:107A400056B90A6300264E6108618B61066BB61A4F
:107A500006634161196009E044690A634C61086189
:107A60008B61066BB61A06634161216170BD066BBE
:107A7000921B044600690028DED10A634C6100268F
:107A80000E618B61216100BFF0E700002DE9F0413C
:107A900004460D4690461F46B8F1040F0ED1284803
:107AA00000682E1A16F5803F01D8002E3CD1002028
:107AB000206347F27E203880BDE8F081B8F1080FDE
:107AC00029D11F49606B0968081AA84205D92E46BA
:107AD0001B4800682844606326E01949606B096808
